{
  "contractName": "AnimalContract",
  "abi": [
    {
      "anonymous": false,
      "inputs": [
        {
          "indexed": false,
          "internalType": "uint256",
          "name": "id",
          "type": "uint256"
        },
        {
          "indexed": false,
          "internalType": "string",
          "name": "nombre",
          "type": "string"
        },
        {
          "indexed": false,
          "internalType": "uint256",
          "name": "fecha_ingreso",
          "type": "uint256"
        }
      ],
      "name": "AnimalActualizado",
      "type": "event"
    },
    {
      "anonymous": false,
      "inputs": [
        {
          "indexed": false,
          "internalType": "uint256",
          "name": "id",
          "type": "uint256"
        },
        {
          "indexed": false,
          "internalType": "string",
          "name": "nombre",
          "type": "string"
        },
        {
          "indexed": false,
          "internalType": "uint256",
          "name": "fecha_ingreso",
          "type": "uint256"
        }
      ],
      "name": "AnimalRegistrado",
      "type": "event"
    },
    {
      "anonymous": false,
      "inputs": [
        {
          "indexed": false,
          "internalType": "uint256",
          "name": "id",
          "type": "uint256"
        },
        {
          "indexed": false,
          "internalType": "string",
          "name": "causa",
          "type": "string"
        },
        {
          "indexed": false,
          "internalType": "uint256",
          "name": "fecha_retiro",
          "type": "uint256"
        }
      ],
      "name": "AnimalRetirado",
      "type": "event"
    },
    {
      "anonymous": false,
      "inputs": [
        {
          "indexed": false,
          "internalType": "uint256",
          "name": "id",
          "type": "uint256"
        },
        {
          "indexed": false,
          "internalType": "string",
          "name": "nueva_categoria",
          "type": "string"
        }
      ],
      "name": "CategoriaCambiada",
      "type": "event"
    },
    {
      "inputs": [
        {
          "internalType": "uint256",
          "name": "",
          "type": "uint256"
        }
      ],
      "name": "animales",
      "outputs": [
        {
          "internalType": "uint256",
          "name": "id",
          "type": "uint256"
        },
        {
          "internalType": "string",
          "name": "id_hembra",
          "type": "string"
        },
        {
          "internalType": "string",
          "name": "nombre",
          "type": "string"
        },
        {
          "internalType": "string",
          "name": "ganadera",
          "type": "string"
        },
        {
          "internalType": "uint256",
          "name": "fecha_ingreso",
          "type": "uint256"
        },
        {
          "internalType": "uint256",
          "name": "fecha_nacimiento",
          "type": "uint256"
        },
        {
          "internalType": "uint256",
          "name": "edad",
          "type": "uint256"
        },
        {
          "internalType": "string",
          "name": "categoria_ingreso",
          "type": "string"
        },
        {
          "internalType": "string",
          "name": "categoria_actual",
          "type": "string"
        },
        {
          "internalType": "string",
          "name": "estatus",
          "type": "string"
        },
        {
          "internalType": "uint256",
          "name": "fecha_retiro",
          "type": "uint256"
        },
        {
          "internalType": "string",
          "name": "causa_mortalidad",
          "type": "string"
        }
      ],
      "stateMutability": "view",
      "type": "function",
      "constant": true
    },
    {
      "inputs": [],
      "name": "siguienteAnimalId",
      "outputs": [
        {
          "internalType": "uint256",
          "name": "",
          "type": "uint256"
        }
      ],
      "stateMutability": "view",
      "type": "function",
      "constant": true
    },
    {
      "inputs": [
        {
          "internalType": "string",
          "name": "_id_hembra",
          "type": "string"
        },
        {
          "internalType": "string",
          "name": "_nombre",
          "type": "string"
        },
        {
          "internalType": "string",
          "name": "_ganadera",
          "type": "string"
        },
        {
          "internalType": "uint256",
          "name": "_fecha_nacimiento",
          "type": "uint256"
        },
        {
          "internalType": "uint256",
          "name": "_edad",
          "type": "uint256"
        },
        {
          "internalType": "string",
          "name": "_categoria_ingreso",
          "type": "string"
        },
        {
          "internalType": "string",
          "name": "_categoria_actual",
          "type": "string"
        },
        {
          "internalType": "string",
          "name": "_estatus",
          "type": "string"
        }
      ],
      "name": "registrarAnimal",
      "outputs": [],
      "stateMutability": "nonpayable",
      "type": "function"
    },
    {
      "inputs": [
        {
          "internalType": "uint256",
          "name": "_id",
          "type": "uint256"
        }
      ],
      "name": "obtenerAnimal",
      "outputs": [
        {
          "internalType": "string",
          "name": "",
          "type": "string"
        },
        {
          "internalType": "string",
          "name": "",
          "type": "string"
        },
        {
          "internalType": "string",
          "name": "",
          "type": "string"
        },
        {
          "internalType": "uint256",
          "name": "",
          "type": "uint256"
        },
        {
          "internalType": "uint256",
          "name": "",
          "type": "uint256"
        },
        {
          "internalType": "uint256",
          "name": "",
          "type": "uint256"
        },
        {
          "internalType": "string",
          "name": "",
          "type": "string"
        },
        {
          "internalType": "string",
          "name": "",
          "type": "string"
        },
        {
          "internalType": "string",
          "name": "",
          "type": "string"
        },
        {
          "internalType": "uint256",
          "name": "",
          "type": "uint256"
        },
        {
          "internalType": "string",
          "name": "",
          "type": "string"
        }
      ],
      "stateMutability": "view",
      "type": "function",
      "constant": true
    },
    {
      "inputs": [],
      "name": "listarAnimales",
      "outputs": [
        {
          "components": [
            {
              "internalType": "uint256",
              "name": "id",
              "type": "uint256"
            },
            {
              "internalType": "string",
              "name": "id_hembra",
              "type": "string"
            },
            {
              "internalType": "string",
              "name": "nombre",
              "type": "string"
            },
            {
              "internalType": "string",
              "name": "ganadera",
              "type": "string"
            },
            {
              "internalType": "uint256",
              "name": "fecha_ingreso",
              "type": "uint256"
            },
            {
              "internalType": "uint256",
              "name": "fecha_nacimiento",
              "type": "uint256"
            },
            {
              "internalType": "uint256",
              "name": "edad",
              "type": "uint256"
            },
            {
              "internalType": "string",
              "name": "categoria_ingreso",
              "type": "string"
            },
            {
              "internalType": "string",
              "name": "categoria_actual",
              "type": "string"
            },
            {
              "internalType": "string",
              "name": "estatus",
              "type": "string"
            },
            {
              "internalType": "uint256",
              "name": "fecha_retiro",
              "type": "uint256"
            },
            {
              "internalType": "string",
              "name": "causa_mortalidad",
              "type": "string"
            }
          ],
          "internalType": "struct AnimalContract.Animal[]",
          "name": "",
          "type": "tuple[]"
        }
      ],
      "stateMutability": "view",
      "type": "function",
      "constant": true
    },
    {
      "inputs": [
        {
          "internalType": "uint256",
          "name": "_id",
          "type": "uint256"
        },
        {
          "internalType": "string",
          "name": "_nombre",
          "type": "string"
        },
        {
          "internalType": "string",
          "name": "_ganadera",
          "type": "string"
        },
        {
          "internalType": "uint256",
          "name": "_edad",
          "type": "uint256"
        },
        {
          "internalType": "string",
          "name": "_estatus",
          "type": "string"
        }
      ],
      "name": "actualizarAnimal",
      "outputs": [],
      "stateMutability": "nonpayable",
      "type": "function"
    },
    {
      "inputs": [
        {
          "internalType": "uint256",
          "name": "_id",
          "type": "uint256"
        },
        {
          "internalType": "string",
          "name": "_causa",
          "type": "string"
        }
      ],
      "name": "retirarAnimal",
      "outputs": [],
      "stateMutability": "nonpayable",
      "type": "function"
    },
    {
      "inputs": [
        {
          "internalType": "uint256",
          "name": "_id",
          "type": "uint256"
        },
        {
          "internalType": "string",
          "name": "_nuevaCategoria",
          "type": "string"
        }
      ],
      "name": "cambiarCategoria",
      "outputs": [],
      "stateMutability": "nonpayable",
      "type": "function"
    }
  ],
  "bytecode": "0x6080806040523461001a576001805561171390816100208239f35b600080fdfe6080604052600436101561001257600080fd5b60003560e01c8063012335721461121557806362d3b976146110bb578063ac6131b614610f85578063b072e26a14610c67578063b144209c1461049f578063c9af2cf0146102e0578063f65893d2146102c25763fcf82e0b1461007457600080fd5b346102bd5760003660031901126102bd5760018054600019808201919081831161023e576100a18361169c565b926100af604051948561138c565b8084526100be601f199161169c565b0160005b818110610254575050835b8281106101f8578385604051906020808301818452845180915260408401918060408360051b8701019601926000905b83821061010a5786880387f35b909192939483806101e7839a603f198b82030186528951805182526101c86101b46101a061017061015d61014b89870151610180808c8b0152890190611330565b604087015188820360408a0152611330565b6060808701519088830390890152611330565b6080808601519087015260a0808601519087015260c0808601519087015260e085015186820360e0880152611330565b610100808501519086830390870152611330565b610120808401519085830390860152611330565b9161014080830151908201526101608092015191818403910152611330565b9997019594939190910191016100fd565b8060005260006020526040600020908281019181831161023e5761023992610222610233926115e5565b61022c82896116b3565b52866116b3565b50611515565b6100cd565b634e487b7160e01b600052601160045260246000fd5b60209060405161026381611370565b60008152606083908082840152806040840152808084015260006080840152600060a0840152600060c08401528060e0840152806101008401528061012084015260006101408401526101608301528288010152016100c2565b600080fd5b346102bd5760003660031901126102bd576020600154604051908152f35b346102bd576102ee36611403565b90806000526020916000835261030a60406000205415156115a2565b8160005260008352604060002042600a820155600b810182516001600160401b038111610489576103458161033f8454611435565b8461153b565b85601f82116001146104005791817f7709cf6de037ccde40eb79f4034638ae3d2cff35be16af76222abc322383cf279794926009946000916103f5575b508160011b916000199060031b1c19161790555b01906103a28254611435565b601f81116103d4575b5050601067526574697261646f60c01b0190556103cf604051928392429184611580565b0390a1005b601f6103ee9284600052600020910160051c810190611524565b84806103ab565b905086015189610382565b601f1982169083600052876000209160005b81811061047257509260099492600192827f7709cf6de037ccde40eb79f4034638ae3d2cff35be16af76222abc322383cf279b989610610459575b5050811b019055610396565b88015160001960f88460031b161c19169055898061044d565b91928960018192868b015181550194019201610412565b634e487b7160e01b600052604160045260246000fd5b346102bd576101003660031901126102bd576004356001600160401b0381116102bd576104d09036906004016113ad565b6024356001600160401b0381116102bd576104ef9036906004016113ad565b6044356001600160401b0381116102bd5761050e9036906004016113ad565b9060a4356001600160401b0381116102bd5761052e9036906004016113ad565b60c4356001600160401b0381116102bd5761054d9036906004016113ad565b60e4356001600160401b0381116102bd5761056c9036906004016113ad565b916001549461057a86611515565b6001556040519661058a88611370565b8688526020880152846040880152606087015242608087015260643560a087015260843560c087015260e086015261010085015261012084015260006101408401526040518060208101106001600160401b0360208301111761048957602081016040526000815261016084015281600052600060205260406000208351815560208401518051906001600160401b03821161048957819061063c826106336001870154611435565b6001870161153b565b602090601f8311600114610bf557600092610bea575b50508160011b916000199060031b1c19161760018201555b60408401518051906001600160401b03821161048957819061069c826106936002870154611435565b6002870161153b565b602090601f8311600114610b7857600092610b6d575b50508160011b916000199060031b1c19161760028201555b60608401518051906001600160401b0382116104895781906106fc826106f36003870154611435565b6003870161153b565b602090601f8311600114610afb57600092610af0575b50508160011b916000199060031b1c19161760038201555b6080840151600482015560a0840151600582015560c0840151600682015560e08401518051906001600160401b03821161048957819061077a826107716007870154611435565b6007870161153b565b602090601f8311600114610a7e57600092610a73575b50508160011b916000199060031b1c19161760078201555b61010084015180516001600160401b038111610489578060088401926107d8826107d28654611435565b8661153b565b602090601f8311600114610a0d57600092610a02575b50508160011b916000199060031b1c19161790555b600981016101208501518051906001600160401b038211610489576108328261082c8554611435565b8561153b565b602090601f8311600114610993579180600b94926101609694600092610988575b50508160011b916000199060031b1c19161790555b610140860151600a820155019301519283516001600160401b038111610489576108968161033f8454611435565b6020601f82116001146109005781907f97f51692f330a8954cf8aea3758c2fa607ed820508e1fe59775da6290b02a0b1966000926108f5575b50508160011b916000199060031b1c19161790555b6103cf604051928392429184611580565b0151905086806108cf565b601f198216958360005260206000209660005b8181106109705750917f97f51692f330a8954cf8aea3758c2fa607ed820508e1fe59775da6290b02a0b19791846001959410610957575b505050811b0190556108e4565b015160001960f88460031b161c1916905586808061094a565b83830151895560019098019760209384019301610913565b015190508980610853565b90601f198316918460005260206000209260005b8181106109ea57509260019285926101609896600b9896106109d1575b505050811b019055610868565b015160001960f88460031b161c191690558980806109c4565b929360206001819287860151815501950193016109a7565b0151905087806107ee565b6000858152602081209350601f198516905b818110610a5b5750908460019594939210610a42575b505050811b019055610803565b015160001960f88460031b161c19169055878080610a35565b92936020600181928786015181550195019301610a1f565b015190508680610790565b9250600784016000526020600020906000935b601f1984168510610ad5576001945083601f19811610610abc575b505050811b0160078201556107a8565b015160001960f88460031b161c19169055868080610aac565b81810151835560209485019460019093019290910190610a91565b015190508680610712565b9250600384016000526020600020906000935b601f1984168510610b52576001945083601f19811610610b39575b505050811b01600382015561072a565b015160001960f88460031b161c19169055868080610b29565b81810151835560209485019460019093019290910190610b0e565b0151905086806106b2565b9250600284016000526020600020906000935b601f1984168510610bcf576001945083601f19811610610bb6575b505050811b0160028201556106ca565b015160001960f88460031b161c19169055868080610ba6565b81810151835560209485019460019093019290910190610b8b565b015190508680610652565b9250600184016000526020600020906000935b601f1984168510610c4c576001945083601f19811610610c33575b505050811b01600182015561066a565b015160001960f88460031b161c19169055868080610c23565b81810151835560209485019460019093019290910190610c08565b346102bd5760a03660031901126102bd576001600160401b036004356024358281116102bd57610c9b9036906004016113ad565b906044358381116102bd57610cb49036906004016113ad565b926084358181116102bd57610ccd9036906004016113ad565b9082600052602060008152610ce860406000205415156115a2565b836000526000815260406000209560028701865184811161048957610d118161033f8454611435565b8084601f8211600114610f2157600091610f16575b508160011b916000199060031b1c19161790555b80516003880191848211610489578190610d58826107d28654611435565b8490601f8311600114610eb157600092610ea6575b50508160011b916000199060031b1c19161790555b60643560068701556009860192805192831161048957610da6836107d28654611435565b81601f8411600114610e15575092826004937f5bbc91e3e9d2d3d31c0ed2a63aacb904c3606a39a56b0a06bade71c70785c42498936103cf96600092610e0a575b50508160011b916000199060031b1c19161790555b015460405193849384611580565b015190508980610de7565b9190601f1984168560005283600020936000905b828210610e8e575050937f5bbc91e3e9d2d3d31c0ed2a63aacb904c3606a39a56b0a06bade71c70785c42498936103cf96936001938360049810610e75575b505050811b019055610dfc565b015160001960f88460031b161c19169055898080610e68565b80600186978294978701518155019601940190610e29565b015190508980610d6d565b60008581528681209350601f198516905b87828210610f00575050908460019594939210610ee7575b505050811b019055610d82565b015160001960f88460031b161c19169055898080610eda565b6001859682939686015181550195019301610ec2565b90508801518a610d26565b60008481528681209250601f198416905b878c838310610f70575050509083600194939210610f57575b5050811b019055610d3a565b8a015160001960f88460031b161c191690558a80610f4b565b84015185556001909401939283019201610f32565b346102bd5760203660031901126102bd5760043560005260006020526040600020805460018201610fb59061146f565b91610fc26002820161146f565b90610fcf6003820161146f565b6004820154600583015460068401549091610fec6007860161146f565b91610ff96008870161146f565b936110066009880161146f565b95600a88015497600b016110199061146f565b986040519b8c9b8c528b6101806020819201528c0161103791611330565b8b810360408d015261104891611330565b8a810360608c015261105991611330565b9260808a015260a089015260c088015286810360e088015261107a91611330565b85810361010087015261108c91611330565b84810361012086015261109e91611330565b906101408401528281036101608401526110b791611330565b0390f35b346102bd576110c936611403565b9080600052602090600082526110e560406000205415156115a2565b806000526000825260086040600020019280516001600160401b0381116104895761111a816111148754611435565b8761153b565b83601f821160011461118c5794816103cf93927f2e26217172f7f51f27a38dfc59bd936d96a46f5e3b359c34409ef35d1848e36097600091611181575b508160011b916000199060031b1c19161790555b6040805194859485528401526040830190611330565b905083015188611157565b601f1982169086600052856000209160005b8181106111fe5750927f2e26217172f7f51f27a38dfc59bd936d96a46f5e3b359c34409ef35d1848e3609792600192826103cf9796106111e5575b5050811b01905561116b565b85015160001960f88460031b161c1916905588806111d9565b91928760018192868901518155019401920161119e565b346102bd5760203660031901126102bd576004358060005260006020526040600020541515611243906115a2565b60005260006020526040600020611259906115e5565b6020810151604082015191606081015190608081015160a08201519060c08301519060e0840151906101008501519261012086015194610140870151966101600151976040519a8b9a6101608c526101608c016112b591611330565b8b810360208d01526112c691611330565b8a810360408c01526112d791611330565b9260608a0152608089015260a088015286810360c08801526112f891611330565b85810360e087015261130991611330565b84810361010086015261131b91611330565b906101208401528281036101408401526110b7915b919082519283825260005b84811061135c575050826000602080949584010152601f8019910116010190565b60208183018101518483018201520161133b565b61018081019081106001600160401b0382111761048957604052565b90601f801991011681019081106001600160401b0382111761048957604052565b81601f820112156102bd578035906001600160401b03821161048957604051926113e1601f8401601f19166020018561138c565b828452602083830101116102bd57816000926020809301838601378301015290565b9060406003198301126102bd5760043591602435906001600160401b0382116102bd57611432916004016113ad565b90565b90600182811c92168015611465575b602083101461144f57565b634e487b7160e01b600052602260045260246000fd5b91607f1691611444565b906040519182600082549261148384611435565b9081845260019485811690816000146114f257506001146114af575b50506114ad9250038361138c565b565b9093915060005260209081600020936000915b8183106114da5750506114ad9350820101388061149f565b855488840185015294850194879450918301916114c2565b9150506114ad94506020925060ff191682840152151560051b820101388061149f565b600019811461023e5760010190565b81811061152f575050565b60008155600101611524565b9190601f811161154a57505050565b6114ad926000526020600020906020601f840160051c83019310611576575b601f0160051c0190611524565b9091508190611569565b93929161159d906040928652606060208701526060860190611330565b930152565b156115a957565b60405162461bcd60e51b8152602060048201526014602482015273416e696d616c206e6f20656e636f6e747261646f60601b6044820152606490fd5b906040516115f281611370565b610160611697600b83958054855261160c6001820161146f565b602086015261161d6002820161146f565b604086015261162e6003820161146f565b606086015260048101546080860152600581015460a0860152600681015460c086015261165d6007820161146f565b60e086015261166e6008820161146f565b6101008601526116806009820161146f565b610120860152600a8101546101408601520161146f565b910152565b6001600160401b0381116104895760051b60200190565b80518210156116c75760209160051b010190565b634e487b7160e01b600052603260045260246000fdfea264697066735822122077e4c559fa173205ebfcf3dbc0e5396e0a013e9ddd311b09cf6248c32577155164736f6c63430008120033",
  "immutableReferences": {},
  "source": "// SPDX-License-Identifier: MIT\r\npragma solidity ^0.8.0;\r\n\r\ncontract AnimalContract {\r\n    struct Animal {\r\n        uint id;\r\n        string id_hembra;\r\n        string nombre;\r\n        string ganadera;\r\n        uint fecha_ingreso;\r\n        uint fecha_nacimiento;\r\n        uint edad;\r\n        string categoria_ingreso;\r\n        string categoria_actual;\r\n        string estatus;\r\n        uint fecha_retiro;\r\n        string causa_mortalidad;\r\n    }\r\n\r\n    mapping(uint => Animal) public animales;\r\n    uint public siguienteAnimalId = 1;\r\n\r\n    event AnimalRegistrado(uint id, string nombre, uint fecha_ingreso);\r\n    event AnimalActualizado(uint id, string nombre, uint fecha_ingreso);\r\n    event AnimalRetirado(uint id, string causa, uint fecha_retiro);\r\n    event CategoriaCambiada(uint id, string nueva_categoria);\r\n\r\n    // 📌 Registrar un nuevo animal\r\n    function registrarAnimal(\r\n        string memory _id_hembra,\r\n        string memory _nombre,\r\n        string memory _ganadera,\r\n        uint _fecha_nacimiento,\r\n        uint _edad,\r\n        string memory _categoria_ingreso,\r\n        string memory _categoria_actual,\r\n        string memory _estatus\r\n    ) public {\r\n        uint id = siguienteAnimalId++;\r\n        animales[id] = Animal(\r\n            id, _id_hembra, _nombre, _ganadera, block.timestamp, _fecha_nacimiento,\r\n            _edad, _categoria_ingreso, _categoria_actual, _estatus, 0, \"\"\r\n        );\r\n\r\n        emit AnimalRegistrado(id, _nombre, block.timestamp);\r\n    }\r\n\r\n    // 📌 Obtener los datos de un animal por su ID\r\n    function obtenerAnimal(uint _id) public view returns (\r\n        string memory, string memory, string memory, uint, uint, uint,\r\n        string memory, string memory, string memory, uint, string memory\r\n    ) {\r\n        require(animales[_id].id != 0, \"Animal no encontrado\");\r\n\r\n        Animal memory animal = animales[_id];\r\n        return (\r\n            animal.id_hembra, animal.nombre, animal.ganadera, animal.fecha_ingreso,\r\n            animal.fecha_nacimiento, animal.edad, animal.categoria_ingreso,\r\n            animal.categoria_actual, animal.estatus, animal.fecha_retiro,\r\n            animal.causa_mortalidad\r\n        );\r\n    }\r\n\r\n    // 📌 Listar todos los animales\r\n    function listarAnimales() public view returns (Animal[] memory) {\r\n        Animal[] memory lista = new Animal[](siguienteAnimalId - 1);\r\n        for (uint i = 1; i < siguienteAnimalId; i++) {\r\n            lista[i - 1] = animales[i];\r\n        }\r\n        return lista;\r\n    }\r\n\r\n    // 📌 Actualizar los datos de un animal\r\n    function actualizarAnimal(\r\n        uint _id,\r\n        string memory _nombre,\r\n        string memory _ganadera,\r\n        uint _edad,\r\n        string memory _estatus\r\n    ) public {\r\n        require(animales[_id].id != 0, \"Animal no encontrado\");\r\n\r\n        Animal storage animal = animales[_id];\r\n        animal.nombre = _nombre;\r\n        animal.ganadera = _ganadera;\r\n        animal.edad = _edad;\r\n        animal.estatus = _estatus;\r\n\r\n        emit AnimalActualizado(_id, _nombre, animal.fecha_ingreso);\r\n    }\r\n\r\n    // 📌 Retirar un animal (por venta, muerte, etc.)\r\n    function retirarAnimal(uint _id, string memory _causa) public {\r\n        require(animales[_id].id != 0, \"Animal no encontrado\");\r\n\r\n        Animal storage animal = animales[_id];\r\n        animal.fecha_retiro = block.timestamp;\r\n        animal.causa_mortalidad = _causa;\r\n        animal.estatus = \"Retirado\";\r\n\r\n        emit AnimalRetirado(_id, _causa, block.timestamp);\r\n    }\r\n\r\n    // 📌 Cambiar la categoría de un animal\r\n    function cambiarCategoria(uint _id, string memory _nuevaCategoria) public {\r\n        require(animales[_id].id != 0, \"Animal no encontrado\");\r\n\r\n        Animal storage animal = animales[_id];\r\n        animal.categoria_actual = _nuevaCategoria;\r\n\r\n        emit CategoriaCambiada(_id, _nuevaCategoria);\r\n    }\r\n}\r\n",
  "sourcePath": "C:\\Users\\Raul\\Documents\\GitHub\\Chainventory\\Chainventory\\truffle\\contracts\\AnimalContract.sol",
  "compiler": {
    "name": "solc",
    "version": "0.8.18+commit.87f61d96.Emscripten.clang"
  },
  "schemaVersion": "3.4.16",
  "updatedAt": "2025-03-01T17:35:11.742Z",
  "networkType": "ethereum",
  "devdoc": {
    "kind": "dev",
    "methods": {},
    "version": 1
  },
  "userdoc": {
    "kind": "user",
    "methods": {},
    "version": 1
  }
}