{
  "contractName": "AnimalContract",
  "abi": [
    {
      "anonymous": false,
      "inputs": [
        {
          "indexed": false,
          "internalType": "uint256",
          "name": "id",
          "type": "uint256"
        },
        {
          "indexed": false,
          "internalType": "string",
          "name": "nombre",
          "type": "string"
        },
        {
          "indexed": false,
          "internalType": "uint256",
          "name": "fecha_ingreso",
          "type": "uint256"
        }
      ],
      "name": "AnimalRegistrado",
      "type": "event"
    },
    {
      "inputs": [
        {
          "internalType": "uint256",
          "name": "",
          "type": "uint256"
        }
      ],
      "name": "animales",
      "outputs": [
        {
          "internalType": "uint256",
          "name": "id",
          "type": "uint256"
        },
        {
          "internalType": "string",
          "name": "id_hembra",
          "type": "string"
        },
        {
          "internalType": "string",
          "name": "nombre",
          "type": "string"
        },
        {
          "internalType": "string",
          "name": "ganadera",
          "type": "string"
        },
        {
          "internalType": "uint256",
          "name": "fecha_ingreso",
          "type": "uint256"
        },
        {
          "internalType": "uint256",
          "name": "fecha_nacimiento",
          "type": "uint256"
        },
        {
          "internalType": "uint256",
          "name": "edad",
          "type": "uint256"
        },
        {
          "internalType": "string",
          "name": "categoria_ingreso",
          "type": "string"
        },
        {
          "internalType": "string",
          "name": "categoria_actual",
          "type": "string"
        },
        {
          "internalType": "string",
          "name": "estatus",
          "type": "string"
        },
        {
          "internalType": "uint256",
          "name": "fecha_retiro",
          "type": "uint256"
        },
        {
          "internalType": "string",
          "name": "causa_mortalidad",
          "type": "string"
        }
      ],
      "stateMutability": "view",
      "type": "function",
      "constant": true
    },
    {
      "inputs": [],
      "name": "siguienteAnimalId",
      "outputs": [
        {
          "internalType": "uint256",
          "name": "",
          "type": "uint256"
        }
      ],
      "stateMutability": "view",
      "type": "function",
      "constant": true
    },
    {
      "inputs": [
        {
          "internalType": "string",
          "name": "_id_hembra",
          "type": "string"
        },
        {
          "internalType": "string",
          "name": "_nombre",
          "type": "string"
        },
        {
          "internalType": "string",
          "name": "_ganadera",
          "type": "string"
        },
        {
          "internalType": "uint256",
          "name": "_fecha_nacimiento",
          "type": "uint256"
        },
        {
          "internalType": "uint256",
          "name": "_edad",
          "type": "uint256"
        },
        {
          "internalType": "string",
          "name": "_categoria_ingreso",
          "type": "string"
        },
        {
          "internalType": "string",
          "name": "_categoria_actual",
          "type": "string"
        },
        {
          "internalType": "string",
          "name": "_estatus",
          "type": "string"
        }
      ],
      "name": "registrarAnimal",
      "outputs": [],
      "stateMutability": "nonpayable",
      "type": "function"
    }
  ],
  "bytecode": "0x6080806040523461001a5760018055610dca90816100208239f35b600080fdfe6080604052600436101561001257600080fd5b60003560e01c8063ac6131b614610ac7578063b144209c146100605763f65893d21461003d57600080fd5b3461005b57600036600319011261005b576020600154604051908152f35b600080fd5b3461005b5761010036600319011261005b576004356001600160401b03811161005b57610091903690600401610d3e565b6024356001600160401b03811161005b576100b0903690600401610d3e565b6044356001600160401b03811161005b576100cf903690600401610d3e565b60a4356001600160401b03811161005b576100ee903690600401610d3e565b60c4356001600160401b03811161005b5761010d903690600401610d3e565b60e4356001600160401b03811161005b5761012c903690600401610d3e565b91600154936000198514610ab157600185016001556040519661018088018881106001600160401b038211176105c5576040528588526020880152856040880152606087015242608087015260643560a087015260843560c087015260e086015261010085015261012084015260006101408401526040518060208101106001600160401b036020830111176105c55760208101604052600081526101608401528060005260006020526040600020928051845560208101518051906001600160401b0382116105c55781906102056001880154610bfd565b601f8111610a5e575b50602090601f83116001146109ec576000926109e1575b50508160011b916000199060031b1c19161760018501555b60408101518051906001600160401b0382116105c55781906102626002880154610bfd565b601f811161098e575b50602090601f831160011461091c57600092610911575b50508160011b916000199060031b1c19161760028501555b60608101518051906001600160401b0382116105c55781906102bf6003880154610bfd565b601f81116108be575b50602090601f831160011461084c57600092610841575b50508160011b916000199060031b1c19161760038501555b6080810151600485015560a0810151600585015560c0810151600685015560e08101518051906001600160401b0382116105c557819061033a6007880154610bfd565b601f81116107ee575b50602090601f831160011461077c57600092610771575b50508160011b916000199060031b1c19161760078501555b6101008101518051906001600160401b0382116105c55781906103986008880154610bfd565b601f811161071e575b50602090601f83116001146106ac576000926106a1575b50508160011b916000199060031b1c19161760088501555b6101208101518051906001600160401b0382116105c5576103f46009870154610bfd565b601f811161065a575b50602090601f83116001146105e657610160939291600091836105db575b50508160011b916000199060031b1c19161760098601555b610140810151600a86015501519283516001600160401b0381116105c55761045e600b830154610bfd565b601f811161057a575b506020601f82116001146104ec579080600b927f97f51692f330a8954cf8aea3758c2fa607ed820508e1fe59775da6290b02a0b1976000926104e1575b50508160011b916000199060031b1c1916179101555b6104d66040519283928352606060208401526060830190610cfe565b4260408301520390a1005b0151905087806104a4565b601f19821695600b840160005260206000209660005b8181106105625750966001928492600b957f97f51692f330a8954cf8aea3758c2fa607ed820508e1fe59775da6290b02a0b19a10610549575b505050811b019101556104ba565b015160001960f88460031b161c1916905587808061053b565b83830151895560019098019760209384019301610502565b600b83016000526020600020601f830160051c810191602084106105bb575b601f0160051c01905b8181106105af5750610467565b600081556001016105a2565b9091508190610599565b634e487b7160e01b600052604160045260246000fd5b01519050878061041b565b906009870160005260206000209160005b601f198516811061064257509183916001936101609695601f19811610610629575b505050811b016009860155610433565b015160001960f88460031b161c19169055878080610619565b919260206001819286850151815501940192016105f7565b600987016000526020600020601f840160051c81016020851061069a575b601f830160051c8201811061068e5750506103fd565b60008155600101610678565b5080610678565b0151905086806103b8565b9250600887016000526020600020906000935b601f1984168510610703576001945083601f198116106106ea575b505050811b0160088501556103d0565b015160001960f88460031b161c191690558680806106da565b818101518355602094850194600190930192909101906106bf565b909150600887016000526020600020601f840160051c81016020851061076a575b90849392915b601f830160051c8201811061075b5750506103a1565b60008155859450600101610745565b508061073f565b01519050868061035a565b9250600787016000526020600020906000935b601f19841685106107d3576001945083601f198116106107ba575b505050811b016007850155610372565b015160001960f88460031b161c191690558680806107aa565b8181015183556020948501946001909301929091019061078f565b909150600787016000526020600020601f840160051c81016020851061083a575b90849392915b601f830160051c8201811061082b575050610343565b60008155859450600101610815565b508061080f565b0151905086806102df565b9250600387016000526020600020906000935b601f19841685106108a3576001945083601f1981161061088a575b505050811b0160038501556102f7565b015160001960f88460031b161c1916905586808061087a565b8181015183556020948501946001909301929091019061085f565b909150600387016000526020600020601f840160051c81016020851061090a575b90849392915b601f830160051c820181106108fb5750506102c8565b600081558594506001016108e5565b50806108df565b015190508680610282565b9250600287016000526020600020906000935b601f1984168510610973576001945083601f1981161061095a575b505050811b01600285015561029a565b015160001960f88460031b161c1916905586808061094a565b8181015183556020948501946001909301929091019061092f565b909150600287016000526020600020601f840160051c8101602085106109da575b90849392915b601f830160051c820181106109cb57505061026b565b600081558594506001016109b5565b50806109af565b015190508680610225565b9250600187016000526020600020906000935b601f1984168510610a43576001945083601f19811610610a2a575b505050811b01600185015561023d565b015160001960f88460031b161c19169055868080610a1a565b818101518355602094850194600190930192909101906109ff565b909150600187016000526020600020601f840160051c810160208510610aaa575b90849392915b601f830160051c82018110610a9b57505061020e565b60008155859450600101610a85565b5080610a7f565b634e487b7160e01b600052601160045260246000fd5b3461005b57602036600319011261005b5760043560005260006020526040600020805460018201610af790610c58565b91610b0460028201610c58565b90610b1160038201610c58565b6004820154600583015460068401549091610b2e60078601610c58565b91610b3b60088701610c58565b93610b4860098801610c58565b95600a88015497600b01610b5b90610c58565b986040519b8c9b8c528b6101806020819201528c01610b7991610cfe565b8b810360408d0152610b8a91610cfe565b8a810360608c0152610b9b91610cfe565b9260808a015260a089015260c088015286810360e0880152610bbc91610cfe565b858103610100870152610bce91610cfe565b848103610120860152610be091610cfe565b90610140840152828103610160840152610bf991610cfe565b0390f35b90600182811c92168015610c2d575b6020831014610c1757565b634e487b7160e01b600052602260045260246000fd5b91607f1691610c0c565b90601f801991011681019081106001600160401b038211176105c557604052565b9060405191826000825492610c6c84610bfd565b908184526001948581169081600014610cdb5750600114610c98575b5050610c9692500383610c37565b565b9093915060005260209081600020936000915b818310610cc3575050610c9693508201013880610c88565b85548884018501529485019487945091830191610cab565b915050610c9694506020925060ff191682840152151560051b8201013880610c88565b919082519283825260005b848110610d2a575050826000602080949584010152601f8019910116010190565b602081830181015184830182015201610d09565b81601f8201121561005b578035906001600160401b0382116105c55760405192610d72601f8401601f191660200185610c37565b8284526020838301011161005b5781600092602080930183860137830101529056fea264697066735822122059fb3af339895e6bdf7edee17e087fb730e2b5ea2186492b243e2f7313927b0764736f6c63430008120033",
  "immutableReferences": {},
  "source": "// SPDX-License-Identifier: MIT\r\npragma solidity ^0.8.0;\r\n\r\ncontract AnimalContract {\r\n    struct Animal {\r\n        uint id;\r\n        string id_hembra;\r\n        string nombre;\r\n        string ganadera;\r\n        uint fecha_ingreso;\r\n        uint fecha_nacimiento;\r\n        uint edad;\r\n        string categoria_ingreso;\r\n        string categoria_actual;\r\n        string estatus;\r\n        uint fecha_retiro;\r\n        string causa_mortalidad;\r\n    }\r\n\r\n    mapping(uint => Animal) public animales;\r\n    uint public siguienteAnimalId = 1;\r\n\r\n    event AnimalRegistrado(uint id, string nombre, uint fecha_ingreso);\r\n\r\n    function registrarAnimal(\r\n        string memory _id_hembra,\r\n        string memory _nombre,\r\n        string memory _ganadera,\r\n        uint _fecha_nacimiento,\r\n        uint _edad,\r\n        string memory _categoria_ingreso,\r\n        string memory _categoria_actual,\r\n        string memory _estatus\r\n    ) public {\r\n        uint id = siguienteAnimalId++;\r\n        animales[id] = Animal(\r\n            id, _id_hembra, _nombre, _ganadera, block.timestamp, _fecha_nacimiento,\r\n            _edad, _categoria_ingreso, _categoria_actual, _estatus, 0, \"\"\r\n        );\r\n\r\n        emit AnimalRegistrado(id, _nombre, block.timestamp);\r\n    }\r\n}\r\n",
  "sourcePath": "C:\\Users\\Raul\\Documents\\GitHub\\Chainventory\\Chainventory\\truffle\\contracts\\AnimalContract.sol",
  "compiler": {
    "name": "solc",
    "version": "0.8.18+commit.87f61d96.Emscripten.clang"
  },
  "schemaVersion": "3.4.16",
  "updatedAt": "2025-02-24T19:27:29.065Z",
  "networkType": "ethereum",
  "devdoc": {
    "kind": "dev",
    "methods": {},
    "version": 1
  },
  "userdoc": {
    "kind": "user",
    "methods": {},
    "version": 1
  }
}