{
  "contractName": "GanaderiaInventario",
  "abi": [
    {
      "inputs": [
        {
          "internalType": "address",
          "name": "_productoContract",
          "type": "address"
        },
        {
          "internalType": "address",
          "name": "_ventaContract",
          "type": "address"
        },
        {
          "internalType": "address",
          "name": "_animalContract",
          "type": "address"
        },
        {
          "internalType": "address",
          "name": "_vacunaContract",
          "type": "address"
        },
        {
          "internalType": "address",
          "name": "_usuarioContract",
          "type": "address"
        }
      ],
      "stateMutability": "nonpayable",
      "type": "constructor"
    },
    {
      "inputs": [],
      "name": "animalContract",
      "outputs": [
        {
          "internalType": "contract AnimalContract",
          "name": "",
          "type": "address"
        }
      ],
      "stateMutability": "view",
      "type": "function",
      "constant": true
    },
    {
      "inputs": [],
      "name": "productoContract",
      "outputs": [
        {
          "internalType": "contract ProductoContract",
          "name": "",
          "type": "address"
        }
      ],
      "stateMutability": "view",
      "type": "function",
      "constant": true
    },
    {
      "inputs": [],
      "name": "usuarioContract",
      "outputs": [
        {
          "internalType": "contract UsuarioContract",
          "name": "",
          "type": "address"
        }
      ],
      "stateMutability": "view",
      "type": "function",
      "constant": true
    },
    {
      "inputs": [],
      "name": "vacunaContract",
      "outputs": [
        {
          "internalType": "contract VacunaContract",
          "name": "",
          "type": "address"
        }
      ],
      "stateMutability": "view",
      "type": "function",
      "constant": true
    },
    {
      "inputs": [],
      "name": "ventaContract",
      "outputs": [
        {
          "internalType": "contract VentaContract",
          "name": "",
          "type": "address"
        }
      ],
      "stateMutability": "view",
      "type": "function",
      "constant": true
    }
  ],
  "bytecode": "0x6080346100d257601f61025e38819003918201601f19168301916001600160401b038311848410176100d75780849260a0946040528339810103126100d257610047816100ed565b90610054602082016100ed565b90610061604082016100ed565b9161007a6080610073606085016100ed565b93016100ed565b9160018060a01b0380948180948160018060a01b031999168960005416176000551687600154161760015516856002541617600255168360035416176003551690600454161760045560405161015c90816101028239f35b600080fd5b634e487b7160e01b600052604160045260246000fd5b51906001600160a01b03821682036100d25756fe608080604052600436101561001357600080fd5b600090813560e01c9081634c9c64b0146100fe575080639362560a146100d5578063c56a77d6146100ac578063e0b9cbd3146100835763f9bd4b971461005857600080fd5b346100805780600319360112610080576004546040516001600160a01b039091168152602090f35b80fd5b50346100805780600319360112610080576001546040516001600160a01b039091168152602090f35b50346100805780600319360112610080576002546040516001600160a01b039091168152602090f35b50346100805780600319360112610080576003546040516001600160a01b039091168152602090f35b90503461012257816003193601126101225790546001600160a01b03168152602090f35b5080fdfea2646970667358221220a88f2c7718add97be2a9b63fc8969e7fc43768eac321ce50a41cfc38742a382864736f6c63430008120033",
  "immutableReferences": {},
  "source": "// SPDX-License-Identifier: MIT\r\npragma solidity ^0.8.0;\r\n\r\nimport \"./ProductoContract.sol\";\r\nimport \"./VentaContract.sol\";\r\nimport \"./AnimalContract.sol\";\r\nimport \"./VacunaContract.sol\";\r\nimport \"./UsuarioContract.sol\";\r\n\r\ncontract GanaderiaInventario {\r\n    ProductoContract public productoContract;\r\n    VentaContract public ventaContract;\r\n    AnimalContract public animalContract;\r\n    VacunaContract public vacunaContract;\r\n    UsuarioContract public usuarioContract;\r\n\r\n    constructor(\r\n        address _productoContract,\r\n        address _ventaContract,\r\n        address _animalContract,\r\n        address _vacunaContract,\r\n        address _usuarioContract\r\n    ) {\r\n        productoContract = ProductoContract(_productoContract);\r\n        ventaContract = VentaContract(_ventaContract);\r\n        animalContract = AnimalContract(_animalContract);\r\n        vacunaContract = VacunaContract(_vacunaContract);\r\n        usuarioContract = UsuarioContract(_usuarioContract);\r\n    }\r\n}\r\n",
  "sourcePath": "C:\\Users\\Raul\\Projects - Development (Code)\\Chainventory\\Chainventory\\truffle\\contracts\\GanaderiaInventario.sol",
  "compiler": {
    "name": "solc",
    "version": "0.8.18+commit.87f61d96.Emscripten.clang"
  },
  "schemaVersion": "3.4.16",
  "updatedAt": "2025-05-23T12:40:17.315Z",
  "networkType": "ethereum",
  "devdoc": {
    "kind": "dev",
    "methods": {},
    "version": 1
  },
  "userdoc": {
    "kind": "user",
    "methods": {},
    "version": 1
  }
}