{
  "contractName": "Inventario",
  "abi": [
    {
      "inputs": [],
      "stateMutability": "nonpayable",
      "type": "constructor"
    },
    {
      "anonymous": false,
      "inputs": [
        {
          "indexed": false,
          "internalType": "uint256",
          "name": "id",
          "type": "uint256"
        },
        {
          "indexed": false,
          "internalType": "uint256",
          "name": "cantidad",
          "type": "uint256"
        },
        {
          "indexed": false,
          "internalType": "uint256",
          "name": "fechaRegistro",
          "type": "uint256"
        }
      ],
      "name": "EntradaProducto",
      "type": "event"
    },
    {
      "anonymous": false,
      "inputs": [
        {
          "indexed": false,
          "internalType": "uint256",
          "name": "id",
          "type": "uint256"
        },
        {
          "indexed": false,
          "internalType": "string",
          "name": "nombre",
          "type": "string"
        },
        {
          "indexed": false,
          "internalType": "uint256",
          "name": "cantidad",
          "type": "uint256"
        },
        {
          "indexed": false,
          "internalType": "uint256",
          "name": "fechaRegistro",
          "type": "uint256"
        }
      ],
      "name": "ProductoRegistrado",
      "type": "event"
    },
    {
      "anonymous": false,
      "inputs": [
        {
          "indexed": false,
          "internalType": "uint256",
          "name": "id",
          "type": "uint256"
        },
        {
          "indexed": false,
          "internalType": "uint256",
          "name": "cantidad",
          "type": "uint256"
        },
        {
          "indexed": false,
          "internalType": "uint256",
          "name": "fechaSalida",
          "type": "uint256"
        }
      ],
      "name": "SalidaProducto",
      "type": "event"
    },
    {
      "inputs": [
        {
          "internalType": "address",
          "name": "",
          "type": "address"
        }
      ],
      "name": "administradores",
      "outputs": [
        {
          "internalType": "bool",
          "name": "",
          "type": "bool"
        }
      ],
      "stateMutability": "view",
      "type": "function",
      "constant": true
    },
    {
      "inputs": [
        {
          "internalType": "uint256",
          "name": "",
          "type": "uint256"
        }
      ],
      "name": "inventario",
      "outputs": [
        {
          "internalType": "uint256",
          "name": "id",
          "type": "uint256"
        },
        {
          "internalType": "string",
          "name": "nombre",
          "type": "string"
        },
        {
          "internalType": "uint256",
          "name": "cantidad",
          "type": "uint256"
        },
        {
          "internalType": "uint256",
          "name": "fechaRegistro",
          "type": "uint256"
        }
      ],
      "stateMutability": "view",
      "type": "function",
      "constant": true
    },
    {
      "inputs": [],
      "name": "siguienteId",
      "outputs": [
        {
          "internalType": "uint256",
          "name": "",
          "type": "uint256"
        }
      ],
      "stateMutability": "view",
      "type": "function",
      "constant": true
    },
    {
      "inputs": [
        {
          "internalType": "string",
          "name": "nombre",
          "type": "string"
        },
        {
          "internalType": "uint256",
          "name": "cantidad",
          "type": "uint256"
        }
      ],
      "name": "registrarProducto",
      "outputs": [],
      "stateMutability": "nonpayable",
      "type": "function"
    },
    {
      "inputs": [
        {
          "internalType": "uint256",
          "name": "id",
          "type": "uint256"
        },
        {
          "internalType": "uint256",
          "name": "cantidad",
          "type": "uint256"
        }
      ],
      "name": "entradaProducto",
      "outputs": [],
      "stateMutability": "nonpayable",
      "type": "function"
    },
    {
      "inputs": [
        {
          "internalType": "uint256",
          "name": "id",
          "type": "uint256"
        },
        {
          "internalType": "uint256",
          "name": "cantidad",
          "type": "uint256"
        }
      ],
      "name": "salidaProducto",
      "outputs": [],
      "stateMutability": "nonpayable",
      "type": "function"
    },
    {
      "inputs": [
        {
          "internalType": "uint256",
          "name": "id",
          "type": "uint256"
        }
      ],
      "name": "obtenerProducto",
      "outputs": [
        {
          "components": [
            {
              "internalType": "uint256",
              "name": "id",
              "type": "uint256"
            },
            {
              "internalType": "string",
              "name": "nombre",
              "type": "string"
            },
            {
              "internalType": "uint256",
              "name": "cantidad",
              "type": "uint256"
            },
            {
              "internalType": "uint256",
              "name": "fechaRegistro",
              "type": "uint256"
            }
          ],
          "internalType": "struct Inventario.Producto",
          "name": "",
          "type": "tuple"
        }
      ],
      "stateMutability": "view",
      "type": "function",
      "constant": true
    },
    {
      "inputs": [
        {
          "internalType": "address",
          "name": "nuevoAdministrador",
          "type": "address"
        }
      ],
      "name": "agregarAdministrador",
      "outputs": [],
      "stateMutability": "nonpayable",
      "type": "function"
    },
    {
      "inputs": [
        {
          "internalType": "address",
          "name": "administrador",
          "type": "address"
        }
      ],
      "name": "eliminarAdministrador",
      "outputs": [],
      "stateMutability": "nonpayable",
      "type": "function"
    }
  ],
  "bytecode": "0x6080604052600160025534801561001557600080fd5b50336000908152600160208190526040909120805460ff19169091179055610b39806100426000396000f3fe608060405234801561001057600080fd5b50600436106100935760003560e01c8063bfcf179311610066578063bfcf1793146100ff578063d449dc5414610112578063e132a07614610145578063e22f03e114610165578063fddf49151461017c57600080fd5b80634c63671f1461009857806350af869d146100ad5780635ee74d04146100d95780636f368243146100ec575b600080fd5b6100ab6100a6366004610703565b61018f565b005b6100c06100bb366004610725565b6102c9565b6040516100d09493929190610784565b60405180910390f35b6100ab6100e73660046107b0565b61037a565b6100ab6100fa3660046107b0565b6103d0565b6100ab61010d3660046107f6565b61042c565b6101356101203660046107b0565b60016020526000908152604090205460ff1681565b60405190151581526020016100d0565b610158610153366004610725565b610516565b6040516100d091906108ab565b61016e60025481565b6040519081526020016100d0565b6100ab61018a366004610703565b61063c565b3360009081526001602081905260409091205460ff161515146101cd5760405162461bcd60e51b81526004016101c4906108f1565b60405180910390fd5b60008281526020819052604081205490036101fa5760405162461bcd60e51b81526004016101c490610928565b60008281526020819052604090206002015481111561025b5760405162461bcd60e51b815260206004820152601b60248201527f4e6f2068617920737566696369656e74652063616e74696461642e000000000060448201526064016101c4565b6000828152602081905260408120600201805483929061027c908490610975565b9091555050604080518381526020810183905242918101919091527f6c917075905032808028a099efdbf183e1cebd640ed1d9b1226304096411a852906060015b60405180910390a15050565b600060208190529081526040902080546001820180549192916102eb9061098e565b80601f01602080910402602001604051908101604052809291908181526020018280546103179061098e565b80156103645780601f1061033957610100808354040283529160200191610364565b820191906000526020600020905b81548152906001019060200180831161034757829003601f168201915b5050505050908060020154908060030154905084565b3360009081526001602081905260409091205460ff161515146103af5760405162461bcd60e51b81526004016101c4906108f1565b6001600160a01b03166000908152600160205260409020805460ff19169055565b3360009081526001602081905260409091205460ff161515146104055760405162461bcd60e51b81526004016101c4906108f1565b6001600160a01b03166000908152600160208190526040909120805460ff19169091179055565b3360009081526001602081905260409091205460ff161515146104615760405162461bcd60e51b81526004016101c4906108f1565b6002805460009182610472836109c8565b909155506040805160808101825282815260208082018781528284018790524260608401526000858152918290529290208151815591519293509160018201906104bc9082610a30565b5060408201518160020155606082015181600301559050507fe2132a4b85421cdf93625a194e3590679e14d481f80f271035d62dc61d2e541e818484426040516105099493929190610784565b60405180910390a1505050565b6105416040518060800160405280600081526020016060815260200160008152602001600081525090565b600082815260208190526040812054900361056e5760405162461bcd60e51b81526004016101c490610928565b6000828152602081815260409182902082516080810190935280548352600181018054919284019161059f9061098e565b80601f01602080910402602001604051908101604052809291908181526020018280546105cb9061098e565b80156106185780601f106105ed57610100808354040283529160200191610618565b820191906000526020600020905b8154815290600101906020018083116105fb57829003601f168201915b50505050508152602001600282015481526020016003820154815250509050919050565b3360009081526001602081905260409091205460ff161515146106715760405162461bcd60e51b81526004016101c4906108f1565b600082815260208190526040812054900361069e5760405162461bcd60e51b81526004016101c490610928565b600082815260208190526040812060020180548392906106bf908490610af0565b9091555050604080518381526020810183905242918101919091527e698490dd1daf0f802fc55cd986fd7aa89da4120ad843ecad66bbe258dc7e5b906060016102bd565b6000806040838503121561071657600080fd5b50508035926020909101359150565b60006020828403121561073757600080fd5b5035919050565b6000815180845260005b8181101561076457602081850181015186830182015201610748565b506000602082860101526020601f19601f83011685010191505092915050565b84815260806020820152600061079d608083018661073e565b6040830194909452506060015292915050565b6000602082840312156107c257600080fd5b81356001600160a01b03811681146107d957600080fd5b9392505050565b634e487b7160e01b600052604160045260246000fd5b6000806040838503121561080957600080fd5b823567ffffffffffffffff8082111561082157600080fd5b818501915085601f83011261083557600080fd5b813581811115610847576108476107e0565b604051601f8201601f19908116603f0116810190838211818310171561086f5761086f6107e0565b8160405282815288602084870101111561088857600080fd5b826020860160208301376000602093820184015298969091013596505050505050565b602081528151602082015260006020830151608060408401526108d160a084018261073e565b905060408401516060840152606084015160808401528091505092915050565b60208082526019908201527f4e6f206572657320756e2061646d696e6973747261646f722e00000000000000604082015260600190565b60208082526017908201527f50726f647563746f206e6f20656e636f6e747261646f2e000000000000000000604082015260600190565b634e487b7160e01b600052601160045260246000fd5b818103818111156109885761098861095f565b92915050565b600181811c908216806109a257607f821691505b6020821081036109c257634e487b7160e01b600052602260045260246000fd5b50919050565b6000600182016109da576109da61095f565b5060010190565b601f821115610a2b57600081815260208120601f850160051c81016020861015610a085750805b601f850160051c820191505b81811015610a2757828155600101610a14565b5050505b505050565b815167ffffffffffffffff811115610a4a57610a4a6107e0565b610a5e81610a58845461098e565b846109e1565b602080601f831160018114610a935760008415610a7b5750858301515b600019600386901b1c1916600185901b178555610a27565b600085815260208120601f198616915b82811015610ac257888601518255948401946001909101908401610aa3565b5085821015610ae05787850151600019600388901b60f8161c191681555b5050505050600190811b01905550565b808201808211156109885761098861095f56fea26469706673582212207b07074d0c980f907997c49093ae045e7362cd732c166ec983ba76637fa0bc5e64736f6c63430008120033",
  "immutableReferences": {},
  "source": "// SPDX-License-Identifier: MIT\r\npragma solidity ^0.8.0;\r\n\r\ncontract Inventario {\r\n\r\n    // Estructura para representar un producto\r\n    struct Producto {\r\n        uint id;\r\n        string nombre;\r\n        uint cantidad;\r\n        uint fechaRegistro;\r\n    }\r\n\r\n    // Mapping para almacenar productos por ID\r\n    mapping(uint => Producto) public inventario;\r\n    mapping(address => bool) public administradores;\r\n    \r\n    // Eventos para notificar sobre entradas y salidas\r\n    event ProductoRegistrado(uint id, string nombre, uint cantidad, uint fechaRegistro);\r\n    event EntradaProducto(uint id, uint cantidad, uint fechaRegistro);\r\n    event SalidaProducto(uint id, uint cantidad, uint fechaSalida);\r\n    \r\n    // Variable para el prximo ID del producto\r\n    uint public siguienteId = 1;\r\n\r\n    // Modificadores\r\n    modifier soloAdministrador() {\r\n        require(administradores[msg.sender] == true, \"No eres un administrador.\");\r\n        _;\r\n    }\r\n\r\n    constructor() {\r\n        // Inicializamos el primer administrador\r\n        administradores[msg.sender] = true;\r\n    }\r\n\r\n    // Funcin para registrar un nuevo producto\r\n    function registrarProducto(string memory nombre, uint cantidad) public soloAdministrador {\r\n        uint id = siguienteId++;\r\n        inventario[id] = Producto(id, nombre, cantidad, block.timestamp);\r\n        emit ProductoRegistrado(id, nombre, cantidad, block.timestamp);\r\n    }\r\n\r\n    // Funcin para registrar la entrada de un producto\r\n    function entradaProducto(uint id, uint cantidad) public soloAdministrador {\r\n        require(inventario[id].id != 0, \"Producto no encontrado.\");\r\n        inventario[id].cantidad += cantidad;\r\n        emit EntradaProducto(id, cantidad, block.timestamp);\r\n    }\r\n\r\n    // Funcin para registrar la salida de un producto\r\n    function salidaProducto(uint id, uint cantidad) public soloAdministrador {\r\n        require(inventario[id].id != 0, \"Producto no encontrado.\");\r\n        require(inventario[id].cantidad >= cantidad, \"No hay suficiente cantidad.\");\r\n        inventario[id].cantidad -= cantidad;\r\n        emit SalidaProducto(id, cantidad, block.timestamp);\r\n    }\r\n\r\n    // Funcin para consultar un producto por ID\r\n    function obtenerProducto(uint id) public view returns (Producto memory) {\r\n        require(inventario[id].id != 0, \"Producto no encontrado.\");\r\n        return inventario[id];\r\n    }\r\n\r\n    // Funcin para aadir un nuevo administrador\r\n    function agregarAdministrador(address nuevoAdministrador) public soloAdministrador {\r\n        administradores[nuevoAdministrador] = true;\r\n    }\r\n\r\n    // Funcin para eliminar un administrador\r\n    function eliminarAdministrador(address administrador) public soloAdministrador {\r\n        administradores[administrador] = false;\r\n    }\r\n}\r\n",
  "sourcePath": "C:\\Users\\Raul\\Documents\\GitHub\\Chainventory\\Chainventory\\truffle\\contracts\\Inventario.sol",
  "compiler": {
    "name": "solc",
    "version": "0.8.18+commit.87f61d96.Emscripten.clang"
  },
  "schemaVersion": "3.4.16",
  "updatedAt": "2024-11-26T00:54:23.835Z",
  "networkType": "ethereum",
  "devdoc": {
    "kind": "dev",
    "methods": {},
    "version": 1
  },
  "userdoc": {
    "kind": "user",
    "methods": {},
    "version": 1
  }
}