{
  "contractName": "ProductoContract",
  "abi": [
    {
      "anonymous": false,
      "inputs": [
        {
          "indexed": false,
          "internalType": "uint256",
          "name": "id",
          "type": "uint256"
        },
        {
          "indexed": false,
          "internalType": "string",
          "name": "tipo",
          "type": "string"
        },
        {
          "indexed": false,
          "internalType": "uint256",
          "name": "cantidad",
          "type": "uint256"
        }
      ],
      "name": "ProductoActualizado",
      "type": "event"
    },
    {
      "anonymous": false,
      "inputs": [
        {
          "indexed": false,
          "internalType": "uint256",
          "name": "id",
          "type": "uint256"
        }
      ],
      "name": "ProductoEliminado",
      "type": "event"
    },
    {
      "anonymous": false,
      "inputs": [
        {
          "indexed": false,
          "internalType": "uint256",
          "name": "id",
          "type": "uint256"
        },
        {
          "indexed": false,
          "internalType": "string",
          "name": "tipo",
          "type": "string"
        },
        {
          "indexed": false,
          "internalType": "uint256",
          "name": "cantidad",
          "type": "uint256"
        },
        {
          "indexed": false,
          "internalType": "uint256",
          "name": "fecha_ingreso",
          "type": "uint256"
        }
      ],
      "name": "ProductoRegistrado",
      "type": "event"
    },
    {
      "inputs": [
        {
          "internalType": "uint256",
          "name": "",
          "type": "uint256"
        }
      ],
      "name": "productos",
      "outputs": [
        {
          "internalType": "uint256",
          "name": "id",
          "type": "uint256"
        },
        {
          "internalType": "string",
          "name": "tipo",
          "type": "string"
        },
        {
          "internalType": "string",
          "name": "descripcion",
          "type": "string"
        },
        {
          "internalType": "string",
          "name": "especie",
          "type": "string"
        },
        {
          "internalType": "uint256",
          "name": "edad",
          "type": "uint256"
        },
        {
          "internalType": "string",
          "name": "raza",
          "type": "string"
        },
        {
          "internalType": "uint256",
          "name": "cantidad",
          "type": "uint256"
        },
        {
          "internalType": "string",
          "name": "movimiento",
          "type": "string"
        },
        {
          "internalType": "string",
          "name": "guia_animal",
          "type": "string"
        },
        {
          "internalType": "string",
          "name": "autorizacion_senasac",
          "type": "string"
        },
        {
          "internalType": "string",
          "name": "destino",
          "type": "string"
        },
        {
          "internalType": "uint256",
          "name": "saldo_actual",
          "type": "uint256"
        },
        {
          "internalType": "string",
          "name": "observaciones",
          "type": "string"
        },
        {
          "internalType": "uint256",
          "name": "id_animal",
          "type": "uint256"
        },
        {
          "internalType": "uint256",
          "name": "fecha_ingreso",
          "type": "uint256"
        },
        {
          "internalType": "bool",
          "name": "activo",
          "type": "bool"
        }
      ],
      "stateMutability": "view",
      "type": "function",
      "constant": true
    },
    {
      "inputs": [],
      "name": "siguienteProductoId",
      "outputs": [
        {
          "internalType": "uint256",
          "name": "",
          "type": "uint256"
        }
      ],
      "stateMutability": "view",
      "type": "function",
      "constant": true
    },
    {
      "inputs": [
        {
          "internalType": "string",
          "name": "_tipo",
          "type": "string"
        },
        {
          "internalType": "string",
          "name": "_descripcion",
          "type": "string"
        },
        {
          "internalType": "string",
          "name": "_especie",
          "type": "string"
        },
        {
          "internalType": "uint256",
          "name": "_edad",
          "type": "uint256"
        },
        {
          "internalType": "string",
          "name": "_raza",
          "type": "string"
        },
        {
          "internalType": "uint256",
          "name": "_cantidad",
          "type": "uint256"
        },
        {
          "internalType": "string",
          "name": "_movimiento",
          "type": "string"
        },
        {
          "internalType": "string",
          "name": "_guia_animal",
          "type": "string"
        },
        {
          "internalType": "string",
          "name": "_autorizacion_senasac",
          "type": "string"
        },
        {
          "internalType": "string",
          "name": "_destino",
          "type": "string"
        },
        {
          "internalType": "uint256",
          "name": "_saldo_actual",
          "type": "uint256"
        },
        {
          "internalType": "string",
          "name": "_observaciones",
          "type": "string"
        },
        {
          "internalType": "uint256",
          "name": "_id_animal",
          "type": "uint256"
        }
      ],
      "name": "registrarProducto",
      "outputs": [],
      "stateMutability": "nonpayable",
      "type": "function"
    },
    {
      "inputs": [
        {
          "internalType": "uint256",
          "name": "_id",
          "type": "uint256"
        },
        {
          "internalType": "string",
          "name": "_tipo",
          "type": "string"
        },
        {
          "internalType": "string",
          "name": "_descripcion",
          "type": "string"
        },
        {
          "internalType": "string",
          "name": "_especie",
          "type": "string"
        },
        {
          "internalType": "uint256",
          "name": "_edad",
          "type": "uint256"
        },
        {
          "internalType": "string",
          "name": "_raza",
          "type": "string"
        }
      ],
      "name": "actualizarProductoInfo",
      "outputs": [],
      "stateMutability": "nonpayable",
      "type": "function"
    },
    {
      "inputs": [
        {
          "internalType": "uint256",
          "name": "_id",
          "type": "uint256"
        },
        {
          "internalType": "uint256",
          "name": "_cantidad",
          "type": "uint256"
        },
        {
          "internalType": "string",
          "name": "_movimiento",
          "type": "string"
        },
        {
          "internalType": "string",
          "name": "_guia_animal",
          "type": "string"
        },
        {
          "internalType": "string",
          "name": "_autorizacion_senasac",
          "type": "string"
        },
        {
          "internalType": "string",
          "name": "_destino",
          "type": "string"
        },
        {
          "internalType": "uint256",
          "name": "_saldo_actual",
          "type": "uint256"
        },
        {
          "internalType": "string",
          "name": "_observaciones",
          "type": "string"
        }
      ],
      "name": "actualizarProductoInventario",
      "outputs": [],
      "stateMutability": "nonpayable",
      "type": "function"
    },
    {
      "inputs": [
        {
          "internalType": "uint256",
          "name": "_id",
          "type": "uint256"
        }
      ],
      "name": "eliminarProducto",
      "outputs": [],
      "stateMutability": "nonpayable",
      "type": "function"
    },
    {
      "inputs": [
        {
          "internalType": "uint256",
          "name": "_id",
          "type": "uint256"
        }
      ],
      "name": "obtenerProducto",
      "outputs": [
        {
          "internalType": "uint256",
          "name": "",
          "type": "uint256"
        },
        {
          "internalType": "string",
          "name": "",
          "type": "string"
        },
        {
          "internalType": "string",
          "name": "",
          "type": "string"
        },
        {
          "internalType": "string",
          "name": "",
          "type": "string"
        },
        {
          "internalType": "uint256",
          "name": "",
          "type": "uint256"
        },
        {
          "internalType": "string",
          "name": "",
          "type": "string"
        },
        {
          "internalType": "uint256",
          "name": "",
          "type": "uint256"
        },
        {
          "internalType": "bool",
          "name": "",
          "type": "bool"
        }
      ],
      "stateMutability": "view",
      "type": "function",
      "constant": true
    },
    {
      "inputs": [],
      "name": "listarProductos",
      "outputs": [
        {
          "components": [
            {
              "internalType": "uint256",
              "name": "id",
              "type": "uint256"
            },
            {
              "internalType": "string",
              "name": "tipo",
              "type": "string"
            },
            {
              "internalType": "string",
              "name": "descripcion",
              "type": "string"
            },
            {
              "internalType": "string",
              "name": "especie",
              "type": "string"
            },
            {
              "internalType": "uint256",
              "name": "edad",
              "type": "uint256"
            },
            {
              "internalType": "string",
              "name": "raza",
              "type": "string"
            },
            {
              "internalType": "uint256",
              "name": "cantidad",
              "type": "uint256"
            },
            {
              "internalType": "string",
              "name": "movimiento",
              "type": "string"
            },
            {
              "internalType": "string",
              "name": "guia_animal",
              "type": "string"
            },
            {
              "internalType": "string",
              "name": "autorizacion_senasac",
              "type": "string"
            },
            {
              "internalType": "string",
              "name": "destino",
              "type": "string"
            },
            {
              "internalType": "uint256",
              "name": "saldo_actual",
              "type": "uint256"
            },
            {
              "internalType": "string",
              "name": "observaciones",
              "type": "string"
            },
            {
              "internalType": "uint256",
              "name": "id_animal",
              "type": "uint256"
            },
            {
              "internalType": "uint256",
              "name": "fecha_ingreso",
              "type": "uint256"
            },
            {
              "internalType": "bool",
              "name": "activo",
              "type": "bool"
            }
          ],
          "internalType": "struct ProductoContract.Producto[]",
          "name": "",
          "type": "tuple[]"
        }
      ],
      "stateMutability": "view",
      "type": "function",
      "constant": true
    }
  ],
  "bytecode": "0x6080806040523461001a57600180556125d690816100208239f35b600080fdfe60a0604052600436101561001257600080fd5b60003560e01c80631bed2e7714611dc95780633fb051b5146119c95780633fe14464146112ea57806385dd1c42146112355780639955363614610fe6578063aad1f2dc14610fc8578063c112f39e146102995763e132a0761461007457600080fd5b34610294576020366003190112610294576004358060005260006020526100a560ff600f60406000200154166124e1565b6000526000602052602060406000206040516100c08161232f565b8154815280610285604051936100e4856100dd816001850161243c565b038661234b565b85830194855260405190610106826100ff816002850161243c565b038361234b565b6040840191825261027260405161012b81610124816003870161243c565b038261234b565b6060860190815261026460048401549160808801928352610256604051966101618861015a8160058b0161243c565b038961234b565b60a08a0197885260ff600f60068901549860c08d01998a528c60e06040519161019883610191816007880161243c565b038461234b565b01526040516101ae81610124816008860161243c565b6101009e8f01526040516101208e6101cd83610191816009880161243c565b01526040516101408e6101e78361019181600a880161243c565b0152600b8101546101608e01526040516101808e61020c8361019181600c880161243c565b01528c6101a0600d8301549101528c6101c0600e8301549101520154161515998a6101e0820152519b51905192519451975196519a806040519e8f9e8f90815201528c01906123c2565b908a820360408c01526123c2565b9088820360608a01526123c2565b91608087015285820360a08701526123c2565b9160c084015260e08301520390f35b600080fd5b34610294576101a0366003190112610294576004356001600160401b038111610294576102ca90369060040161236c565b6024356001600160401b038111610294576102e990369060040161236c565b906044356001600160401b0381116102945761030990369060040161236c565b6084356001600160401b0381116102945761032890369060040161236c565b60c4356001600160401b0381116102945761034790369060040161236c565b60e4356001600160401b0381116102945761036690369060040161236c565b610104356001600160401b0381116102945761038690369060040161236c565b90610124356001600160401b038111610294576103a790369060040161236c565b92610164356001600160401b038111610294576103c890369060040161236c565b94600154966103d6886124d2565b600155604051996103e68b61232f565b888b528960208c015260408b015260608a015260643560808a015260a089015260a43560c089015260e088015261010087015261012086015261014085015261014435610160850152610180840152610184356101a0840152426101c084015260016101e08401528060005260006020526040600020928051845560208101518051906001600160401b0382116109325781906104866001880154612402565b601f8111610f75575b50602090601f8311600114610f0357600092610ef8575b50508160011b916000199060031b1c19161760018501555b60408101518051906001600160401b0382116109325781906104e36002880154612402565b601f8111610ea5575b50602090601f8311600114610e3357600092610e28575b50508160011b916000199060031b1c19161760028501555b60608101518051906001600160401b0382116109325781906105406003880154612402565b601f8111610dd5575b50602090601f8311600114610d6357600092610d58575b50508160011b916000199060031b1c19161760038501555b6080810151600485015560a08101518051906001600160401b0382116109325781906105a76005880154612402565b601f8111610d05575b50602090601f8311600114610c9357600092610c88575b50508160011b916000199060031b1c19161760058501555b60c0810151600685015560e08101518051906001600160401b03821161093257819061060e6007880154612402565b601f8111610c35575b50602090601f8311600114610bc357600092610bb8575b50508160011b916000199060031b1c19161760078501555b6101008101518051906001600160401b03821161093257819061066c6008880154612402565b601f8111610b65575b50602090601f8311600114610af357600092610ae8575b50508160011b916000199060031b1c19161760088501555b6101208101518051906001600160401b0382116109325781906106ca6009880154612402565b601f8111610a95575b50602090601f8311600114610a2357600092610a18575b50508160011b916000199060031b1c19161760098501555b6101408101518051906001600160401b038211610932578190610728600a880154612402565b601f81116109c5575b50602090601f831160011461095357600092610948575b50508160011b916000199060031b1c191617600a8501555b610160810151600b8501556101808101518051906001600160401b0382116109325761078f600c870154612402565b601f81116108eb575b50602090601f83116001146108545795826101e093600f937fe2132a4b85421cdf93625a194e3590679e14d481f80f271035d62dc61d2e541e99600092610849575b50508160011b916000199060031b1c191617600c8201555b6101a0840151600d8201556101c0840151600e82015501910151151560ff8019835416911617905561083660405192839283526080602084015260808301906123c2565b60a43560408301524260608301520390a1005b0151905089806107da565b90600c870160005260206000209160005b601f19851681106108d3575083600f937fe2132a4b85421cdf93625a194e3590679e14d481f80f271035d62dc61d2e541e99936001936101e097601f198116106108ba575b505050811b01600c8201556107f2565b015160001960f88460031b161c191690558980806108aa565b91926020600181928685015181550194019201610865565b600c87016000526020600020601f840160051c81016020851061092b575b601f830160051c8201811061091f575050610798565b60008155600101610909565b5080610909565b634e487b7160e01b600052604160045260246000fd5b015190508680610748565b9250600a87016000526020600020906000935b601f19841685106109aa576001945083601f19811610610991575b505050811b01600a850155610760565b015160001960f88460031b161c19169055868080610981565b81810151835560209485019460019093019290910190610966565b909150600a87016000526020600020601f840160051c810160208510610a11575b90849392915b601f830160051c82018110610a02575050610731565b600081558594506001016109ec565b50806109e6565b0151905086806106ea565b9250600987016000526020600020906000935b601f1984168510610a7a576001945083601f19811610610a61575b505050811b016009850155610702565b015160001960f88460031b161c19169055868080610a51565b81810151835560209485019460019093019290910190610a36565b909150600987016000526020600020601f840160051c810160208510610ae1575b90849392915b601f830160051c82018110610ad25750506106d3565b60008155859450600101610abc565b5080610ab6565b01519050868061068c565b9250600887016000526020600020906000935b601f1984168510610b4a576001945083601f19811610610b31575b505050811b0160088501556106a4565b015160001960f88460031b161c19169055868080610b21565b81810151835560209485019460019093019290910190610b06565b909150600887016000526020600020601f840160051c810160208510610bb1575b90849392915b601f830160051c82018110610ba2575050610675565b60008155859450600101610b8c565b5080610b86565b01519050868061062e565b9250600787016000526020600020906000935b601f1984168510610c1a576001945083601f19811610610c01575b505050811b016007850155610646565b015160001960f88460031b161c19169055868080610bf1565b81810151835560209485019460019093019290910190610bd6565b909150600787016000526020600020601f840160051c810160208510610c81575b90849392915b601f830160051c82018110610c72575050610617565b60008155859450600101610c5c565b5080610c56565b0151905086806105c7565b9250600587016000526020600020906000935b601f1984168510610cea576001945083601f19811610610cd1575b505050811b0160058501556105df565b015160001960f88460031b161c19169055868080610cc1565b81810151835560209485019460019093019290910190610ca6565b909150600587016000526020600020601f840160051c810160208510610d51575b90849392915b601f830160051c82018110610d425750506105b0565b60008155859450600101610d2c565b5080610d26565b015190508680610560565b9250600387016000526020600020906000935b601f1984168510610dba576001945083601f19811610610da1575b505050811b016003850155610578565b015160001960f88460031b161c19169055868080610d91565b81810151835560209485019460019093019290910190610d76565b909150600387016000526020600020601f840160051c810160208510610e21575b90849392915b601f830160051c82018110610e12575050610549565b60008155859450600101610dfc565b5080610df6565b015190508680610503565b9250600287016000526020600020906000935b601f1984168510610e8a576001945083601f19811610610e71575b505050811b01600285015561051b565b015160001960f88460031b161c19169055868080610e61565b81810151835560209485019460019093019290910190610e46565b909150600287016000526020600020601f840160051c810160208510610ef1575b90849392915b601f830160051c82018110610ee25750506104ec565b60008155859450600101610ecc565b5080610ec6565b0151905086806104a6565b9250600187016000526020600020906000935b601f1984168510610f5a576001945083601f19811610610f41575b505050811b0160018501556104be565b015160001960f88460031b161c19169055868080610f31565b81810151835560209485019460019093019290910190610f16565b909150600187016000526020600020601f840160051c810160208510610fc1575b90849392915b601f830160051c82018110610fb257505061048f565b60008155859450600101610f9c565b5080610f96565b34610294576000366003190112610294576020600154604051908152f35b3461029457602036600319011261029457600435600052600060205260406000208054604051918280600183019061101d9161243c565b03611028908461234b565b60405181908061103b816002850161243c565b03611046908261234b565b60405180611057816003860161243c565b03611062908261234b565b600483015460405180611078816005880161243c565b03611083908261234b565b6006850154604051908161109a8160078a0161243c565b036110a5908361234b565b60405192836110b78160088b0161243c565b036110c2908561234b565b60405194856110d48160098c0161243c565b036110df908761234b565b60405196876110f181600a8d0161243c565b036110fc908961234b565b600b8a01549860405180600c819d01906111159161243c565b03611120908c61234b565b600d8c01549d600e8d01549c600f015460ff169d6040518060805252610200806080516020015260805101611154916123c2565b6080518082039060400152611168916123c2565b608051808203906060015261117c916123c2565b90608051608001526080518082039060a00152611198916123c2565b9060805160c001526080518082039060e001526111b4916123c2565b6080518082039061010001526111c9916123c2565b6080518082039061012001526111de916123c2565b6080518082039061014001526111f3916123c2565b906080516101600152608051808203906101800152611211916123c2565b926080516101a001526080516101c0015215156080516101e0015260805180910390f35b34610294576020806003193601126102945760043590816000526000815260ff600f6040600020015416156112a757817f53b163bba90bfde48704838a266214bb8924b4d5cb4431916d7524ccd71df3fe9260005260008252600f60406000200160ff198154169055604051908152a1005b6064906040519062461bcd60e51b825280600483015260248201527f456c2070726f647563746f207961206861207369646f20656c696d696e61646f6044820152fd5b3461029457610100366003190112610294576044356001600160401b0381116102945761131b90369060040161236c565b6064356001600160401b0381116102945761133a90369060040161236c565b6084356001600160401b0381116102945761135990369060040161236c565b9160a4356001600160401b0381116102945761137990369060040161236c565b9160e4356001600160401b0381116102945761139990369060040161236c565b9060043560005260006020526113b960ff600f60406000200154166124e1565b600435600052600060205260406000209260243560068501558051906001600160401b0382116109325781906113f26007870154612402565b601f8111611976575b50602090601f8311600114611904576000926118f9575b50508160011b916000199060031b1c19161760078401555b8051906001600160401b03821161093257819061144a6008860154612402565b601f81116118a6575b50602090601f831160011461183457600092611829575b50508160011b916000199060031b1c19161760088301555b83516001600160401b0381116109325761149f6009840154612402565b601f81116117de575b506020601f821160011461176f578192939495600092611764575b50508160011b916000199060031b1c19161760098301555b82516001600160401b038111610932576114f8600a840154612402565b601f8111611719575b506020601f82116001146116ad57819293946000926116a2575b50508160011b916000199060031b1c191617600a8301555b60c435600b8301558051600c8301916001600160401b0382116109325761155a8354612402565b601f811161165a575b50602090601f83116001146115de5791806115c6949260008051602061258183398151915296946000926115d3575b50508160011b916000199060031b1c19161790555b604051918291600435835260606020840152600160608401910161243c565b60243560408301520390a1005b015190508680611592565b90601f198316918460005260206000209260005b818110611642575092600192859260008051602061258183398151915298966115c6989610611629575b505050811b0190556115a7565b015160001960f88460031b161c1916905586808061161c565b929360206001819287860151815501950193016115f2565b836000526020600020601f840160051c81019160208510611698575b601f0160051c01905b81811061168c5750611563565b6000815560010161167f565b9091508190611676565b01519050848061151b565b601f19821690600a850160005260206000209160005b818110611701575095836001959697106116e8575b505050811b01600a830155611533565b015160001960f88460031b161c191690558480806116d8565b9192602060018192868b0151815501940192016116c3565b600a84016000526020600020601f830160051c8101916020841061175a575b601f0160051c01905b81811061174e5750611501565b60008155600101611741565b9091508190611738565b0151905085806114c3565b6009840160005260206000209060005b601f19841681106117c6575060019394959683601f198116106117ad575b505050811b0160098301556114db565b015160001960f88460031b161c1916905585808061179d565b9091602060018192858b01518155019301910161177f565b600984016000526020600020601f830160051c8101916020841061181f575b601f0160051c01905b81811061181357506114a8565b60008155600101611806565b90915081906117fd565b01519050868061146a565b9250600885016000526020600020906000935b601f198416851061188b576001945083601f19811610611872575b505050811b016008830155611482565b015160001960f88460031b161c19169055868080611862565b81810151835560209485019460019093019290910190611847565b909150600885016000526020600020601f840160051c8101602085106118f2575b90849392915b601f830160051c820181106118e3575050611453565b600081558594506001016118cd565b50806118c7565b015190508780611412565b9250600786016000526020600020906000935b601f198416851061195b576001945083601f19811610611942575b505050811b01600784015561142a565b015160001960f88460031b161c19169055878080611932565b81810151835560209485019460019093019290910190611917565b909150600786016000526020600020601f840160051c8101602085106119c2575b90849392915b601f830160051c820181106119b35750506113fb565b6000815585945060010161199d565b5080611997565b3461029457600036600319011261029457600180546000198101908111611db3576000906119f68161253f565b91611a04604051938461234b565b818352601f19611a138361253f565b0160005b818110611d2c575050835b82811115611b9d578385604051918291602090818401828552835180915260408501928060408360051b8801019501936000905b838210611a635787870388f35b918496819592949698508190603f198b820301855289519081518152611b68611b49611b35611b21611b0d611af1611ad4611ac1611aaf8b8b01518c61020080918d01528b01906123c2565b60408b01518a820360408c01526123c2565b6060808b0151908a8303908b01526123c2565b6080808a01519089015260a0808a015190898303908a01526123c2565b60c0808901519088015260e088015187820360e08901526123c2565b6101008088015190878303908801526123c2565b6101208087015190868303908701526123c2565b6101408086015190858303908601526123c2565b61016080850151908401526101808085015190848303908501526123c2565b916101a080820151908301526101c080820151908301526101e080910151151591015298019201920187969593919492611a56565b80600052602060008152604060002060ff600f820154169081611bcc575b505050611bc7906124d2565b611a22565b91611bc7939491600e611d23946100ff60405194611be98661232f565b82548652611bff8d60405193848092870161243c565b850152604051611c1681610124816002860161243c565b6040850152604051611c2f81610124816003860161243c565b606085015260048101546080850152604051611c5281610124816005860161243c565b60a0850152600681015460c0850152604051611c7581610124816007860161243c565b60e0850152604051611c8e81610124816008860161243c565b610100850152604051611ca881610124816009860161243c565b610120850152604051611cc28161012481600a860161243c565b610140850152600b810154610160850152604051611ce78161012481600c860161243c565b610180850152600d8101546101a085015201546101c083015215156101e0820152611d128288612556565b52611d1d8187612556565b506124d2565b91908680611bbb565b602090604051611d3b8161232f565b600081526060839080828401528060408401528080840152600060808401528060a0840152600060c08401528060e0840152806101008401528061012084015280610140840152600061016084015261018083015260006101a083015260006101c083015260006101e0830152828801015201611a17565b634e487b7160e01b600052601160045260246000fd5b346102945760c0366003190112610294576001600160401b0360243581811161029457611dfa90369060040161236c565b60443582811161029457611e1290369060040161236c565b60643583811161029457611e2a90369060040161236c565b9260a43581811161029457611e4390369060040161236c565b936004356000526000602052611e6360ff600f60406000200154166124e1565b6004356000526000602052604060002092845183811161093257611e8a6001860154612402565b601f81116122e4575b50806020601f82116001146122775760009161226c575b508160011b916000199060031b1c19161760018501555b805190838211610932578190611eda6002870154612402565b601f8111612216575b50602090601f83116001146121a457600092612199575b50508160011b916000199060031b1c19161760028401555b805190828211610932578190611f2b6003860154612402565b601f8111612143575b50602090601f83116001146120d6576000926120cb575b50508160011b916000199060031b1c19161760038301555b608435600483015583516005830191811161093257611f828254612402565b601f8111612083575b506020601f8211600114612005579181611fef95949260069460008051602061258183398151915298600092611ffa575b50508160011b916000199060031b1c19161790555b015460405192839260043584526060602085015260608401906123c2565b9060408301520390a1005b015190508880611fbc565b601f198216958360005260206000209660005b81811061206b575092600080516020612581833981519152976006959360019383611fef9a999710612052575b505050811b019055611fd1565b015160001960f88460031b161c19169055888080612045565b83830151895560019098019760209384019301612018565b826000526020600020601f830160051c810191602084106120c1575b601f0160051c01905b8181106120b55750611f8b565b600081556001016120a8565b909150819061209f565b015190508680611f4b565b600386016000908152602081209350601f198516905b81811061212b5750908460019594939210612112575b505050811b016003830155611f63565b015160001960f88460031b161c19169055868080612102565b929360206001819287860151815501950193016120ec565b909150600385016000526020600020601f840160051c8101916020851061218f575b90601f859493920160051c01905b8181106121805750611f34565b60008155849350600101612173565b9091508190612165565b015190508780611efa565b9250600286016000526020600020906000935b601f19841685106121fb576001945083601f198116106121e2575b505050811b016002840155611f12565b015160001960f88460031b161c191690558780806121d2565b818101518355602094850194600190930192909101906121b7565b909150600286016000526020600020601f840160051c81019160208510612262575b90601f859493920160051c01905b8181106122535750611ee3565b60008155849350600101612246565b9091508190612238565b905086015188611eaa565b91506001860160005260206000206000925b601f19831684106122cc576001935082601f198116106122b3575b5050811b016001850155611ec1565b88015160001960f88460031b161c1916905588806122a4565b88810151825560209384019360019092019101612289565b600186016000526020600020601f830160051c81019160208410612325575b601f0160051c01905b8181106123195750611e93565b6000815560010161230c565b9091508190612303565b61020081019081106001600160401b0382111761093257604052565b90601f801991011681019081106001600160401b0382111761093257604052565b81601f82011215610294578035906001600160401b03821161093257604051926123a0601f8401601f19166020018561234b565b8284526020838301011161029457816000926020809301838601378301015290565b919082519283825260005b8481106123ee575050826000602080949584010152601f8019910116010190565b6020818301810151848301820152016123cd565b90600182811c92168015612432575b602083101461241c57565b634e487b7160e01b600052602260045260246000fd5b91607f1691612411565b906000929180549161244d83612402565b9182825260019384811690816000146124af575060011461246f575b50505050565b90919394506000526020928360002092846000945b83861061249b575050505001019038808080612469565b805485870183015294019385908201612484565b9294505050602093945060ff191683830152151560051b01019038808080612469565b6000198114611db35760010190565b156124e857565b60405162461bcd60e51b815260206004820152602960248201527f456c2070726f647563746f206e6f20657869737465206f206861207369646f20604482015268656c696d696e61646f60b81b6064820152608490fd5b6001600160401b0381116109325760051b60200190565b805182101561256a5760209160051b010190565b634e487b7160e01b600052603260045260246000fdfe16315dc30a9a0a1608d8a6cfb71fe5287e744e455a0b97e708b9ff3b936e674da26469706673582212201e464a92d90d3f0df3a251b323e4ea2d7e354d4d187d8c96b46cb42be048c6ce64736f6c63430008120033",
  "immutableReferences": {},
  "source": "// SPDX-License-Identifier: MIT\r\npragma solidity ^0.8.0;\r\n\r\ncontract ProductoContract {\r\n    struct Producto {\r\n        uint id;\r\n        string tipo;\r\n        string descripcion;\r\n        string especie;\r\n        uint edad;\r\n        string raza;\r\n        uint cantidad;\r\n        string movimiento;\r\n        string guia_animal;\r\n        string autorizacion_senasac;\r\n        string destino;\r\n        uint saldo_actual;\r\n        string observaciones;\r\n        uint id_animal;\r\n        uint fecha_ingreso;\r\n        bool activo; //  Nuevo campo para indicar si el producto est activo\r\n    }\r\n\r\n    mapping(uint => Producto) public productos;\r\n    uint public siguienteProductoId = 1;\r\n\r\n    event ProductoRegistrado(uint id, string tipo, uint cantidad, uint fecha_ingreso);\r\n    event ProductoActualizado(uint id, string tipo, uint cantidad);\r\n    event ProductoEliminado(uint id);\r\n\r\n    //  Registrar un nuevo producto\r\n    function registrarProducto(\r\n        string memory _tipo,\r\n        string memory _descripcion,\r\n        string memory _especie,\r\n        uint _edad,\r\n        string memory _raza,\r\n        uint _cantidad,\r\n        string memory _movimiento,\r\n        string memory _guia_animal,\r\n        string memory _autorizacion_senasac,\r\n        string memory _destino,\r\n        uint _saldo_actual,\r\n        string memory _observaciones,\r\n        uint _id_animal\r\n    ) public {\r\n        uint id = siguienteProductoId++;\r\n        productos[id] = Producto(\r\n            id, _tipo, _descripcion, _especie, _edad, _raza, _cantidad, _movimiento,\r\n            _guia_animal, _autorizacion_senasac, _destino, _saldo_actual,\r\n            _observaciones, _id_animal, block.timestamp, true\r\n        );\r\n\r\n        emit ProductoRegistrado(id, _tipo, _cantidad, block.timestamp);\r\n    }\r\n\r\n    //  Actualizar informacin general del producto\r\n    function actualizarProductoInfo(\r\n        uint _id,\r\n        string memory _tipo,\r\n        string memory _descripcion,\r\n        string memory _especie,\r\n        uint _edad,\r\n        string memory _raza\r\n    ) public {\r\n        require(productos[_id].activo, \"El producto no existe o ha sido eliminado\");\r\n\r\n        Producto storage p = productos[_id];\r\n        p.tipo = _tipo;\r\n        p.descripcion = _descripcion;\r\n        p.especie = _especie;\r\n        p.edad = _edad;\r\n        p.raza = _raza;\r\n\r\n        emit ProductoActualizado(_id, _tipo, p.cantidad);\r\n    }\r\n\r\n    //  Actualizar informacin de inventario del producto\r\n    function actualizarProductoInventario(\r\n        uint _id,\r\n        uint _cantidad,\r\n        string memory _movimiento,\r\n        string memory _guia_animal,\r\n        string memory _autorizacion_senasac,\r\n        string memory _destino,\r\n        uint _saldo_actual,\r\n        string memory _observaciones\r\n    ) public {\r\n        require(productos[_id].activo, \"El producto no existe o ha sido eliminado\");\r\n\r\n        Producto storage p = productos[_id];\r\n        p.cantidad = _cantidad;\r\n        p.movimiento = _movimiento;\r\n        p.guia_animal = _guia_animal;\r\n        p.autorizacion_senasac = _autorizacion_senasac;\r\n        p.destino = _destino;\r\n        p.saldo_actual = _saldo_actual;\r\n        p.observaciones = _observaciones;\r\n\r\n        emit ProductoActualizado(_id, p.tipo, _cantidad);\r\n    }\r\n\r\n    //  Eliminar un producto (desactivarlo)\r\n    function eliminarProducto(uint _id) public {\r\n        require(productos[_id].activo, \"El producto ya ha sido eliminado\");\r\n        productos[_id].activo = false;\r\n        emit ProductoEliminado(_id);\r\n    }\r\n\r\n    //  Obtener un producto por ID (Optimizado para evitar error de pila)\r\n    function obtenerProducto(uint _id) public view returns (\r\n        uint, string memory, string memory, string memory, uint, string memory, uint, bool\r\n    ) {\r\n        require(productos[_id].activo, \"El producto no existe o ha sido eliminado\");\r\n        Producto memory p = productos[_id];\r\n\r\n        return (\r\n            p.id, p.tipo, p.descripcion, p.especie, p.edad, p.raza, p.cantidad, p.activo\r\n        );\r\n    }\r\n\r\n    //  Listar todos los productos activos\r\n    function listarProductos() public view returns (Producto[] memory) {\r\n        uint totalProductos = siguienteProductoId - 1;\r\n        uint contador = 0;\r\n        Producto[] memory productosActivos = new Producto[](totalProductos);\r\n\r\n        for (uint i = 1; i <= totalProductos; i++) {\r\n            if (productos[i].activo) {\r\n                productosActivos[contador] = productos[i];\r\n                contador++;\r\n            }\r\n        }\r\n\r\n        return productosActivos;\r\n    }\r\n}\r\n",
  "sourcePath": "C:\\Users\\Raul\\Projects - Development (Code)\\Chainventory\\Chainventory\\truffle\\contracts\\ProductoContract.sol",
  "compiler": {
    "name": "solc",
    "version": "0.8.18+commit.87f61d96.Emscripten.clang"
  },
  "schemaVersion": "3.4.16",
  "updatedAt": "2025-05-23T12:40:17.287Z",
  "networkType": "ethereum",
  "devdoc": {
    "kind": "dev",
    "methods": {},
    "version": 1
  },
  "userdoc": {
    "kind": "user",
    "methods": {},
    "version": 1
  }
}