{
  "contractName": "ProductoContract",
  "abi": [
    {
      "anonymous": false,
      "inputs": [
        {
          "indexed": false,
          "internalType": "uint256",
          "name": "id",
          "type": "uint256"
        },
        {
          "indexed": false,
          "internalType": "string",
          "name": "tipo",
          "type": "string"
        },
        {
          "indexed": false,
          "internalType": "uint256",
          "name": "cantidad",
          "type": "uint256"
        },
        {
          "indexed": false,
          "internalType": "uint256",
          "name": "fecha_ingreso",
          "type": "uint256"
        }
      ],
      "name": "ProductoRegistrado",
      "type": "event"
    },
    {
      "inputs": [
        {
          "internalType": "uint256",
          "name": "",
          "type": "uint256"
        }
      ],
      "name": "productos",
      "outputs": [
        {
          "internalType": "uint256",
          "name": "id",
          "type": "uint256"
        },
        {
          "internalType": "string",
          "name": "tipo",
          "type": "string"
        },
        {
          "internalType": "string",
          "name": "descripcion",
          "type": "string"
        },
        {
          "internalType": "string",
          "name": "especie",
          "type": "string"
        },
        {
          "internalType": "uint256",
          "name": "edad",
          "type": "uint256"
        },
        {
          "internalType": "string",
          "name": "raza",
          "type": "string"
        },
        {
          "internalType": "uint256",
          "name": "cantidad",
          "type": "uint256"
        },
        {
          "internalType": "string",
          "name": "movimiento",
          "type": "string"
        },
        {
          "internalType": "string",
          "name": "guia_animal",
          "type": "string"
        },
        {
          "internalType": "string",
          "name": "autorizacion_senasac",
          "type": "string"
        },
        {
          "internalType": "string",
          "name": "destino",
          "type": "string"
        },
        {
          "internalType": "uint256",
          "name": "saldo_actual",
          "type": "uint256"
        },
        {
          "internalType": "string",
          "name": "observaciones",
          "type": "string"
        },
        {
          "internalType": "uint256",
          "name": "id_animal",
          "type": "uint256"
        },
        {
          "internalType": "uint256",
          "name": "fecha_ingreso",
          "type": "uint256"
        }
      ],
      "stateMutability": "view",
      "type": "function",
      "constant": true
    },
    {
      "inputs": [],
      "name": "siguienteProductoId",
      "outputs": [
        {
          "internalType": "uint256",
          "name": "",
          "type": "uint256"
        }
      ],
      "stateMutability": "view",
      "type": "function",
      "constant": true
    },
    {
      "inputs": [
        {
          "internalType": "string",
          "name": "_tipo",
          "type": "string"
        },
        {
          "internalType": "string",
          "name": "_descripcion",
          "type": "string"
        },
        {
          "internalType": "string",
          "name": "_especie",
          "type": "string"
        },
        {
          "internalType": "uint256",
          "name": "_edad",
          "type": "uint256"
        },
        {
          "internalType": "string",
          "name": "_raza",
          "type": "string"
        },
        {
          "internalType": "uint256",
          "name": "_cantidad",
          "type": "uint256"
        },
        {
          "internalType": "string",
          "name": "_movimiento",
          "type": "string"
        },
        {
          "internalType": "string",
          "name": "_guia_animal",
          "type": "string"
        },
        {
          "internalType": "string",
          "name": "_autorizacion_senasac",
          "type": "string"
        },
        {
          "internalType": "string",
          "name": "_destino",
          "type": "string"
        },
        {
          "internalType": "uint256",
          "name": "_saldo_actual",
          "type": "uint256"
        },
        {
          "internalType": "string",
          "name": "_observaciones",
          "type": "string"
        },
        {
          "internalType": "uint256",
          "name": "_id_animal",
          "type": "uint256"
        }
      ],
      "name": "registrarProducto",
      "outputs": [],
      "stateMutability": "nonpayable",
      "type": "function"
    }
  ],
  "bytecode": "0x6080806040523461001a57600180556110ef90816100208239f35b600080fdfe6080604052600436101561001257600080fd5b60003560e01c80639955363614610da1578063aad1f2dc14610d835763c112f39e1461003d57600080fd5b34610d7e576101a0366003190112610d7e576004356001600160401b038111610d7e5761006e903690600401611063565b6024356001600160401b038111610d7e5761008d903690600401611063565b906044356001600160401b038111610d7e576100ad903690600401611063565b6084356001600160401b038111610d7e576100cc903690600401611063565b60c4356001600160401b038111610d7e576100eb903690600401611063565b60e4356001600160401b038111610d7e5761010a903690600401611063565b610104356001600160401b038111610d7e5761012a903690600401611063565b90610124356001600160401b038111610d7e5761014b903690600401611063565b92610164356001600160401b038111610d7e5761016c903690600401611063565b94600154966000198814610d685760018801600155604051998a6101e08101106001600160401b036101e08d0111176106d2576101e08b01604052888b528960208c015260408b015260608a015260643560808a015260a089015260a43560c089015260e088015261010087015261012086015261014085015261014435610160850152610180840152610184356101a0840152426101c084015280600052600060205260406000208351815560208401518051906001600160401b0382116106d257819061023e6001850154610f22565b601f8111610d15575b50602090601f8311600114610ca357600092610c98575b50508160011b916000199060031b1c19161760018201555b60408401518051906001600160401b0382116106d257819061029b6002850154610f22565b601f8111610c45575b50602090601f8311600114610bd357600092610bc8575b50508160011b916000199060031b1c19161760028201555b60608401518051906001600160401b0382116106d25781906102f86003850154610f22565b601f8111610b75575b50602090601f8311600114610b0357600092610af8575b50508160011b916000199060031b1c19161760038201555b6080840151600482015560a08401518051906001600160401b0382116106d257819061035f6005850154610f22565b601f8111610aa5575b50602090601f8311600114610a3357600092610a28575b50508160011b916000199060031b1c19161760058201555b60c0840151600682015560e08401518051906001600160401b0382116106d25781906103c66007850154610f22565b601f81116109d5575b50602090601f831160011461096357600092610958575b50508160011b916000199060031b1c19161760078201555b6101008401518051906001600160401b0382116106d25781906104246008850154610f22565b601f8111610905575b50602090601f831160011461089357600092610888575b50508160011b916000199060031b1c19161760088201555b6101208401518051906001600160401b0382116106d25781906104826009850154610f22565b601f8111610835575b50602090601f83116001146107c3576000926107b8575b50508160011b916000199060031b1c19161760098201555b6101408401518051906001600160401b0382116106d25781906104e0600a850154610f22565b601f8111610765575b50602090601f83116001146106f3576000926106e8575b50508160011b916000199060031b1c191617600a8201555b610160840151600b8201556101808401518051906001600160401b0382116106d257610547600c840154610f22565b601f811161068b575b50602090601f83116001146105f4579582600e936101c0937fe2132a4b85421cdf93625a194e3590679e14d481f80f271035d62dc61d2e541e996000926105e9575b50508160011b916000199060031b1c191617600c8501555b6101a0810151600d85015501519101556105d66040519283928352608060208401526080830190611023565b60a43560408301524260608301520390a1005b015190503880610592565b90600c840160005260206000209160005b601f19851681106106735750836101c0937fe2132a4b85421cdf93625a194e3590679e14d481f80f271035d62dc61d2e541e9993600193600e97601f1981161061065a575b505050811b01600c8501556105aa565b015160001960f88460031b161c1916905538808061064a565b91926020600181928685015181550194019201610605565b600c84016000526020600020601f840160051c8101602085106106cb575b601f830160051c820181106106bf575050610550565b600081556001016106a9565b50806106a9565b634e487b7160e01b600052604160045260246000fd5b015190503880610500565b9250600a84016000526020600020906000935b601f198416851061074a576001945083601f19811610610731575b505050811b01600a820155610518565b015160001960f88460031b161c19169055388080610721565b81810151835560209485019460019093019290910190610706565b909150600a84016000526020600020601f840160051c8101602085106107b1575b90849392915b601f830160051c820181106107a25750506104e9565b6000815585945060010161078c565b5080610786565b0151905038806104a2565b9250600984016000526020600020906000935b601f198416851061081a576001945083601f19811610610801575b505050811b0160098201556104ba565b015160001960f88460031b161c191690553880806107f1565b818101518355602094850194600190930192909101906107d6565b909150600984016000526020600020601f840160051c810160208510610881575b90849392915b601f830160051c8201811061087257505061048b565b6000815585945060010161085c565b5080610856565b015190503880610444565b9250600884016000526020600020906000935b601f19841685106108ea576001945083601f198116106108d1575b505050811b01600882015561045c565b015160001960f88460031b161c191690553880806108c1565b818101518355602094850194600190930192909101906108a6565b909150600884016000526020600020601f840160051c810160208510610951575b90849392915b601f830160051c8201811061094257505061042d565b6000815585945060010161092c565b5080610926565b0151905038806103e6565b9250600784016000526020600020906000935b601f19841685106109ba576001945083601f198116106109a1575b505050811b0160078201556103fe565b015160001960f88460031b161c19169055388080610991565b81810151835560209485019460019093019290910190610976565b909150600784016000526020600020601f840160051c810160208510610a21575b90849392915b601f830160051c82018110610a125750506103cf565b600081558594506001016109fc565b50806109f6565b01519050388061037f565b9250600584016000526020600020906000935b601f1984168510610a8a576001945083601f19811610610a71575b505050811b016005820155610397565b015160001960f88460031b161c19169055388080610a61565b81810151835560209485019460019093019290910190610a46565b909150600584016000526020600020601f840160051c810160208510610af1575b90849392915b601f830160051c82018110610ae2575050610368565b60008155859450600101610acc565b5080610ac6565b015190503880610318565b9250600384016000526020600020906000935b601f1984168510610b5a576001945083601f19811610610b41575b505050811b016003820155610330565b015160001960f88460031b161c19169055388080610b31565b81810151835560209485019460019093019290910190610b16565b909150600384016000526020600020601f840160051c810160208510610bc1575b90849392915b601f830160051c82018110610bb2575050610301565b60008155859450600101610b9c565b5080610b96565b0151905038806102bb565b9250600284016000526020600020906000935b601f1984168510610c2a576001945083601f19811610610c11575b505050811b0160028201556102d3565b015160001960f88460031b161c19169055388080610c01565b81810151835560209485019460019093019290910190610be6565b909150600284016000526020600020601f840160051c810160208510610c91575b90849392915b601f830160051c82018110610c825750506102a4565b60008155859450600101610c6c565b5080610c66565b01519050388061025e565b9250600184016000526020600020906000935b601f1984168510610cfa576001945083601f19811610610ce1575b505050811b016001820155610276565b015160001960f88460031b161c19169055388080610cd1565b81810151835560209485019460019093019290910190610cb6565b909150600184016000526020600020601f840160051c810160208510610d61575b90849392915b601f830160051c82018110610d52575050610247565b60008155859450600101610d3c565b5080610d36565b634e487b7160e01b600052601160045260246000fd5b600080fd5b34610d7e576000366003190112610d7e576020600154604051908152f35b34610d7e576020366003190112610d7e576004356000526000602052604060002080549060018101610dd290610f7d565b90610ddf60028201610f7d565b610deb60038301610f7d565b6004830154610dfc60058501610f7d565b6006850154610e0d60078701610f7d565b610e1960088801610f7d565b90610e2660098901610f7d565b92610e33600a8a01610f7d565b94600b8a015496600c8b01610e4790610f7d565b98600d8c01549b600e01549a6040519e8f9e8f9182526101e08060208401528201610e7191611023565b908082039060400152610e8391611023565b8d810360608f0152610e9491611023565b9060808d01528b810360a08d0152610eab91611023565b9060c08b015289810360e08b0152610ec291611023565b8881036101008a0152610ed491611023565b878103610120890152610ee691611023565b868103610140880152610ef891611023565b90610160860152848103610180860152610f1191611023565b916101a08401526101c08301520390f35b90600182811c92168015610f52575b6020831014610f3c57565b634e487b7160e01b600052602260045260246000fd5b91607f1691610f31565b90601f801991011681019081106001600160401b038211176106d257604052565b9060405191826000825492610f9184610f22565b9081845260019485811690816000146110005750600114610fbd575b5050610fbb92500383610f5c565b565b9093915060005260209081600020936000915b818310610fe8575050610fbb93508201013880610fad565b85548884018501529485019487945091830191610fd0565b915050610fbb94506020925060ff191682840152151560051b8201013880610fad565b919082519283825260005b84811061104f575050826000602080949584010152601f8019910116010190565b60208183018101518483018201520161102e565b81601f82011215610d7e578035906001600160401b0382116106d25760405192611097601f8401601f191660200185610f5c565b82845260208383010111610d7e5781600092602080930183860137830101529056fea264697066735822122049e56c71bc00ae4fb5ab1b0596a40897b2cf7ba7e2e747e53871e784b688db3164736f6c63430008120033",
  "immutableReferences": {},
  "source": "// SPDX-License-Identifier: MIT\r\npragma solidity ^0.8.0;\r\n\r\ncontract ProductoContract {\r\n    struct Producto {\r\n        uint id;\r\n        string tipo;\r\n        string descripcion;\r\n        string especie;\r\n        uint edad;\r\n        string raza;\r\n        uint cantidad;\r\n        string movimiento;\r\n        string guia_animal;\r\n        string autorizacion_senasac;\r\n        string destino;\r\n        uint saldo_actual;\r\n        string observaciones;\r\n        uint id_animal;\r\n        uint fecha_ingreso;\r\n    }\r\n\r\n    mapping(uint => Producto) public productos;\r\n    uint public siguienteProductoId = 1;\r\n\r\n    event ProductoRegistrado(uint id, string tipo, uint cantidad, uint fecha_ingreso);\r\n\r\n    function registrarProducto(\r\n        string memory _tipo,\r\n        string memory _descripcion,\r\n        string memory _especie,\r\n        uint _edad,\r\n        string memory _raza,\r\n        uint _cantidad,\r\n        string memory _movimiento,\r\n        string memory _guia_animal,\r\n        string memory _autorizacion_senasac,\r\n        string memory _destino,\r\n        uint _saldo_actual,\r\n        string memory _observaciones,\r\n        uint _id_animal\r\n    ) public {\r\n        uint id = siguienteProductoId++;\r\n        productos[id] = Producto(\r\n            id, _tipo, _descripcion, _especie, _edad, _raza, _cantidad, _movimiento,\r\n            _guia_animal, _autorizacion_senasac, _destino, _saldo_actual,\r\n            _observaciones, _id_animal, block.timestamp\r\n        );\r\n\r\n        emit ProductoRegistrado(id, _tipo, _cantidad, block.timestamp);\r\n    }\r\n}\r\n",
  "sourcePath": "C:\\Users\\Raul\\Documents\\GitHub\\Chainventory\\Chainventory\\truffle\\contracts\\ProductoContract.sol",
  "compiler": {
    "name": "solc",
    "version": "0.8.18+commit.87f61d96.Emscripten.clang"
  },
  "schemaVersion": "3.4.16",
  "updatedAt": "2025-02-24T19:27:29.060Z",
  "networkType": "ethereum",
  "devdoc": {
    "kind": "dev",
    "methods": {},
    "version": 1
  },
  "userdoc": {
    "kind": "user",
    "methods": {},
    "version": 1
  }
}