{
  "contractName": "UsuarioContract",
  "abi": [
    {
      "inputs": [],
      "stateMutability": "nonpayable",
      "type": "constructor"
    },
    {
      "anonymous": false,
      "inputs": [
        {
          "indexed": false,
          "internalType": "uint256",
          "name": "id",
          "type": "uint256"
        },
        {
          "indexed": false,
          "internalType": "string",
          "name": "username",
          "type": "string"
        }
      ],
      "name": "ContrasenaCambiada",
      "type": "event"
    },
    {
      "anonymous": false,
      "inputs": [
        {
          "indexed": false,
          "internalType": "uint256",
          "name": "id",
          "type": "uint256"
        },
        {
          "indexed": false,
          "internalType": "string",
          "name": "username",
          "type": "string"
        },
        {
          "indexed": false,
          "internalType": "string",
          "name": "nuevoRol",
          "type": "string"
        }
      ],
      "name": "RolCambiado",
      "type": "event"
    },
    {
      "anonymous": false,
      "inputs": [
        {
          "indexed": false,
          "internalType": "uint256",
          "name": "id",
          "type": "uint256"
        },
        {
          "indexed": false,
          "internalType": "string",
          "name": "username",
          "type": "string"
        }
      ],
      "name": "UsuarioEliminado",
      "type": "event"
    },
    {
      "anonymous": false,
      "inputs": [
        {
          "indexed": false,
          "internalType": "uint256",
          "name": "id",
          "type": "uint256"
        },
        {
          "indexed": false,
          "internalType": "string",
          "name": "username",
          "type": "string"
        },
        {
          "indexed": false,
          "internalType": "string",
          "name": "rol",
          "type": "string"
        }
      ],
      "name": "UsuarioRegistrado",
      "type": "event"
    },
    {
      "inputs": [],
      "name": "administrador",
      "outputs": [
        {
          "internalType": "address",
          "name": "",
          "type": "address"
        }
      ],
      "stateMutability": "view",
      "type": "function",
      "constant": true
    },
    {
      "inputs": [],
      "name": "siguienteUsuarioId",
      "outputs": [
        {
          "internalType": "uint256",
          "name": "",
          "type": "uint256"
        }
      ],
      "stateMutability": "view",
      "type": "function",
      "constant": true
    },
    {
      "inputs": [
        {
          "internalType": "uint256",
          "name": "",
          "type": "uint256"
        }
      ],
      "name": "usuarios",
      "outputs": [
        {
          "internalType": "uint256",
          "name": "id",
          "type": "uint256"
        },
        {
          "internalType": "string",
          "name": "username",
          "type": "string"
        },
        {
          "internalType": "bytes32",
          "name": "passwordHash",
          "type": "bytes32"
        },
        {
          "internalType": "string",
          "name": "rol",
          "type": "string"
        },
        {
          "internalType": "bool",
          "name": "activo",
          "type": "bool"
        }
      ],
      "stateMutability": "view",
      "type": "function",
      "constant": true
    },
    {
      "inputs": [
        {
          "internalType": "string",
          "name": "_username",
          "type": "string"
        },
        {
          "internalType": "string",
          "name": "_password",
          "type": "string"
        },
        {
          "internalType": "string",
          "name": "_rol",
          "type": "string"
        }
      ],
      "name": "registrarUsuario",
      "outputs": [],
      "stateMutability": "nonpayable",
      "type": "function"
    },
    {
      "inputs": [
        {
          "internalType": "string",
          "name": "_username",
          "type": "string"
        },
        {
          "internalType": "string",
          "name": "_password",
          "type": "string"
        }
      ],
      "name": "validarUsuario",
      "outputs": [
        {
          "internalType": "bool",
          "name": "",
          "type": "bool"
        },
        {
          "internalType": "string",
          "name": "",
          "type": "string"
        }
      ],
      "stateMutability": "view",
      "type": "function",
      "constant": true
    },
    {
      "inputs": [
        {
          "internalType": "string",
          "name": "_username",
          "type": "string"
        },
        {
          "internalType": "string",
          "name": "_nuevaPassword",
          "type": "string"
        }
      ],
      "name": "cambiarContrasena",
      "outputs": [],
      "stateMutability": "nonpayable",
      "type": "function"
    },
    {
      "inputs": [
        {
          "internalType": "string",
          "name": "_username",
          "type": "string"
        },
        {
          "internalType": "string",
          "name": "_nuevoRol",
          "type": "string"
        }
      ],
      "name": "cambiarRol",
      "outputs": [],
      "stateMutability": "nonpayable",
      "type": "function"
    },
    {
      "inputs": [
        {
          "internalType": "string",
          "name": "_username",
          "type": "string"
        }
      ],
      "name": "eliminarUsuario",
      "outputs": [],
      "stateMutability": "nonpayable",
      "type": "function"
    },
    {
      "inputs": [
        {
          "internalType": "string",
          "name": "_username",
          "type": "string"
        }
      ],
      "name": "obtenerUsuario",
      "outputs": [
        {
          "internalType": "string",
          "name": "",
          "type": "string"
        },
        {
          "internalType": "string",
          "name": "",
          "type": "string"
        },
        {
          "internalType": "bool",
          "name": "",
          "type": "bool"
        }
      ],
      "stateMutability": "view",
      "type": "function",
      "constant": true
    },
    {
      "inputs": [],
      "name": "listarUsuarios",
      "outputs": [
        {
          "components": [
            {
              "internalType": "uint256",
              "name": "id",
              "type": "uint256"
            },
            {
              "internalType": "string",
              "name": "username",
              "type": "string"
            },
            {
              "internalType": "bytes32",
              "name": "passwordHash",
              "type": "bytes32"
            },
            {
              "internalType": "string",
              "name": "rol",
              "type": "string"
            },
            {
              "internalType": "bool",
              "name": "activo",
              "type": "bool"
            }
          ],
          "internalType": "struct UsuarioContract.Usuario[]",
          "name": "",
          "type": "tuple[]"
        }
      ],
      "stateMutability": "view",
      "type": "function",
      "constant": true
    }
  ],
  "bytecode": "0x6080806040523461002d576001600255600380546001600160a01b0319163317905561106f90816100338239f35b600080fdfe6080604052600436101561001257600080fd5b60003560e01c8063198713cf14610b2c5780633dcdc89d14610a6f578063414bc0c9146108ba5780637062b97d1461089157806396fe477d146106c4578063b5807a6f146105fe578063ce0e01b91461019d578063efd6021f1461017f578063f6d68102146101455763fc9f69731461008a57600080fd5b346101405760208060031936011261014057600435906001600160401b038211610140576100d6816100c3610129943690600401610d33565b8160405193828580945193849201610ceb565b81016001815203019020546100ec811515610fb4565b600052600081526101006040600020610e61565b610136828201519260806060840151930151151592604051958695606087526060870190610d0e565b9185830390860152610d0e565b9060408301520390f35b600080fd5b346101405761015c61015636610d89565b90610eb0565b9061017b60405192839215158352604060208401526040830190610d0e565b0390f35b34610140576000366003190112610140576020600254604051908152f35b34610140576060366003190112610140576004356001600160401b038111610140576101cd903690600401610d33565b6024356001600160401b038111610140576101ec903690600401610d33565b906044356001600160401b0381116101405761020c903690600401610d33565b9161022260018060a01b03600354163314610dcf565b60405160208184516102378183858901610ceb565b81016001815203019020546105c2576002549061025382610e27565b600255604051610280602082816102738183019687815193849201610ceb565b8101038084520182610c24565b5190209260405161029081610bee565b828152602081019484865260408201528160608201526001608082015282600052600060205260406000209481518655518051906001600160401b0382116104dc5781906102e16001890154610bb4565b601f811161056f575b50602090601f83116001146104fd576000926104f2575b50508160011b916000199060031b1c19161760018601555b6040810151600286015560608101519485516001600160401b0381116104dc576103466003830154610bb4565b601f8111610495575b506020601f82116001146103fb576103eb949392826080936004937f6ff1946b9c3819a0324594229aa748d06ee27a695e230fb2a3a13281cd6d10499b6000926103f0575b50508160011b916000199060031b1c19161760038201555b01910151151560ff801983541691161790558260405160208187516103d48183858c01610ceb565b810160018152030190205560405193849384610e36565b0390a1005b015190508b80610394565b6003830160005260206000209760005b601f198416811061047d5750926001837f6ff1946b9c3819a0324594229aa748d06ee27a695e230fb2a3a13281cd6d10499a6004946103eb999897608097601f19811610610464575b505050811b0160038201556103ac565b015160001960f88460031b161c191690558b8080610454565b828201518a556001909901986020928301920161040b565b600383016000526020600020601f830160051c8101602084106104d5575b601f830160051c820181106104c957505061034f565b600081556001016104b3565b50806104b3565b634e487b7160e01b600052604160045260246000fd5b015190508780610301565b9250600188016000526020600020906000935b601f1984168510610554576001945083601f1981161061053b575b505050811b016001860155610319565b015160001960f88460031b161c1916905587808061052b565b81810151835560209485019460019093019290910190610510565b909150600188016000526020600020601f840160051c8101602085106105bb575b90849392915b601f830160051c820181106105ac5750506102ea565b60008155859450600101610596565b5080610590565b60405162461bcd60e51b8152602060048201526014602482015273456c207573756172696f2079612065786973746560601b6044820152606490fd5b34610140576020366003190112610140576004356001600160401b0381116101405761064f7fbdb4142fae2bea7796c619f1bc0a0abc2043898c5e22fc9f426d4e50a4ae5842913690600401610d33565b61066460018060a01b03600354163314610dcf565b60405160208183516106798183858801610ceb565b810160018152030190205461068f811515610fb4565b806000526000602052600460406000200160ff1981541690556103eb6040519283928352604060208401526040830190610d0e565b34610140576106d236610d89565b906106e860018060a01b03600354163314610dcf565b604051918151926020936106ff8183878701610ceb565b810190848160019384815203019020549361071b851515610fb4565b84600052600081526003604060002001918351916001600160401b0383116104dc576107478454610bb4565b601f8111610848575b5080601f84116001146107ba57509180806103eb95937ff169fee9429dec5fe299bc20fad59e202ba19e0208ab4243066321607bee298d9997956000936107af575b501b916000199060031b1c19161790555b60405193849384610e36565b86015192508a610792565b90601f9392931983168560005282600020926000905b8282106108315750509183916103eb96947ff169fee9429dec5fe299bc20fad59e202ba19e0208ab4243066321607bee298d9a98969410610818575b5050811b0190556107a3565b85015160001960f88460031b161c19169055888061080c565b808785968294968c015181550195019301906107d0565b8460005281600020601f850160051c810191838610610887575b601f0160051c019083905b82811061087b575050610750565b6000815501839061086d565b9091508190610862565b34610140576000366003190112610140576003546040516001600160a01b039091168152602090f35b34610140576000366003190112610140576108e060018060a01b03600354163314610dcf565b6002546000199081810190808211610a20576108fb82610ff8565b916109096040519384610c24565b808352610918601f1991610ff8565b0160005b818110610a36575050600192835b8281106109da578385604051918291602090818401828552835180915260408501928060408360051b8801019501936000905b83821061096a5787870388f35b918496819592949698508190603f198b8203018552895190815181526109bc61099f8484015160a08087860152840190610d0e565b604084015160408401526060808501519084830390850152610d0e565b9160808091015115159101529801920192018796959391949261095d565b80600052600060205260406000209082810191818311610a2057610a1b92610a04610a1592610e61565b610a0e828961100f565b528661100f565b50610e27565b61092a565b634e487b7160e01b600052601160045260246000fd5b602090604051610a4581610bee565b6000815260608390808284015260006040840152808301526000608083015282870101520161091c565b34610140577fac0b1afe74352c0b42a6797834139e0c52f46be153db6985018ee60f1ac57183610a9e36610d89565b610ab360018060a01b03600354163314610dcf565b6103eb6040519283815160209581610acf889383858801610ceb565b810160018152030190205492610ae6841515610fb4565b604051610b028682816102738183019687815193849201610ceb565b51902083600052600085526002604060002001556040805194859485528401526040830190610d0e565b3461014057602036600319011261014057600435600052600060205260406000208054610b5b60018301610c45565b91610ba8600282015460ff6004610b7460038601610c45565b9401541692610b95604051968796875260a0602088015260a0870190610d0e565b9160408601528482036060860152610d0e565b90151560808301520390f35b90600182811c92168015610be4575b6020831014610bce57565b634e487b7160e01b600052602260045260246000fd5b91607f1691610bc3565b60a081019081106001600160401b038211176104dc57604052565b604081019081106001600160401b038211176104dc57604052565b90601f801991011681019081106001600160401b038211176104dc57604052565b9060405191826000825492610c5984610bb4565b908184526001948581169081600014610cc85750600114610c85575b5050610c8392500383610c24565b565b9093915060005260209081600020936000915b818310610cb0575050610c8393508201013880610c75565b85548884018501529485019487945091830191610c98565b915050610c8394506020925060ff191682840152151560051b8201013880610c75565b60005b838110610cfe5750506000910152565b8181015183820152602001610cee565b90602091610d2781518092818552858086019101610ceb565b601f01601f1916010190565b81601f82011215610140578035906001600160401b0382116104dc5760405192610d67601f8401601f191660200185610c24565b8284526020838301011161014057816000926020809301838601378301015290565b906040600319830112610140576001600160401b036004358181116101405783610db591600401610d33565b9260243591821161014057610dcc91600401610d33565b90565b15610dd657565b60405162461bcd60e51b815260206004820152602360248201527f4e6f207469656e6573207065726d69736f732064652061646d696e69737472616044820152623237b960e91b6064820152608490fd5b6000198114610a205760010190565b91610e5390610dcc94928452606060208501526060840190610d0e565b916040818403910152610d0e565b90604051610e6e81610bee565b608060ff6004839580548552610e8660018201610c45565b602086015260028101546040860152610ea160038201610c45565b60608601520154161515910152565b919060409283518181809351610ecc8160209687809601610ceb565b810160018152030190205480158015610f9a575b610f5f5760005260008152610ef784600020610e61565b9184830151908551610f188482816102738183019687815193849201610ceb565b51902003610f2c5750606001516001925090565b905074436f6e74726173656e6120696e636f72726563746160581b6000935191610f5583610c09565b6015835282015290565b5090507f5573756172696f206e6f20656e636f6e747261646f206f20696e61637469766f6000935191610f9183610c09565b80835282015290565b50806000526000825260ff60048660002001541615610ee0565b15610fbb57565b60405162461bcd60e51b81526020600482015260156024820152745573756172696f206e6f20656e636f6e747261646f60581b6044820152606490fd5b6001600160401b0381116104dc5760051b60200190565b80518210156110235760209160051b010190565b634e487b7160e01b600052603260045260246000fdfea264697066735822122022d0a70c3ced0f9f4f28a25b851aa978295e7bb9676e10fc634a1dd6934b0e0c64736f6c63430008120033",
  "immutableReferences": {},
  "source": "// SPDX-License-Identifier: MIT\r\npragma solidity ^0.8.0;\r\n\r\ncontract UsuarioContract {\r\n    struct Usuario {\r\n        uint id;\r\n        string username;\r\n        bytes32 passwordHash;\r\n        string rol;\r\n        bool activo;\r\n    }\r\n\r\n    mapping(uint => Usuario) public usuarios;\r\n    mapping(string => uint) private usernameToId; // Mapeo para buscar usuarios por nombre\r\n    uint public siguienteUsuarioId = 1;\r\n    \r\n    address public administrador; // 🛠 El administrador del sistema\r\n\r\n    event UsuarioRegistrado(uint id, string username, string rol);\r\n    event UsuarioEliminado(uint id, string username);\r\n    event ContrasenaCambiada(uint id, string username);\r\n    event RolCambiado(uint id, string username, string nuevoRol);\r\n\r\n    modifier soloAdministrador() {\r\n        require(msg.sender == administrador, \"No tienes permisos de administrador\");\r\n        _;\r\n    }\r\n\r\n    constructor() {\r\n        administrador = msg.sender; // 🚀 El creador del contrato es el admin inicial\r\n    }\r\n\r\n    // 📌 Registrar un nuevo usuario\r\n    function registrarUsuario(string memory _username, string memory _password, string memory _rol) public soloAdministrador {\r\n        require(usernameToId[_username] == 0, \"El usuario ya existe\");\r\n\r\n        uint id = siguienteUsuarioId++;\r\n        usuarios[id] = Usuario(id, _username, keccak256(abi.encodePacked(_password)), _rol, true);\r\n        usernameToId[_username] = id;\r\n\r\n        emit UsuarioRegistrado(id, _username, _rol);\r\n    }\r\n\r\n    // 📌 Validar usuario (Login)\r\n    function validarUsuario(string memory _username, string memory _password) public view returns (bool, string memory) {\r\n        uint id = usernameToId[_username];\r\n        if (id == 0 || !usuarios[id].activo) {\r\n            return (false, \"Usuario no encontrado o inactivo\");\r\n        }\r\n\r\n        Usuario memory user = usuarios[id];\r\n        if (user.passwordHash == keccak256(abi.encodePacked(_password))) {\r\n            return (true, user.rol);\r\n        } else {\r\n            return (false, \"Contrasena incorrecta\");\r\n        }\r\n    }\r\n\r\n    // 📌 Cambiar la contraseña de un usuario\r\n    function cambiarContrasena(string memory _username, string memory _nuevaPassword) public soloAdministrador {\r\n        uint id = usernameToId[_username];\r\n        require(id != 0, \"Usuario no encontrado\");\r\n\r\n        usuarios[id].passwordHash = keccak256(abi.encodePacked(_nuevaPassword));\r\n        emit ContrasenaCambiada(id, _username);\r\n    }\r\n\r\n    // 📌 Cambiar el rol de un usuario\r\n    function cambiarRol(string memory _username, string memory _nuevoRol) public soloAdministrador {\r\n        uint id = usernameToId[_username];\r\n        require(id != 0, \"Usuario no encontrado\");\r\n\r\n        usuarios[id].rol = _nuevoRol;\r\n        emit RolCambiado(id, _username, _nuevoRol);\r\n    }\r\n\r\n    // 📌 Eliminar usuario (desactivarlo)\r\n    function eliminarUsuario(string memory _username) public soloAdministrador {\r\n        uint id = usernameToId[_username];\r\n        require(id != 0, \"Usuario no encontrado\");\r\n\r\n        usuarios[id].activo = false;\r\n        emit UsuarioEliminado(id, _username);\r\n    }\r\n\r\n    // 📌 Obtener datos de un usuario por nombre\r\n    function obtenerUsuario(string memory _username) public view returns (string memory, string memory, bool) {\r\n        uint id = usernameToId[_username];\r\n        require(id != 0, \"Usuario no encontrado\");\r\n\r\n        Usuario memory user = usuarios[id];\r\n        return (user.username, user.rol, user.activo);\r\n    }\r\n\r\n    // 📌 Listar usuarios (Solo para el administrador)\r\n    function listarUsuarios() public view soloAdministrador returns (Usuario[] memory) {\r\n        Usuario[] memory lista = new Usuario[](siguienteUsuarioId - 1);\r\n        for (uint i = 1; i < siguienteUsuarioId; i++) {\r\n            lista[i - 1] = usuarios[i];\r\n        }\r\n        return lista;\r\n    }\r\n}\r\n",
  "sourcePath": "C:\\Users\\Raul\\Projects - Development (Code)\\Chainventory\\Chainventory\\truffle\\contracts\\UsuarioContract.sol",
  "compiler": {
    "name": "solc",
    "version": "0.8.18+commit.87f61d96.Emscripten.clang"
  },
  "schemaVersion": "3.4.16",
  "updatedAt": "2025-05-23T12:40:17.705Z",
  "networkType": "ethereum",
  "devdoc": {
    "kind": "dev",
    "methods": {},
    "version": 1
  },
  "userdoc": {
    "kind": "user",
    "methods": {},
    "version": 1
  }
}