{
  "contractName": "UsuarioContract",
  "abi": [
    {
      "anonymous": false,
      "inputs": [
        {
          "indexed": false,
          "internalType": "uint256",
          "name": "id",
          "type": "uint256"
        },
        {
          "indexed": false,
          "internalType": "string",
          "name": "username",
          "type": "string"
        },
        {
          "indexed": false,
          "internalType": "string",
          "name": "rol",
          "type": "string"
        }
      ],
      "name": "UsuarioRegistrado",
      "type": "event"
    },
    {
      "inputs": [],
      "name": "siguienteUsuarioId",
      "outputs": [
        {
          "internalType": "uint256",
          "name": "",
          "type": "uint256"
        }
      ],
      "stateMutability": "view",
      "type": "function",
      "constant": true
    },
    {
      "inputs": [
        {
          "internalType": "uint256",
          "name": "",
          "type": "uint256"
        }
      ],
      "name": "usuarios",
      "outputs": [
        {
          "internalType": "uint256",
          "name": "id",
          "type": "uint256"
        },
        {
          "internalType": "string",
          "name": "username",
          "type": "string"
        },
        {
          "internalType": "bytes32",
          "name": "passwordHash",
          "type": "bytes32"
        },
        {
          "internalType": "string",
          "name": "rol",
          "type": "string"
        }
      ],
      "stateMutability": "view",
      "type": "function",
      "constant": true
    },
    {
      "inputs": [
        {
          "internalType": "string",
          "name": "_username",
          "type": "string"
        },
        {
          "internalType": "string",
          "name": "_password",
          "type": "string"
        },
        {
          "internalType": "string",
          "name": "_rol",
          "type": "string"
        }
      ],
      "name": "registrarUsuario",
      "outputs": [],
      "stateMutability": "nonpayable",
      "type": "function"
    }
  ],
  "bytecode": "0x6080806040523461001a576001805561066b90816100208239f35b600080fdfe6080604052600436101561001257600080fd5b60003560e01c8063198713cf1461041d578063ce0e01b9146100605763efd6021f1461003d57600080fd5b3461005b57600036600319011261005b576020600154604051908152f35b600080fd5b3461005b57606036600319011261005b5767ffffffffffffffff60043581811161005b576100929036906004016105de565b60243582811161005b576100aa9036906004016105de565b60443583811161005b576100c29036906004016105de565b926001549160001983146104075760018301600155604051610101602082816100f48183019687815193849201610596565b81010380845201826104ce565b5190209060405191608083018381108382111761032b5760405283835260208301908582526040840152856060840152836000526000602052604060002090835182555180519083821161032b5761015c6001840154610494565b601f81116103c0575b50602090601f831160011461034c57918060609492600394600092610341575b505060001982851b1c1916600191821b17908201555b6040850151600282015501920151805191821161032b576101bc8354610494565b601f81116102e3575b50602090601f831160011461025557918061024594927f6ff1946b9c3819a0324594229aa748d06ee27a695e230fb2a3a13281cd6d1049989460009261024a575b50508160011b916000199060031b1c19161790555b61023760405194859485526060602086015260608501906105b9565b9083820360408501526105b9565b0390a1005b015190508880610206565b90601f198316918460005260206000209260005b8181106102cb57509260019285927f6ff1946b9c3819a0324594229aa748d06ee27a695e230fb2a3a13281cd6d10499a966102459896106102b2575b505050811b01905561021b565b015160001960f88460031b161c191690558880806102a5565b92936020600181928786015181550195019301610269565b836000526020600020601f840160051c81019160208510610321575b601f0160051c01905b81811061031557506101c5565b60008155600101610308565b90915081906102ff565b634e487b7160e01b600052604160045260246000fd5b015190508a80610185565b906001840160005260206000209160005b601f19851681106103a85750926060949260019260039583601f19811610610390575b505050811b01600182015561019b565b015160001983871b60f8161c191690558a8080610380565b9192602060018192868501518155019401920161035d565b600184016000526020600020601f840160051c810160208510610400575b601f830160051c820181106103f4575050610165565b600081556001016103de565b50806103de565b634e487b7160e01b600052601160045260246000fd5b3461005b57602036600319011261005b5760043560005260006020526040600020805461049061044f600184016104f0565b926104616003600283015492016104f0565b61047d60405195869586526080602087015260808601906105b9565b91604085015283820360608501526105b9565b0390f35b90600182811c921680156104c4575b60208310146104ae57565b634e487b7160e01b600052602260045260246000fd5b91607f16916104a3565b90601f8019910116810190811067ffffffffffffffff82111761032b57604052565b906040519182600082549261050484610494565b9081845260019485811690816000146105735750600114610530575b505061052e925003836104ce565b565b9093915060005260209081600020936000915b81831061055b57505061052e93508201013880610520565b85548884018501529485019487945091830191610543565b91505061052e94506020925060ff191682840152151560051b8201013880610520565b60005b8381106105a95750506000910152565b8181015183820152602001610599565b906020916105d281518092818552858086019101610596565b601f01601f1916010190565b81601f8201121561005b5780359067ffffffffffffffff821161032b5760405192610613601f8401601f1916602001856104ce565b8284526020838301011161005b5781600092602080930183860137830101529056fea2646970667358221220d800178302e6a172181388fb6d08b1a3b9dc8d462b7f8c23874cff145680cf9764736f6c63430008120033",
  "immutableReferences": {},
  "source": "// SPDX-License-Identifier: MIT\r\npragma solidity ^0.8.0;\r\n\r\ncontract UsuarioContract {\r\n    struct Usuario {\r\n        uint id;\r\n        string username;\r\n        bytes32 passwordHash;\r\n        string rol;\r\n    }\r\n\r\n    mapping(uint => Usuario) public usuarios;\r\n    uint public siguienteUsuarioId = 1;\r\n\r\n    event UsuarioRegistrado(uint id, string username, string rol);\r\n\r\n    function registrarUsuario(\r\n        string memory _username,\r\n        string memory _password,\r\n        string memory _rol\r\n    ) public {\r\n        uint id = siguienteUsuarioId++;\r\n        usuarios[id] = Usuario(id, _username, keccak256(abi.encodePacked(_password)), _rol);\r\n        emit UsuarioRegistrado(id, _username, _rol);\r\n    }\r\n}\r\n",
  "sourcePath": "C:\\Users\\Raul\\Documents\\GitHub\\Chainventory\\Chainventory\\truffle\\contracts\\UsuarioContract.sol",
  "compiler": {
    "name": "solc",
    "version": "0.8.18+commit.87f61d96.Emscripten.clang"
  },
  "schemaVersion": "3.4.16",
  "updatedAt": "2025-02-24T19:27:29.068Z",
  "networkType": "ethereum",
  "devdoc": {
    "kind": "dev",
    "methods": {},
    "version": 1
  },
  "userdoc": {
    "kind": "user",
    "methods": {},
    "version": 1
  }
}