{
  "contractName": "VacunaContract",
  "abi": [
    {
      "anonymous": false,
      "inputs": [
        {
          "indexed": false,
          "internalType": "uint256",
          "name": "id",
          "type": "uint256"
        },
        {
          "indexed": false,
          "internalType": "string",
          "name": "tipo_vacuna",
          "type": "string"
        },
        {
          "indexed": false,
          "internalType": "uint256",
          "name": "fecha_registro",
          "type": "uint256"
        }
      ],
      "name": "VacunaActualizada",
      "type": "event"
    },
    {
      "anonymous": false,
      "inputs": [
        {
          "indexed": false,
          "internalType": "uint256",
          "name": "id",
          "type": "uint256"
        }
      ],
      "name": "VacunaEliminada",
      "type": "event"
    },
    {
      "anonymous": false,
      "inputs": [
        {
          "indexed": false,
          "internalType": "uint256",
          "name": "id",
          "type": "uint256"
        },
        {
          "indexed": false,
          "internalType": "string",
          "name": "tipo_vacuna",
          "type": "string"
        },
        {
          "indexed": false,
          "internalType": "uint256",
          "name": "fecha_registro",
          "type": "uint256"
        }
      ],
      "name": "VacunaRegistrada",
      "type": "event"
    },
    {
      "inputs": [],
      "name": "siguienteVacunaId",
      "outputs": [
        {
          "internalType": "uint256",
          "name": "",
          "type": "uint256"
        }
      ],
      "stateMutability": "view",
      "type": "function",
      "constant": true
    },
    {
      "inputs": [
        {
          "internalType": "uint256",
          "name": "",
          "type": "uint256"
        }
      ],
      "name": "vacunas",
      "outputs": [
        {
          "internalType": "uint256",
          "name": "id",
          "type": "uint256"
        },
        {
          "internalType": "uint256",
          "name": "fecha_registro",
          "type": "uint256"
        },
        {
          "internalType": "string",
          "name": "id_hembra",
          "type": "string"
        },
        {
          "internalType": "string",
          "name": "especie",
          "type": "string"
        },
        {
          "internalType": "string",
          "name": "raza",
          "type": "string"
        },
        {
          "internalType": "uint256",
          "name": "edad",
          "type": "uint256"
        },
        {
          "internalType": "string",
          "name": "tipo_vacuna",
          "type": "string"
        },
        {
          "internalType": "uint256",
          "name": "dosis_administrada",
          "type": "uint256"
        },
        {
          "internalType": "uint256",
          "name": "fecha_proxima_dosis",
          "type": "uint256"
        },
        {
          "internalType": "string",
          "name": "veterinario",
          "type": "string"
        },
        {
          "internalType": "string",
          "name": "observaciones",
          "type": "string"
        },
        {
          "internalType": "uint256",
          "name": "id_animal",
          "type": "uint256"
        },
        {
          "internalType": "bool",
          "name": "activa",
          "type": "bool"
        }
      ],
      "stateMutability": "view",
      "type": "function",
      "constant": true
    },
    {
      "inputs": [
        {
          "internalType": "string",
          "name": "_id_hembra",
          "type": "string"
        },
        {
          "internalType": "string",
          "name": "_especie",
          "type": "string"
        },
        {
          "internalType": "string",
          "name": "_raza",
          "type": "string"
        },
        {
          "internalType": "uint256",
          "name": "_edad",
          "type": "uint256"
        },
        {
          "internalType": "string",
          "name": "_tipo_vacuna",
          "type": "string"
        },
        {
          "internalType": "uint256",
          "name": "_dosis_administrada",
          "type": "uint256"
        },
        {
          "internalType": "uint256",
          "name": "_fecha_proxima_dosis",
          "type": "uint256"
        },
        {
          "internalType": "string",
          "name": "_veterinario",
          "type": "string"
        },
        {
          "internalType": "string",
          "name": "_observaciones",
          "type": "string"
        },
        {
          "internalType": "uint256",
          "name": "_id_animal",
          "type": "uint256"
        }
      ],
      "name": "registrarVacuna",
      "outputs": [],
      "stateMutability": "nonpayable",
      "type": "function"
    },
    {
      "inputs": [
        {
          "internalType": "uint256",
          "name": "id",
          "type": "uint256"
        }
      ],
      "name": "obtenerVacuna",
      "outputs": [
        {
          "internalType": "string",
          "name": "id_hembra",
          "type": "string"
        },
        {
          "internalType": "string",
          "name": "especie",
          "type": "string"
        },
        {
          "internalType": "string",
          "name": "raza",
          "type": "string"
        },
        {
          "internalType": "uint256",
          "name": "edad",
          "type": "uint256"
        },
        {
          "internalType": "string",
          "name": "tipo_vacuna",
          "type": "string"
        },
        {
          "internalType": "uint256",
          "name": "dosis_administrada",
          "type": "uint256"
        },
        {
          "internalType": "uint256",
          "name": "fecha_proxima_dosis",
          "type": "uint256"
        },
        {
          "internalType": "string",
          "name": "veterinario",
          "type": "string"
        },
        {
          "internalType": "string",
          "name": "observaciones",
          "type": "string"
        },
        {
          "internalType": "uint256",
          "name": "id_animal",
          "type": "uint256"
        },
        {
          "internalType": "bool",
          "name": "activa",
          "type": "bool"
        }
      ],
      "stateMutability": "view",
      "type": "function",
      "constant": true
    },
    {
      "inputs": [],
      "name": "listarVacunas",
      "outputs": [
        {
          "components": [
            {
              "internalType": "uint256",
              "name": "id",
              "type": "uint256"
            },
            {
              "internalType": "uint256",
              "name": "fecha_registro",
              "type": "uint256"
            },
            {
              "internalType": "string",
              "name": "id_hembra",
              "type": "string"
            },
            {
              "internalType": "string",
              "name": "especie",
              "type": "string"
            },
            {
              "internalType": "string",
              "name": "raza",
              "type": "string"
            },
            {
              "internalType": "uint256",
              "name": "edad",
              "type": "uint256"
            },
            {
              "internalType": "string",
              "name": "tipo_vacuna",
              "type": "string"
            },
            {
              "internalType": "uint256",
              "name": "dosis_administrada",
              "type": "uint256"
            },
            {
              "internalType": "uint256",
              "name": "fecha_proxima_dosis",
              "type": "uint256"
            },
            {
              "internalType": "string",
              "name": "veterinario",
              "type": "string"
            },
            {
              "internalType": "string",
              "name": "observaciones",
              "type": "string"
            },
            {
              "internalType": "uint256",
              "name": "id_animal",
              "type": "uint256"
            },
            {
              "internalType": "bool",
              "name": "activa",
              "type": "bool"
            }
          ],
          "internalType": "struct VacunaContract.Vacuna[]",
          "name": "",
          "type": "tuple[]"
        }
      ],
      "stateMutability": "view",
      "type": "function",
      "constant": true
    },
    {
      "inputs": [
        {
          "internalType": "uint256",
          "name": "idAnimal",
          "type": "uint256"
        }
      ],
      "name": "listarVacunasPorAnimal",
      "outputs": [
        {
          "components": [
            {
              "internalType": "uint256",
              "name": "id",
              "type": "uint256"
            },
            {
              "internalType": "uint256",
              "name": "fecha_registro",
              "type": "uint256"
            },
            {
              "internalType": "string",
              "name": "id_hembra",
              "type": "string"
            },
            {
              "internalType": "string",
              "name": "especie",
              "type": "string"
            },
            {
              "internalType": "string",
              "name": "raza",
              "type": "string"
            },
            {
              "internalType": "uint256",
              "name": "edad",
              "type": "uint256"
            },
            {
              "internalType": "string",
              "name": "tipo_vacuna",
              "type": "string"
            },
            {
              "internalType": "uint256",
              "name": "dosis_administrada",
              "type": "uint256"
            },
            {
              "internalType": "uint256",
              "name": "fecha_proxima_dosis",
              "type": "uint256"
            },
            {
              "internalType": "string",
              "name": "veterinario",
              "type": "string"
            },
            {
              "internalType": "string",
              "name": "observaciones",
              "type": "string"
            },
            {
              "internalType": "uint256",
              "name": "id_animal",
              "type": "uint256"
            },
            {
              "internalType": "bool",
              "name": "activa",
              "type": "bool"
            }
          ],
          "internalType": "struct VacunaContract.Vacuna[]",
          "name": "",
          "type": "tuple[]"
        }
      ],
      "stateMutability": "view",
      "type": "function",
      "constant": true
    },
    {
      "inputs": [
        {
          "internalType": "uint256",
          "name": "id",
          "type": "uint256"
        },
        {
          "internalType": "string",
          "name": "_id_hembra",
          "type": "string"
        },
        {
          "internalType": "string",
          "name": "_especie",
          "type": "string"
        },
        {
          "internalType": "string",
          "name": "_raza",
          "type": "string"
        },
        {
          "internalType": "uint256",
          "name": "_edad",
          "type": "uint256"
        },
        {
          "internalType": "string",
          "name": "_tipo_vacuna",
          "type": "string"
        },
        {
          "internalType": "uint256",
          "name": "_dosis_administrada",
          "type": "uint256"
        },
        {
          "internalType": "uint256",
          "name": "_fecha_proxima_dosis",
          "type": "uint256"
        },
        {
          "internalType": "string",
          "name": "_veterinario",
          "type": "string"
        },
        {
          "internalType": "string",
          "name": "_observaciones",
          "type": "string"
        }
      ],
      "name": "actualizarVacuna",
      "outputs": [],
      "stateMutability": "nonpayable",
      "type": "function"
    },
    {
      "inputs": [
        {
          "internalType": "uint256",
          "name": "id",
          "type": "uint256"
        }
      ],
      "name": "eliminarVacuna",
      "outputs": [],
      "stateMutability": "nonpayable",
      "type": "function"
    }
  ],
  "bytecode": "0x6080806040523461001a5760018055611c6390816100208239f35b600080fdfe6080604052600436101561001257600080fd5b60003560e01c80631691090b146116a75780631ba27d221461164257806328b3350114610e2a5780632bca5b7a14610c9c578063a3d53dd214610ad6578063a5330f89146101c6578063d9ca8f59146100975763fe8e33251461007457600080fd5b34610092576000366003190112610092576020600154604051908152f35b600080fd5b346100925760203660031901126100925760043560015481106100b990611afd565b600052600060205260406000206005810154600782015490600883015492600b81015491600c82015460ff1691600281016100f390611851565b9461010060038301611851565b9661010d60048401611851565b9361011a60068501611851565b9061012760098601611851565b94600a0161013490611851565b956040519a8b9a610160808d528c0161014c916118f7565b8b810360208d015261015d916118f7565b8a810360408c015261016e916118f7565b9060608a015288810360808a0152610185916118f7565b9160a088015260c087015285810360e08701526101a1916118f7565b8481036101008601526101b3916118f7565b9161012084015215156101408301520390f35b3461009257610140366003190112610092576004356001600160401b038111610092576101f7903690600401611937565b6024356001600160401b03811161009257610216903690600401611937565b6044356001600160401b03811161009257610235903690600401611937565b6084356001600160401b03811161009257610254903690600401611937565b9060e4356001600160401b03811161009257610274903690600401611937565b610104356001600160401b03811161009257610294903690600401611937565b91600154946102a286611ab6565b600155604051966102b288611814565b86885242602089015260408801526060870152608086015260643560a08601528260c086015260a43560e086015260c435610100860152610120850152610140840152610124356101608401526001610180840152816000526000602052604060002092805184556020810151600185015560408101518051906001600160401b0382116106ba57819061034960028801546117da565b601f8111610a83575b50602090601f8311600114610a1157600092610a06575b50508160011b916000199060031b1c19161760028501555b60608101518051906001600160401b0382116106ba5781906103a660038801546117da565b601f81116109b3575b50602090601f831160011461094157600092610936575b50508160011b916000199060031b1c19161760038501555b60808101518051906001600160401b0382116106ba57819061040360048801546117da565b601f81116108e3575b50602090601f831160011461087157600092610866575b50508160011b916000199060031b1c19161760048501555b60a0810151600585015560c08101518051906001600160401b0382116106ba57819061046a60068801546117da565b601f8111610813575b50602090601f83116001146107a65760009261079b575b50508160011b916000199060031b1c19161760068501555b60e0810151600785015561010081015160088501556101208101518051906001600160401b0382116106ba5781906104dd60098801546117da565b601f8111610748575b50602090601f83116001146106db576000926106d0575b50508160011b916000199060031b1c19161760098501555b6101408101518051906001600160401b0382116106ba57610539600a8701546117da565b601f811161066f575b50602090601f83116001146105da57958261018093600c937f1c94cef274b4dff56ff0932fcc99f7b53e86c416b2e7274f6504578bf143054c996000926105cf575b50508160011b916000199060031b1c191617600a8201555b610160840151600b82015501910151151560ff801983541691161790556105ca604051928392429184611adb565b0390a1005b015190508980610584565b90601f19831691600a880160005260206000209260005b818110610657575093600c937f1c94cef274b4dff56ff0932fcc99f7b53e86c416b2e7274f6504578bf143054c999360019383610180981061063e575b505050811b01600a82015561059c565b015160001960f88460031b161c1916905589808061062e565b929360206001819287860151815501950193016105f1565b600a87016000526020600020601f840160051c810191602085106106b0575b601f0160051c01905b8181106106a45750610542565b60008155600101610697565b909150819061068e565b634e487b7160e01b600052604160045260246000fd5b0151905086806104fd565b600988016000908152602081209350601f198516905b8181106107305750908460019594939210610717575b505050811b016009850155610515565b015160001960f88460031b161c19169055868080610707565b929360206001819287860151815501950193016106f1565b909150600987016000526020600020601f840160051c810160208510610794575b90849392915b601f830160051c820181106107855750506104e6565b6000815585945060010161076f565b5080610769565b01519050868061048a565b600688016000908152602081209350601f198516905b8181106107fb57509084600195949392106107e2575b505050811b0160068501556104a2565b015160001960f88460031b161c191690558680806107d2565b929360206001819287860151815501950193016107bc565b909150600687016000526020600020601f840160051c81016020851061085f575b90849392915b601f830160051c82018110610850575050610473565b6000815585945060010161083a565b5080610834565b015190508680610423565b9250600487016000526020600020906000935b601f19841685106108c8576001945083601f198116106108af575b505050811b01600485015561043b565b015160001960f88460031b161c1916905586808061089f565b81810151835560209485019460019093019290910190610884565b909150600487016000526020600020601f840160051c81016020851061092f575b90849392915b601f830160051c8201811061092057505061040c565b6000815585945060010161090a565b5080610904565b0151905086806103c6565b9250600387016000526020600020906000935b601f1984168510610998576001945083601f1981161061097f575b505050811b0160038501556103de565b015160001960f88460031b161c1916905586808061096f565b81810151835560209485019460019093019290910190610954565b909150600387016000526020600020601f840160051c8101602085106109ff575b90849392915b601f830160051c820181106109f05750506103af565b600081558594506001016109da565b50806109d4565b015190508680610369565b9250600287016000526020600020906000935b601f1984168510610a68576001945083601f19811610610a4f575b505050811b016002850155610381565b015160001960f88460031b161c19169055868080610a3f565b81810151835560209485019460019093019290910190610a24565b909150600287016000526020600020601f840160051c810160208510610acf575b90849392915b601f830160051c82018110610ac0575050610352565b60008155859450600101610aaa565b5080610aa4565b346100925760208060031936011261009257600435906000906001918254925b838110610c495750610b0790611b58565b9260009060015b848110610b275760405180610b23888261198d565b0390f35b80600052600084526040600020600b8101549083821480610c3b575b610b58575b5050610b5390611ab6565b610b0e565b93610c339160ff600c610b53959760405193610b7385611814565b8154855260018201548b860152610b8c60028301611851565b6040860152610b9d60038301611851565b6060860152610bae60048301611851565b6080860152600582015460a0860152610bc960068301611851565b60c0860152600782015460e08601526008820154610100860152610bef60098301611851565b610120860152610c01600a8301611851565b6101408601526101608501520154161515610180820152610c22828a611c03565b52610c2d8189611c03565b50611ab6565b929087610b48565b5060ff600c82015416610b43565b8060005260008352604060002085600b820154149081610c8d575b50610c78575b610c7390611ab6565b610af6565b90610c85610c7391611ab6565b919050610c6a565b60ff9150600c01541686610c64565b346100925760003660031901126100925760006001908154915b828110610ded5750610cc790611b58565b90600060015b828110610ce25760405180610b23868261198d565b80600052602060008152604060002060ff600c820154169081610d11575b505050610d0c90611ab6565b610ccd565b91610d0c939491600b610de49460405193610d2b85611814565b81548552600182015490850152610d4460028201611851565b6040850152610d5560038201611851565b6060850152610d6660048201611851565b6080850152600581015460a0850152610d8160068201611851565b60c0850152600781015460e08501526008810154610100850152610da760098201611851565b610120850152610db9600a8201611851565b61014085015201546101608301521515610180820152610dd98288611c03565b52610c2d8187611c03565b91908580610d00565b80600052600060205260ff600c6040600020015416610e15575b610e1090611ab6565b610cb6565b90610e22610e1091611ab6565b919050610e07565b3461009257610140366003190112610092576024356001600160401b03811161009257610e5b903690600401611937565b6044356001600160401b03811161009257610e7a903690600401611937565b906064356001600160401b03811161009257610e9a903690600401611937565b9160a4356001600160401b03811161009257610eba903690600401611937565b91610104356001600160401b03811161009257610edb903690600401611937565b93610124356001600160401b03811161009257610efc903690600401611937565b92610f0c60015460043510611afd565b60043560005260006020526040600020928051906001600160401b0382116106ba578190610f3d60028701546117da565b601f81116115ef575b50602090601f831160011461157d57600092611572575b50508160011b916000199060031b1c19161760028401555b8051906001600160401b0382116106ba578190610f9560038601546117da565b601f811161151f575b50602090601f83116001146114b2576000926114a7575b50508160011b916000199060031b1c19161760038301555b8051906001600160401b0382116106ba578190610fed60048501546117da565b601f8111611454575b50602090601f83116001146113e7576000926113dc575b50508160011b916000199060031b1c19161760048201555b608435600582015582516001600160401b0381116106ba5761104a60068301546117da565b601f8111611395575b50806020601f82116001146113285760009161131d575b508160011b916000199060031b1c19161760068201555b60c435600782015560e435600882015583516001600160401b0381116106ba576110ae60098301546117da565b601f81116112d6575b506020601f8211600114611265578190600a94959660009261125a575b50508160011b916000199060031b1c19161760098201555b01908051906001600160401b0382116106ba5761110983546117da565b601f8111611212575b50602090601f83116001146111845791806105ca94927fb979252398aa6eefb3c7031f14eb8596d201b7c521178598a3d550096fadbda09694600092611179575b50508160011b916000199060031b1c19161790555b604051918291429060043584611adb565b015190508680611153565b90601f198316918460005260206000209260005b8181106111fa57509260019285927fb979252398aa6eefb3c7031f14eb8596d201b7c521178598a3d550096fadbda098966105ca9896106111e1575b505050811b019055611168565b015160001960f88460031b161c191690558680806111d4565b92936020600181928786015181550195019301611198565b836000526020600020601f840160051c81019160208510611250575b601f0160051c01905b8181106112445750611112565b60008155600101611237565b909150819061122e565b0151905086806110d4565b601f198216956009840160005260206000209660005b8181106112be575091600a959697918460019594106112a5575b505050811b0160098201556110ec565b015160001960f88460031b161c19169055868080611295565b8383015189556001909801976020938401930161127b565b600983016000526020600020601f830160051c810160208410611316575b601f830160051c8201811061130a5750506110b7565b600081556001016112f4565b50806112f4565b90508401518661106a565b91506006830160005260206000206000925b601f198316841061137d576001935082601f19811610611364575b5050811b016006820155611081565b86015160001960f88460031b161c191690558680611355565b8681015182556020938401936001909201910161133a565b600683016000526020600020601f830160051c8101602084106113d5575b601f830160051c820181106113c9575050611053565b600081556001016113b3565b50806113b3565b01519050868061100d565b600485016000908152602081209350601f198516905b81811061143c5750908460019594939210611423575b505050811b016004820155611025565b015160001960f88460031b161c19169055868080611413565b929360206001819287860151815501950193016113fd565b909150600484016000526020600020601f840160051c8101602085106114a0575b90849392915b601f830160051c82018110611491575050610ff6565b6000815585945060010161147b565b5080611475565b015190508780610fb5565b600386016000908152602081209350601f198516905b81811061150757509084600195949392106114ee575b505050811b016003830155610fcd565b015160001960f88460031b161c191690558780806114de565b929360206001819287860151815501950193016114c8565b909150600385016000526020600020601f840160051c81016020851061156b575b90849392915b601f830160051c8201811061155c575050610f9e565b60008155859450600101611546565b5080611540565b015190508880610f5d565b9250600286016000526020600020906000935b601f19841685106115d4576001945083601f198116106115bb575b505050811b016002840155610f75565b015160001960f88460031b161c191690558880806115ab565b81810151835560209485019460019093019290910190611590565b909150600286016000526020600020601f840160051c81016020851061163b575b90849392915b601f830160051c8201811061162c575050610f46565b60008155859450600101611616565b5080611610565b34610092576020366003190112610092577f9e8519caa4bd9eb405f55a575ed84a858cb63749b66989e5024f90761cb6433160206004356116866001548210611afd565b8060005260008252600c60406000200160ff198154169055604051908152a1005b3461009257602036600319011261009257600435600052600060205260406000208054600182015491600281016116dd90611851565b6116e960038301611851565b6116f560048401611851565b600584015461170660068601611851565b906007860154916008870154916009880161172090611851565b9461172d600a8a01611851565b96600b8a015499600c015460ff16986040519c8d9c8d5260208d01528b6101a06040819201528c0161175e916118f7565b8b810360608d015261176f916118f7565b8a810360808c0152611780916118f7565b9060a08a015288810360c08a0152611797916118f7565b9160e08801526101008701528581036101208701526117b5916118f7565b8481036101408601526117c7916118f7565b9161016084015215156101808301520390f35b90600182811c9216801561180a575b60208310146117f457565b634e487b7160e01b600052602260045260246000fd5b91607f16916117e9565b6101a081019081106001600160401b038211176106ba57604052565b90601f801991011681019081106001600160401b038211176106ba57604052565b9060405191826000825492611865846117da565b9081845260019485811690816000146118d45750600114611891575b505061188f92500383611830565b565b9093915060005260209081600020936000915b8183106118bc57505061188f93508201013880611881565b855488840185015294850194879450918301916118a4565b91505061188f94506020925060ff191682840152151560051b8201013880611881565b919082519283825260005b848110611923575050826000602080949584010152601f8019910116010190565b602081830181015184830182015201611902565b81601f82011215610092578035906001600160401b0382116106ba576040519261196b601f8401601f191660200185611830565b8284526020838301011161009257816000926020809301838601378301015290565b602080820190808352835180925260409283810182858560051b8401019601946000925b8584106119c2575050505050505090565b909192939495968580600192603f198582030187528a5190815181528282015183820152611a8d611a79611a50611a33611a20611a0d8c8801518d6101a080918a01528801906118f7565b60608089015190888303908901526118f7565b60808088015190878303908801526118f7565b60a0808701519086015260c08087015190868303908701526118f7565b60e0808601519085015261010080860151908501526101208086015190858303908601526118f7565b6101408085015190848303908501526118f7565b9161016080820151908301526101808091015115159101529901940194019295949391906119b1565b6000198114611ac55760010190565b634e487b7160e01b600052601160045260246000fd5b939291611af89060409286526060602087015260608601906118f7565b930152565b15611b0457565b60405162461bcd60e51b81526020600482015260156024820152742b30b1bab7309037379032b731b7b73a3930b2309760591b6044820152606490fd5b6001600160401b0381116106ba5760051b60200190565b90611b6282611b41565b604090611b7182519182611830565b8381528093611b82601f1991611b41565b019160005b838110611b945750505050565b6020908251611ba281611814565b6000815282600081830152606080868401528080840152806080840152600060a08401528060c0840152600060e084015260006101008401528061012084015261014083015260006101608301526000610180830152828601015201611b87565b8051821015611c175760209160051b010190565b634e487b7160e01b600052603260045260246000fdfea2646970667358221220fad7fcb60a33e0778b7f77b0a09749f0fa26e4df59e162e89d3d27bdae27465d64736f6c63430008120033",
  "immutableReferences": {},
  "source": "// SPDX-License-Identifier: MIT\r\npragma solidity ^0.8.0;\r\n\r\ncontract VacunaContract {\r\n    struct Vacuna {\r\n        uint id;\r\n        uint fecha_registro;\r\n        string id_hembra;\r\n        string especie;\r\n        string raza;\r\n        uint edad;\r\n        string tipo_vacuna;\r\n        uint dosis_administrada;\r\n        uint fecha_proxima_dosis;\r\n        string veterinario;\r\n        string observaciones;\r\n        uint id_animal;\r\n        bool activa; //  Nueva propiedad para marcar la vacuna como activa/inactiva\r\n    }\r\n\r\n    mapping(uint => Vacuna) public vacunas;\r\n    uint public siguienteVacunaId = 1;\r\n    \r\n    event VacunaRegistrada(uint id, string tipo_vacuna, uint fecha_registro);\r\n    event VacunaActualizada(uint id, string tipo_vacuna, uint fecha_registro);\r\n    event VacunaEliminada(uint id);\r\n\r\n    //  Registrar una nueva vacuna\r\n    function registrarVacuna(\r\n        string memory _id_hembra,\r\n        string memory _especie,\r\n        string memory _raza,\r\n        uint _edad,\r\n        string memory _tipo_vacuna,\r\n        uint _dosis_administrada,\r\n        uint _fecha_proxima_dosis,\r\n        string memory _veterinario,\r\n        string memory _observaciones,\r\n        uint _id_animal\r\n    ) public {\r\n        uint id = siguienteVacunaId++;\r\n        vacunas[id] = Vacuna(\r\n            id, block.timestamp, _id_hembra, _especie, _raza, _edad,\r\n            _tipo_vacuna, _dosis_administrada, _fecha_proxima_dosis, \r\n            _veterinario, _observaciones, _id_animal, true\r\n        );\r\n\r\n        emit VacunaRegistrada(id, _tipo_vacuna, block.timestamp);\r\n    }\r\n\r\n    //  Obtener una vacuna por ID\r\n    function obtenerVacuna(uint id) public view returns (\r\n        string memory id_hembra,\r\n        string memory especie,\r\n        string memory raza,\r\n        uint edad,\r\n        string memory tipo_vacuna,\r\n        uint dosis_administrada,\r\n        uint fecha_proxima_dosis,\r\n        string memory veterinario,\r\n        string memory observaciones,\r\n        uint id_animal,\r\n        bool activa\r\n    ) {\r\n        require(id < siguienteVacunaId, \"Vacuna no encontrada.\");\r\n        Vacuna storage v = vacunas[id];\r\n        return (\r\n            v.id_hembra, v.especie, v.raza, v.edad, v.tipo_vacuna, \r\n            v.dosis_administrada, v.fecha_proxima_dosis, \r\n            v.veterinario, v.observaciones, v.id_animal, v.activa\r\n        );\r\n    }\r\n\r\n    //  Listar todas las vacunas activas\r\n    function listarVacunas() public view returns (Vacuna[] memory) {\r\n        uint totalActivas = 0;\r\n\r\n        // Contamos cuntas vacunas estn activas\r\n        for (uint i = 1; i < siguienteVacunaId; i++) {\r\n            if (vacunas[i].activa) {\r\n                totalActivas++;\r\n            }\r\n        }\r\n\r\n        // Creamos un array con solo las vacunas activas\r\n        Vacuna[] memory lista = new Vacuna[](totalActivas);\r\n        uint index = 0;\r\n        for (uint i = 1; i < siguienteVacunaId; i++) {\r\n            if (vacunas[i].activa) {\r\n                lista[index] = vacunas[i];\r\n                index++;\r\n            }\r\n        }\r\n\r\n        return lista;\r\n    }\r\n\r\n    //  Listar todas las vacunas aplicadas a un animal\r\n    function listarVacunasPorAnimal(uint idAnimal) public view returns (Vacuna[] memory) {\r\n        uint totalVacunas = 0;\r\n\r\n        // Contamos cuntas vacunas tiene el animal\r\n        for (uint i = 1; i < siguienteVacunaId; i++) {\r\n            if (vacunas[i].id_animal == idAnimal && vacunas[i].activa) {\r\n                totalVacunas++;\r\n            }\r\n        }\r\n\r\n        // Creamos un array con solo las vacunas de ese animal\r\n        Vacuna[] memory lista = new Vacuna[](totalVacunas);\r\n        uint index = 0;\r\n        for (uint i = 1; i < siguienteVacunaId; i++) {\r\n            if (vacunas[i].id_animal == idAnimal && vacunas[i].activa) {\r\n                lista[index] = vacunas[i];\r\n                index++;\r\n            }\r\n        }\r\n\r\n        return lista;\r\n    }\r\n\r\n    //  Actualizar una vacuna existente\r\n    function actualizarVacuna(\r\n        uint id,\r\n        string memory _id_hembra,\r\n        string memory _especie,\r\n        string memory _raza,\r\n        uint _edad,\r\n        string memory _tipo_vacuna,\r\n        uint _dosis_administrada,\r\n        uint _fecha_proxima_dosis,\r\n        string memory _veterinario,\r\n        string memory _observaciones\r\n    ) public {\r\n        require(id < siguienteVacunaId, \"Vacuna no encontrada.\");\r\n        Vacuna storage v = vacunas[id];\r\n\r\n        v.id_hembra = _id_hembra;\r\n        v.especie = _especie;\r\n        v.raza = _raza;\r\n        v.edad = _edad;\r\n        v.tipo_vacuna = _tipo_vacuna;\r\n        v.dosis_administrada = _dosis_administrada;\r\n        v.fecha_proxima_dosis = _fecha_proxima_dosis;\r\n        v.veterinario = _veterinario;\r\n        v.observaciones = _observaciones;\r\n\r\n        emit VacunaActualizada(id, _tipo_vacuna, block.timestamp);\r\n    }\r\n\r\n    //  Eliminar (desactivar) una vacuna\r\n    function eliminarVacuna(uint id) public {\r\n        require(id < siguienteVacunaId, \"Vacuna no encontrada.\");\r\n        vacunas[id].activa = false;\r\n\r\n        emit VacunaEliminada(id);\r\n    }\r\n}\r\n",
  "sourcePath": "C:\\Users\\Raul\\Projects - Development (Code)\\Chainventory\\Chainventory\\truffle\\contracts\\VacunaContract.sol",
  "compiler": {
    "name": "solc",
    "version": "0.8.18+commit.87f61d96.Emscripten.clang"
  },
  "schemaVersion": "3.4.16",
  "updatedAt": "2025-05-23T12:40:17.304Z",
  "networkType": "ethereum",
  "devdoc": {
    "kind": "dev",
    "methods": {},
    "version": 1
  },
  "userdoc": {
    "kind": "user",
    "methods": {},
    "version": 1
  }
}