{
  "contractName": "VacunaContract",
  "abi": [
    {
      "anonymous": false,
      "inputs": [
        {
          "indexed": false,
          "internalType": "uint256",
          "name": "id",
          "type": "uint256"
        },
        {
          "indexed": false,
          "internalType": "string",
          "name": "tipo_vacuna",
          "type": "string"
        },
        {
          "indexed": false,
          "internalType": "uint256",
          "name": "fecha_registro",
          "type": "uint256"
        }
      ],
      "name": "VacunaRegistrada",
      "type": "event"
    },
    {
      "inputs": [],
      "name": "siguienteVacunaId",
      "outputs": [
        {
          "internalType": "uint256",
          "name": "",
          "type": "uint256"
        }
      ],
      "stateMutability": "view",
      "type": "function",
      "constant": true
    },
    {
      "inputs": [
        {
          "internalType": "uint256",
          "name": "",
          "type": "uint256"
        }
      ],
      "name": "vacunas",
      "outputs": [
        {
          "internalType": "uint256",
          "name": "id",
          "type": "uint256"
        },
        {
          "internalType": "uint256",
          "name": "fecha_registro",
          "type": "uint256"
        },
        {
          "internalType": "string",
          "name": "id_hembra",
          "type": "string"
        },
        {
          "internalType": "string",
          "name": "especie",
          "type": "string"
        },
        {
          "internalType": "string",
          "name": "raza",
          "type": "string"
        },
        {
          "internalType": "uint256",
          "name": "edad",
          "type": "uint256"
        },
        {
          "internalType": "string",
          "name": "tipo_vacuna",
          "type": "string"
        },
        {
          "internalType": "uint256",
          "name": "dosis_administrada",
          "type": "uint256"
        },
        {
          "internalType": "uint256",
          "name": "fecha_proxima_dosis",
          "type": "uint256"
        },
        {
          "internalType": "string",
          "name": "veterinario",
          "type": "string"
        },
        {
          "internalType": "string",
          "name": "observaciones",
          "type": "string"
        },
        {
          "internalType": "uint256",
          "name": "id_animal",
          "type": "uint256"
        }
      ],
      "stateMutability": "view",
      "type": "function",
      "constant": true
    },
    {
      "inputs": [
        {
          "internalType": "string",
          "name": "_id_hembra",
          "type": "string"
        },
        {
          "internalType": "string",
          "name": "_especie",
          "type": "string"
        },
        {
          "internalType": "string",
          "name": "_raza",
          "type": "string"
        },
        {
          "internalType": "uint256",
          "name": "_edad",
          "type": "uint256"
        },
        {
          "internalType": "string",
          "name": "_tipo_vacuna",
          "type": "string"
        },
        {
          "internalType": "uint256",
          "name": "_dosis_administrada",
          "type": "uint256"
        },
        {
          "internalType": "uint256",
          "name": "_fecha_proxima_dosis",
          "type": "uint256"
        },
        {
          "internalType": "string",
          "name": "_veterinario",
          "type": "string"
        },
        {
          "internalType": "string",
          "name": "_observaciones",
          "type": "string"
        },
        {
          "internalType": "uint256",
          "name": "_id_animal",
          "type": "uint256"
        }
      ],
      "name": "registrarVacuna",
      "outputs": [],
      "stateMutability": "nonpayable",
      "type": "function"
    }
  ],
  "bytecode": "0x6080806040523461001a5760018055610c8f90816100208239f35b600080fdfe6080604052600436101561001257600080fd5b60003560e01c80631691090b146109a0578063a5330f89146100605763fe8e33251461003d57600080fd5b3461005b57600036600319011261005b576020600154604051908152f35b600080fd5b3461005b5761014036600319011261005b576004356001600160401b03811161005b57610091903690600401610c03565b6024356001600160401b03811161005b576100b0903690600401610c03565b6044356001600160401b03811161005b576100cf903690600401610c03565b906084356001600160401b03811161005b576100ef903690600401610c03565b9160e4356001600160401b03811161005b5761010f903690600401610c03565b610104356001600160401b03811161005b5761012f903690600401610c03565b9160015493600019851461098a576001850160015560405196876101808101106001600160401b036101808a01111761056457610180880160405285885242602089015260408801526060870152608086015260643560a08601528360c086015260a43560e086015260c435610100860152610120850152610140840152610124356101608401528060005260006020526040600020835181556020840151600182015560408401518051906001600160401b0382116105645781906101f86002850154610ac2565b601f8111610937575b50602090601f83116001146108c5576000926108ba575b50508160011b916000199060031b1c19161760028201555b60608401518051906001600160401b0382116105645781906102556003850154610ac2565b601f8111610867575b50602090601f83116001146107f5576000926107ea575b50508160011b916000199060031b1c19161760038201555b60808401518051906001600160401b0382116105645781906102b26004850154610ac2565b601f8111610797575b50602090601f83116001146107255760009261071a575b50508160011b916000199060031b1c19161760048201555b60a0840151600582015560c08401518051906001600160401b0382116105645781906103196006850154610ac2565b601f81116106c7575b50602090601f83116001146106555760009261064a575b50508160011b916000199060031b1c19161760068201555b60e0840151600782015561010084015160088201556101208401518051906001600160401b03821161056457819061038c6009850154610ac2565b601f81116105f7575b50602090601f83116001146105855760009261057a575b50508160011b916000199060031b1c19161760098201555b6101408401518051906001600160401b038211610564576103e8600a840154610ac2565b601f8111610519575b50602090601f8311600114610482579582600b93610160937f1c94cef274b4dff56ff0932fcc99f7b53e86c416b2e7274f6504578bf143054c99600092610477575b50508160011b916000199060031b1c191617600a8501555b015191015561046c6040519283928352606060208401526060830190610bc3565b4260408301520390a1005b015190508980610433565b90600a840160005260206000209160005b601f1985168110610501575083610160937f1c94cef274b4dff56ff0932fcc99f7b53e86c416b2e7274f6504578bf143054c9993600193600b97601f198116106104e8575b505050811b01600a85015561044b565b015160001960f88460031b161c191690558980806104d8565b91926020600181928685015181550194019201610493565b600a84016000526020600020601f840160051c8101916020851061055a575b601f0160051c01905b81811061054e57506103f1565b60008155600101610541565b9091508190610538565b634e487b7160e01b600052604160045260246000fd5b0151905086806103ac565b9250600984016000526020600020906000935b601f19841685106105dc576001945083601f198116106105c3575b505050811b0160098201556103c4565b015160001960f88460031b161c191690558680806105b3565b81810151835560209485019460019093019290910190610598565b909150600984016000526020600020601f840160051c810160208510610643575b90849392915b601f830160051c82018110610634575050610395565b6000815585945060010161061e565b5080610618565b015190508680610339565b9250600684016000526020600020906000935b601f19841685106106ac576001945083601f19811610610693575b505050811b016006820155610351565b015160001960f88460031b161c19169055868080610683565b81810151835560209485019460019093019290910190610668565b909150600684016000526020600020601f840160051c810160208510610713575b90849392915b601f830160051c82018110610704575050610322565b600081558594506001016106ee565b50806106e8565b0151905086806102d2565b9250600484016000526020600020906000935b601f198416851061077c576001945083601f19811610610763575b505050811b0160048201556102ea565b015160001960f88460031b161c19169055868080610753565b81810151835560209485019460019093019290910190610738565b909150600484016000526020600020601f840160051c8101602085106107e3575b90849392915b601f830160051c820181106107d45750506102bb565b600081558594506001016107be565b50806107b8565b015190508680610275565b9250600384016000526020600020906000935b601f198416851061084c576001945083601f19811610610833575b505050811b01600382015561028d565b015160001960f88460031b161c19169055868080610823565b81810151835560209485019460019093019290910190610808565b909150600384016000526020600020601f840160051c8101602085106108b3575b90849392915b601f830160051c820181106108a457505061025e565b6000815585945060010161088e565b5080610888565b015190508680610218565b9250600284016000526020600020906000935b601f198416851061091c576001945083601f19811610610903575b505050811b016002820155610230565b015160001960f88460031b161c191690558680806108f3565b818101518355602094850194600190930192909101906108d8565b909150600284016000526020600020601f840160051c810160208510610983575b90849392915b601f830160051c82018110610974575050610201565b6000815585945060010161095e565b5080610958565b634e487b7160e01b600052601160045260246000fd5b3461005b57602036600319011261005b57600435600052600060205260406000208054600182015491600281016109d690610b1d565b906109e360038201610b1d565b6109ef60048301610b1d565b600583015490610a0160068501610b1d565b60078501549260088601549260098701610a1a90610b1d565b95610a27600a8901610b1d565b97600b0154986040519b8c9b8c5260208c01526101808060408d01528b01610a4e91610bc3565b8a810360608c0152610a5f91610bc3565b89810360808b0152610a7091610bc3565b9060a089015287810360c0890152610a8791610bc3565b9160e0870152610100860152848103610120860152610aa591610bc3565b838103610140850152610ab791610bc3565b906101608301520390f35b90600182811c92168015610af2575b6020831014610adc57565b634e487b7160e01b600052602260045260246000fd5b91607f1691610ad1565b90601f801991011681019081106001600160401b0382111761056457604052565b9060405191826000825492610b3184610ac2565b908184526001948581169081600014610ba05750600114610b5d575b5050610b5b92500383610afc565b565b9093915060005260209081600020936000915b818310610b88575050610b5b93508201013880610b4d565b85548884018501529485019487945091830191610b70565b915050610b5b94506020925060ff191682840152151560051b8201013880610b4d565b919082519283825260005b848110610bef575050826000602080949584010152601f8019910116010190565b602081830181015184830182015201610bce565b81601f8201121561005b578035906001600160401b0382116105645760405192610c37601f8401601f191660200185610afc565b8284526020838301011161005b5781600092602080930183860137830101529056fea2646970667358221220fe10d32696f3bc43c9673753fc08d73f301bc67e23956aca516733861676638964736f6c63430008120033",
  "immutableReferences": {},
  "source": "// SPDX-License-Identifier: MIT\r\npragma solidity ^0.8.0;\r\n\r\ncontract VacunaContract {\r\n    struct Vacuna {\r\n        uint id;\r\n        uint fecha_registro;\r\n        string id_hembra;\r\n        string especie;\r\n        string raza;\r\n        uint edad;\r\n        string tipo_vacuna;\r\n        uint dosis_administrada;\r\n        uint fecha_proxima_dosis;\r\n        string veterinario;\r\n        string observaciones;\r\n        uint id_animal;\r\n    }\r\n\r\n    mapping(uint => Vacuna) public vacunas;\r\n    uint public siguienteVacunaId = 1;\r\n\r\n    event VacunaRegistrada(uint id, string tipo_vacuna, uint fecha_registro);\r\n\r\n    function registrarVacuna(\r\n        string memory _id_hembra,\r\n        string memory _especie,\r\n        string memory _raza,\r\n        uint _edad,\r\n        string memory _tipo_vacuna,\r\n        uint _dosis_administrada,\r\n        uint _fecha_proxima_dosis,\r\n        string memory _veterinario,\r\n        string memory _observaciones,\r\n        uint _id_animal\r\n    ) public {\r\n        uint id = siguienteVacunaId++;\r\n        vacunas[id] = Vacuna(\r\n            id, block.timestamp, _id_hembra, _especie, _raza, _edad,\r\n            _tipo_vacuna, _dosis_administrada, _fecha_proxima_dosis, \r\n            _veterinario, _observaciones, _id_animal\r\n        );\r\n\r\n        emit VacunaRegistrada(id, _tipo_vacuna, block.timestamp);\r\n    }\r\n}\r\n",
  "sourcePath": "C:\\Users\\Raul\\Documents\\GitHub\\Chainventory\\Chainventory\\truffle\\contracts\\VacunaContract.sol",
  "compiler": {
    "name": "solc",
    "version": "0.8.18+commit.87f61d96.Emscripten.clang"
  },
  "schemaVersion": "3.4.16",
  "updatedAt": "2025-02-24T19:27:29.067Z",
  "networkType": "ethereum",
  "devdoc": {
    "kind": "dev",
    "methods": {},
    "version": 1
  },
  "userdoc": {
    "kind": "user",
    "methods": {},
    "version": 1
  }
}