{
  "contractName": "VentaContract",
  "abi": [
    {
      "anonymous": false,
      "inputs": [
        {
          "indexed": false,
          "internalType": "uint256",
          "name": "id",
          "type": "uint256"
        },
        {
          "indexed": false,
          "internalType": "string",
          "name": "comprador",
          "type": "string"
        },
        {
          "indexed": false,
          "internalType": "uint256",
          "name": "cantidad",
          "type": "uint256"
        }
      ],
      "name": "VentaActualizada",
      "type": "event"
    },
    {
      "anonymous": false,
      "inputs": [
        {
          "indexed": false,
          "internalType": "uint256",
          "name": "id",
          "type": "uint256"
        }
      ],
      "name": "VentaEliminada",
      "type": "event"
    },
    {
      "anonymous": false,
      "inputs": [
        {
          "indexed": false,
          "internalType": "uint256",
          "name": "id",
          "type": "uint256"
        },
        {
          "indexed": false,
          "internalType": "string",
          "name": "comprador",
          "type": "string"
        },
        {
          "indexed": false,
          "internalType": "uint256",
          "name": "cantidad",
          "type": "uint256"
        },
        {
          "indexed": false,
          "internalType": "uint256",
          "name": "fecha_venta",
          "type": "uint256"
        }
      ],
      "name": "VentaRegistrada",
      "type": "event"
    },
    {
      "inputs": [],
      "name": "siguienteVentaId",
      "outputs": [
        {
          "internalType": "uint256",
          "name": "",
          "type": "uint256"
        }
      ],
      "stateMutability": "view",
      "type": "function",
      "constant": true
    },
    {
      "inputs": [
        {
          "internalType": "uint256",
          "name": "",
          "type": "uint256"
        }
      ],
      "name": "ventas",
      "outputs": [
        {
          "internalType": "uint256",
          "name": "id",
          "type": "uint256"
        },
        {
          "internalType": "string",
          "name": "comprador",
          "type": "string"
        },
        {
          "internalType": "string",
          "name": "propiedad",
          "type": "string"
        },
        {
          "internalType": "uint256",
          "name": "cantidad",
          "type": "uint256"
        },
        {
          "internalType": "string",
          "name": "gma",
          "type": "string"
        },
        {
          "internalType": "string",
          "name": "clase",
          "type": "string"
        },
        {
          "internalType": "uint256",
          "name": "precio_unitario",
          "type": "uint256"
        },
        {
          "internalType": "uint256",
          "name": "total_venta_bs",
          "type": "uint256"
        },
        {
          "internalType": "uint256",
          "name": "total_venta_usd",
          "type": "uint256"
        },
        {
          "internalType": "string",
          "name": "observacion",
          "type": "string"
        },
        {
          "internalType": "uint256",
          "name": "cantidad_dia",
          "type": "uint256"
        },
        {
          "internalType": "uint256",
          "name": "id_animal",
          "type": "uint256"
        },
        {
          "internalType": "uint256",
          "name": "fecha_venta",
          "type": "uint256"
        },
        {
          "internalType": "bool",
          "name": "activa",
          "type": "bool"
        }
      ],
      "stateMutability": "view",
      "type": "function",
      "constant": true
    },
    {
      "inputs": [
        {
          "internalType": "string",
          "name": "_comprador",
          "type": "string"
        },
        {
          "internalType": "string",
          "name": "_propiedad",
          "type": "string"
        },
        {
          "internalType": "uint256",
          "name": "_cantidad",
          "type": "uint256"
        },
        {
          "internalType": "string",
          "name": "_gma",
          "type": "string"
        },
        {
          "internalType": "string",
          "name": "_clase",
          "type": "string"
        },
        {
          "internalType": "uint256",
          "name": "_precio_unitario",
          "type": "uint256"
        },
        {
          "internalType": "uint256",
          "name": "_total_venta_bs",
          "type": "uint256"
        },
        {
          "internalType": "uint256",
          "name": "_total_venta_usd",
          "type": "uint256"
        },
        {
          "internalType": "string",
          "name": "_observacion",
          "type": "string"
        },
        {
          "internalType": "uint256",
          "name": "_cantidad_dia",
          "type": "uint256"
        },
        {
          "internalType": "uint256",
          "name": "_id_animal",
          "type": "uint256"
        }
      ],
      "name": "registrarVenta",
      "outputs": [],
      "stateMutability": "nonpayable",
      "type": "function"
    },
    {
      "inputs": [
        {
          "internalType": "uint256",
          "name": "_id",
          "type": "uint256"
        }
      ],
      "name": "obtenerVenta",
      "outputs": [
        {
          "internalType": "string",
          "name": "",
          "type": "string"
        },
        {
          "internalType": "string",
          "name": "",
          "type": "string"
        },
        {
          "internalType": "uint256",
          "name": "",
          "type": "uint256"
        },
        {
          "internalType": "string",
          "name": "",
          "type": "string"
        },
        {
          "internalType": "string",
          "name": "",
          "type": "string"
        },
        {
          "internalType": "uint256",
          "name": "",
          "type": "uint256"
        },
        {
          "internalType": "uint256",
          "name": "",
          "type": "uint256"
        },
        {
          "internalType": "uint256",
          "name": "",
          "type": "uint256"
        },
        {
          "internalType": "string",
          "name": "",
          "type": "string"
        },
        {
          "internalType": "uint256",
          "name": "",
          "type": "uint256"
        },
        {
          "internalType": "uint256",
          "name": "",
          "type": "uint256"
        },
        {
          "internalType": "uint256",
          "name": "",
          "type": "uint256"
        },
        {
          "internalType": "bool",
          "name": "",
          "type": "bool"
        }
      ],
      "stateMutability": "view",
      "type": "function",
      "constant": true
    },
    {
      "inputs": [],
      "name": "listarVentas",
      "outputs": [
        {
          "components": [
            {
              "internalType": "uint256",
              "name": "id",
              "type": "uint256"
            },
            {
              "internalType": "string",
              "name": "comprador",
              "type": "string"
            },
            {
              "internalType": "string",
              "name": "propiedad",
              "type": "string"
            },
            {
              "internalType": "uint256",
              "name": "cantidad",
              "type": "uint256"
            },
            {
              "internalType": "string",
              "name": "gma",
              "type": "string"
            },
            {
              "internalType": "string",
              "name": "clase",
              "type": "string"
            },
            {
              "internalType": "uint256",
              "name": "precio_unitario",
              "type": "uint256"
            },
            {
              "internalType": "uint256",
              "name": "total_venta_bs",
              "type": "uint256"
            },
            {
              "internalType": "uint256",
              "name": "total_venta_usd",
              "type": "uint256"
            },
            {
              "internalType": "string",
              "name": "observacion",
              "type": "string"
            },
            {
              "internalType": "uint256",
              "name": "cantidad_dia",
              "type": "uint256"
            },
            {
              "internalType": "uint256",
              "name": "id_animal",
              "type": "uint256"
            },
            {
              "internalType": "uint256",
              "name": "fecha_venta",
              "type": "uint256"
            },
            {
              "internalType": "bool",
              "name": "activa",
              "type": "bool"
            }
          ],
          "internalType": "struct VentaContract.Venta[]",
          "name": "",
          "type": "tuple[]"
        }
      ],
      "stateMutability": "view",
      "type": "function",
      "constant": true
    },
    {
      "inputs": [
        {
          "internalType": "uint256",
          "name": "_id",
          "type": "uint256"
        },
        {
          "internalType": "string",
          "name": "_comprador",
          "type": "string"
        },
        {
          "internalType": "string",
          "name": "_propiedad",
          "type": "string"
        },
        {
          "internalType": "uint256",
          "name": "_cantidad",
          "type": "uint256"
        },
        {
          "internalType": "string",
          "name": "_gma",
          "type": "string"
        },
        {
          "internalType": "string",
          "name": "_clase",
          "type": "string"
        },
        {
          "internalType": "uint256",
          "name": "_precio_unitario",
          "type": "uint256"
        },
        {
          "internalType": "uint256",
          "name": "_total_venta_bs",
          "type": "uint256"
        },
        {
          "internalType": "uint256",
          "name": "_total_venta_usd",
          "type": "uint256"
        },
        {
          "internalType": "string",
          "name": "_observacion",
          "type": "string"
        },
        {
          "internalType": "uint256",
          "name": "_cantidad_dia",
          "type": "uint256"
        }
      ],
      "name": "actualizarVenta",
      "outputs": [],
      "stateMutability": "nonpayable",
      "type": "function"
    },
    {
      "inputs": [
        {
          "internalType": "uint256",
          "name": "_id",
          "type": "uint256"
        }
      ],
      "name": "eliminarVenta",
      "outputs": [],
      "stateMutability": "nonpayable",
      "type": "function"
    }
  ],
  "bytecode": "0x6080806040523461001a57600180556119b890816100208239f35b600080fdfe6080604052600436101561001257600080fd5b60003560e01c806311b00674146115be5780631f719ded146113dc5780636b9e5b131461131957806377653a5b14610b28578063b0b3bca8146103db578063b7c502691461008c5763ee4ee1dc1461006957600080fd5b34610087576000366003190112610087576020600154604051908152f35b600080fd5b3461008757600036600319011261008757600060018054905b81811061039e57506100b682611941565b916100c4604051938461173f565b8083526100d3601f1991611941565b0160005b818110610323575050600060015b82811061020e576040805160208082528651818301819052600093600582901b8401810192808a01929185015b82871061011f5785850386f35b909192938280600192603f19898203018552875190815181526101d061019d61018a61016d61015b878701516101c0808a890152870190611806565b60408701518682036040880152611806565b606080870151908601526080808701519086830390870152611806565b60a0808601519085830390860152611806565b60c0808501519084015260e084015160e08401526101008085015190840152610120808501519084830390850152611806565b916101408082015190830152610160808201519083015261018080820151908301526101a08091015115159101529601920196019592919092610112565b80600052602060008152604060002060ff600d82015416908161023d575b5050506102389061189c565b6100e5565b91610238939491600c61031a946040519361025785611723565b8154855261026760018301611760565b9085015261027760028201611760565b60408501526003810154606085015261029260048201611760565b60808501526102a360058201611760565b60a0850152600681015460c0850152600781015460e085015260088101546101008501526102d360098201611760565b610120850152600a810154610140850152600b810154610160850152015461018083015215156101a08201526103098288611958565b526103148187611958565b5061189c565b9190858061022c565b60209060405161033281611723565b600081526060839080828401528060408401526000818401528060808401528060a0840152600060c0840152600060e0840152600061010084015261012083015260006101408301526000610160830152600061018083015260006101a08301528287010152016100d7565b80600052600060205260ff600d60406000200154166103c6575b6103c19061189c565b6100a5565b916103d36103c19161189c565b9290506103b8565b3461008757610160366003190112610087576024356001600160401b0381116100875761040c903690600401611846565b6044356001600160401b0381116100875761042b903690600401611846565b906084356001600160401b0381116100875761044b903690600401611846565b9160a4356001600160401b0381116100875761046b903690600401611846565b92610124356001600160401b0381116100875761048c903690600401611846565b9060043560005260006020526104a860406000205415156118c1565b60043560005260006020526104c760ff600d6040600020015416611903565b600435600052600060205260406000209284516001600160401b0381116107f2576104f560018601546116e9565b601f8111610ae1575b50806020601f8211600114610a7457600091610a69575b508160011b916000199060031b1c19161760018501555b8051906001600160401b0382116107f257819061054c60028701546116e9565b601f8111610a16575b50602090601f83116001146109a457600092610999575b50508160011b916000199060031b1c19161760028401555b60643560038401558051906001600160401b0382116107f25781906105ac60048601546116e9565b601f8111610946575b50602090601f83116001146108d4576000926108c9575b50508160011b916000199060031b1c19161760048301555b83516001600160401b0381116107f25761060160058401546116e9565b601f8111610882575b506020601f8211600114610813578192939495600092610808575b50508160011b916000199060031b1c19161760058301555b60c435600683015560e43560078301556101043560088301558051906001600160401b0382116107f25761067460098401546116e9565b601f81116107a7575b50602090601f83116001146107135791806106fb94927ff593238ac047cee3039fb57dc662420d083b7f0f9715bc3599f499ce12acacdc9694600092610708575b50508160011b916000199060031b1c19161760098201555b600a610144359101556040519182916004358352606060208401526060830190611806565b60643560408301520390a1005b0151905086806106be565b90601f198316916009850160005260206000209260005b81811061078f57509260019285927ff593238ac047cee3039fb57dc662420d083b7f0f9715bc3599f499ce12acacdc98966106fb989610610776575b505050811b0160098201556106d6565b015160001960f88460031b161c19169055868080610766565b9293602060018192878601518155019501930161072a565b600984016000526020600020601f840160051c810191602085106107e8575b601f0160051c01905b8181106107dc575061067d565b600081556001016107cf565b90915081906107c6565b634e487b7160e01b600052604160045260246000fd5b015190508580610625565b6005840160005260206000209060005b601f198416811061086a575060019394959683601f19811610610851575b505050811b01600583015561063d565b015160001960f88460031b161c19169055858080610841565b9091602060018192858b015181550193019101610823565b600584016000526020600020601f830160051c8101602084106108c2575b601f830160051c820181106108b657505061060a565b600081556001016108a0565b50806108a0565b0151905086806105cc565b9250600485016000526020600020906000935b601f198416851061092b576001945083601f19811610610912575b505050811b0160048301556105e4565b015160001960f88460031b161c19169055868080610902565b818101518355602094850194600190930192909101906108e7565b909150600485016000526020600020601f840160051c810160208510610992575b90849392915b601f830160051c820181106109835750506105b5565b6000815585945060010161096d565b5080610967565b01519050878061056c565b9250600286016000526020600020906000935b601f19841685106109fb576001945083601f198116106109e2575b505050811b016002840155610584565b015160001960f88460031b161c191690558780806109d2565b818101518355602094850194600190930192909101906109b7565b909150600286016000526020600020601f840160051c810160208510610a62575b90849392915b601f830160051c82018110610a53575050610555565b60008155859450600101610a3d565b5080610a37565b905086015188610515565b91506001860160005260206000206000925b601f1983168410610ac9576001935082601f19811610610ab0575b5050811b01600185015561052c565b88015160001960f88460031b161c191690558880610aa1565b88810151825560209384019360019092019101610a86565b600186016000526020600020601f830160051c810160208410610b21575b601f830160051c82018110610b155750506104fe565b60008155600101610aff565b5080610aff565b3461008757610160366003190112610087576004356001600160401b03811161008757610b59903690600401611846565b6024356001600160401b03811161008757610b78903690600401611846565b906064356001600160401b03811161008757610b98903690600401611846565b6084356001600160401b03811161008757610bb7903690600401611846565b610104356001600160401b03811161008757610bd7903690600401611846565b9060015492610be58461189c565b60015560405195610bf587611723565b84875285602088015260408701526044356060870152608086015260a085015260a43560c085015260c43560e085015260e43561010085015261012084015261012435610140840152610144356101608401524261018084015260016101a08401528060005260006020526040600020928051845560208101518051906001600160401b0382116107f2578190610c8f60018801546116e9565b601f81116112c6575b50602090601f831160011461125457600092611249575b50508160011b916000199060031b1c19161760018501555b60408101518051906001600160401b0382116107f2578190610cec60028801546116e9565b601f81116111f6575b50602090601f831160011461118457600092611179575b50508160011b916000199060031b1c19161760028501555b6060810151600385015560808101518051906001600160401b0382116107f2578190610d5360048801546116e9565b601f8111611126575b50602090601f83116001146110b4576000926110a9575b50508160011b916000199060031b1c19161760048501555b60a08101518051906001600160401b0382116107f2578190610db060058801546116e9565b601f8111611056575b50602090601f8311600114610fe457600092610fd9575b50508160011b916000199060031b1c19161760058501555b60c0810151600685015560e0810151600785015561010081015160088501556101208101518051906001600160401b0382116107f257610e2b60098701546116e9565b601f8111610f92575b50602090601f8311600114610efb5795826101a093600d937f1bf61f92640ea5cc6fd9069b031fa50a422a8d497c043cbfccdcfaba4db6c4d599600092610ef0575b50508160011b916000199060031b1c19161760098201555b610140840151600a820155610160840151600b820155610180840151600c82015501910151151560ff80198354169116179055610edd6040519283928352608060208401526080830190611806565b60443560408301524260608301520390a1005b015190508980610e76565b906009870160005260206000209160005b601f1985168110610f7a575083600d937f1bf61f92640ea5cc6fd9069b031fa50a422a8d497c043cbfccdcfaba4db6c4d599936001936101a097601f19811610610f61575b505050811b016009820155610e8e565b015160001960f88460031b161c19169055898080610f51565b91926020600181928685015181550194019201610f0c565b600987016000526020600020601f840160051c810160208510610fd2575b601f830160051c82018110610fc6575050610e34565b60008155600101610fb0565b5080610fb0565b015190508680610dd0565b9250600587016000526020600020906000935b601f198416851061103b576001945083601f19811610611022575b505050811b016005850155610de8565b015160001960f88460031b161c19169055868080611012565b81810151835560209485019460019093019290910190610ff7565b909150600587016000526020600020601f840160051c8101602085106110a2575b90849392915b601f830160051c82018110611093575050610db9565b6000815585945060010161107d565b5080611077565b015190508680610d73565b9250600487016000526020600020906000935b601f198416851061110b576001945083601f198116106110f2575b505050811b016004850155610d8b565b015160001960f88460031b161c191690558680806110e2565b818101518355602094850194600190930192909101906110c7565b909150600487016000526020600020601f840160051c810160208510611172575b90849392915b601f830160051c82018110611163575050610d5c565b6000815585945060010161114d565b5080611147565b015190508680610d0c565b9250600287016000526020600020906000935b601f19841685106111db576001945083601f198116106111c2575b505050811b016002850155610d24565b015160001960f88460031b161c191690558680806111b2565b81810151835560209485019460019093019290910190611197565b909150600287016000526020600020601f840160051c810160208510611242575b90849392915b601f830160051c82018110611233575050610cf5565b6000815585945060010161121d565b5080611217565b015190508680610caf565b9250600187016000526020600020906000935b601f19841685106112ab576001945083601f19811610611292575b505050811b016001850155610cc7565b015160001960f88460031b161c19169055868080611282565b81810151835560209485019460019093019290910190611267565b909150600187016000526020600020601f840160051c810160208510611312575b90849392915b601f830160051c82018110611303575050610c98565b600081558594506001016112ed565b50806112e7565b34610087576020806003193601126100875760043590816000526000815261134760406000205415156118c1565b816000526000815260ff600d6040600020015416156113a357817f44644df8ed5b760d665a93cdc30f6e6a8dadc968d2ce001be791fb389e7b6e079260005260008252600d60406000200160ff198154169055604051908152a1005b6064906040519062461bcd60e51b82526004820152601260248201527156656e746120796120656c696d696e61646160701b6044820152fd5b3461008757602036600319011261008757600435806000526000602052604060002054151561140a906118c1565b8060005260006020526040600020600d015460ff1661142890611903565b600052600060205260406000206040519061144282611723565b8054825261145260018201611760565b602083015261146360028201611760565b60408301526003810154606083015261147e60048201611760565b608083015261148f60058201611760565b60a0830152600681015460c0830152600781015460e083015260088101546101008301526114bf60098201611760565b9081610120840152600a8101549081610140850152600b8101549081610160860152600c8101549081610180870152600d015460ff16151591826101a0870152602086015194604087015196606081015160808201519160a081015160c08201519360e0830151926101000151936040519c8d9c8d6101a081526101a00161154691611806565b8d810360208f015261155791611806565b9060408d01528b810360608d015261156e91611806565b8a810360808c015261157f91611806565b9260a08a015260c089015260e08801528681036101008801526115a191611806565b936101208601526101408501526101608401526101808301520390f35b3461008757602036600319011261008757600435600052600060205260406000208054600182016115ee90611760565b916115fb60028201611760565b60038201549161160d60048201611760565b9261161a60058301611760565b6006830154600784015460088501549061163660098701611760565b93600a87015498600b88015496600c89015498600d015460ff16996040519d8e9d8e528d6101c0908160208201520161166e91611806565b8d810360408f015261167f91611806565b9060608d01528b810360808d015261169691611806565b8a810360a08c01526116a791611806565b9260c08a015260e08901526101008801528681036101208801526116ca91611806565b9361014086015261016085015261018084015215156101a08301520390f35b90600182811c92168015611719575b602083101461170357565b634e487b7160e01b600052602260045260246000fd5b91607f16916116f8565b6101c081019081106001600160401b038211176107f257604052565b90601f801991011681019081106001600160401b038211176107f257604052565b9060405191826000825492611774846116e9565b9081845260019485811690816000146117e357506001146117a0575b505061179e9250038361173f565b565b9093915060005260209081600020936000915b8183106117cb57505061179e93508201013880611790565b855488840185015294850194879450918301916117b3565b91505061179e94506020925060ff191682840152151560051b8201013880611790565b919082519283825260005b848110611832575050826000602080949584010152601f8019910116010190565b602081830181015184830182015201611811565b81601f82011215610087578035906001600160401b0382116107f2576040519261187a601f8401601f19166020018561173f565b8284526020838301011161008757816000926020809301838601378301015290565b60001981146118ab5760010190565b634e487b7160e01b600052601160045260246000fd5b156118c857565b60405162461bcd60e51b815260206004820152601360248201527256656e7461206e6f20656e636f6e747261646160681b6044820152606490fd5b1561190a57565b60405162461bcd60e51b815260206004820152600f60248201526e56656e746120656c696d696e61646160881b6044820152606490fd5b6001600160401b0381116107f25760051b60200190565b805182101561196c5760209160051b010190565b634e487b7160e01b600052603260045260246000fdfea26469706673582212205aa8aabe534b7541e3906265ae22e33b79f26639742e9b2b18fe6e69a7fb187c64736f6c63430008120033",
  "immutableReferences": {},
  "source": "// SPDX-License-Identifier: MIT\r\npragma solidity ^0.8.0;\r\n\r\ncontract VentaContract {\r\n    struct Venta {\r\n        uint id;\r\n        string comprador;\r\n        string propiedad;\r\n        uint cantidad;\r\n        string gma;\r\n        string clase;\r\n        uint precio_unitario;\r\n        uint total_venta_bs;\r\n        uint total_venta_usd;\r\n        string observacion;\r\n        uint cantidad_dia;\r\n        uint id_animal;\r\n        uint fecha_venta;\r\n        bool activa; // Nueva propiedad para marcar la venta como eliminada\r\n    }\r\n\r\n    mapping(uint => Venta) public ventas;\r\n    uint public siguienteVentaId = 1;\r\n\r\n    event VentaRegistrada(uint id, string comprador, uint cantidad, uint fecha_venta);\r\n    event VentaActualizada(uint id, string comprador, uint cantidad);\r\n    event VentaEliminada(uint id);\r\n\r\n    //  Registrar una nueva venta\r\n    function registrarVenta(\r\n        string memory _comprador,\r\n        string memory _propiedad,\r\n        uint _cantidad,\r\n        string memory _gma,\r\n        string memory _clase,\r\n        uint _precio_unitario,\r\n        uint _total_venta_bs,\r\n        uint _total_venta_usd,\r\n        string memory _observacion,\r\n        uint _cantidad_dia,\r\n        uint _id_animal\r\n    ) public {\r\n        uint id = siguienteVentaId++;\r\n        ventas[id] = Venta(\r\n            id, _comprador, _propiedad, _cantidad, _gma, _clase, _precio_unitario, \r\n            _total_venta_bs, _total_venta_usd, _observacion, _cantidad_dia, \r\n            _id_animal, block.timestamp, true\r\n        );\r\n\r\n        emit VentaRegistrada(id, _comprador, _cantidad, block.timestamp);\r\n    }\r\n\r\n    //  Obtener los datos de una venta por su ID\r\n    function obtenerVenta(uint _id) public view returns (\r\n        string memory, string memory, uint, string memory, string memory, uint,\r\n        uint, uint, string memory, uint, uint, uint, bool\r\n    ) {\r\n        require(ventas[_id].id != 0, \"Venta no encontrada\");\r\n        require(ventas[_id].activa, \"Venta eliminada\");\r\n\r\n        Venta memory venta = ventas[_id];\r\n        return (\r\n            venta.comprador, venta.propiedad, venta.cantidad, venta.gma,\r\n            venta.clase, venta.precio_unitario, venta.total_venta_bs,\r\n            venta.total_venta_usd, venta.observacion, venta.cantidad_dia,\r\n            venta.id_animal, venta.fecha_venta, venta.activa\r\n        );\r\n    }\r\n\r\n    //  Listar todas las ventas activas\r\n    function listarVentas() public view returns (Venta[] memory) {\r\n        uint totalActivas = 0;\r\n        for (uint i = 1; i < siguienteVentaId; i++) {\r\n            if (ventas[i].activa) {\r\n                totalActivas++;\r\n            }\r\n        }\r\n\r\n        Venta[] memory lista = new Venta[](totalActivas);\r\n        uint index = 0;\r\n        for (uint i = 1; i < siguienteVentaId; i++) {\r\n            if (ventas[i].activa) {\r\n                lista[index] = ventas[i];\r\n                index++;\r\n            }\r\n        }\r\n        return lista;\r\n    }\r\n\r\n    //  Actualizar los datos de una venta\r\n    function actualizarVenta(\r\n        uint _id,\r\n        string memory _comprador,\r\n        string memory _propiedad,\r\n        uint _cantidad,\r\n        string memory _gma,\r\n        string memory _clase,\r\n        uint _precio_unitario,\r\n        uint _total_venta_bs,\r\n        uint _total_venta_usd,\r\n        string memory _observacion,\r\n        uint _cantidad_dia\r\n    ) public {\r\n        require(ventas[_id].id != 0, \"Venta no encontrada\");\r\n        require(ventas[_id].activa, \"Venta eliminada\");\r\n\r\n        Venta storage venta = ventas[_id];\r\n        venta.comprador = _comprador;\r\n        venta.propiedad = _propiedad;\r\n        venta.cantidad = _cantidad;\r\n        venta.gma = _gma;\r\n        venta.clase = _clase;\r\n        venta.precio_unitario = _precio_unitario;\r\n        venta.total_venta_bs = _total_venta_bs;\r\n        venta.total_venta_usd = _total_venta_usd;\r\n        venta.observacion = _observacion;\r\n        venta.cantidad_dia = _cantidad_dia;\r\n\r\n        emit VentaActualizada(_id, _comprador, _cantidad);\r\n    }\r\n\r\n    //  Eliminar una venta (marcarla como inactiva)\r\n    function eliminarVenta(uint _id) public {\r\n        require(ventas[_id].id != 0, \"Venta no encontrada\");\r\n        require(ventas[_id].activa, \"Venta ya eliminada\");\r\n\r\n        ventas[_id].activa = false;\r\n        emit VentaEliminada(_id);\r\n    }\r\n}\r\n",
  "sourcePath": "C:\\Users\\Raul\\Projects - Development (Code)\\Chainventory\\Chainventory\\truffle\\contracts\\VentaContract.sol",
  "compiler": {
    "name": "solc",
    "version": "0.8.18+commit.87f61d96.Emscripten.clang"
  },
  "schemaVersion": "3.4.16",
  "updatedAt": "2025-05-23T12:40:17.292Z",
  "networkType": "ethereum",
  "devdoc": {
    "kind": "dev",
    "methods": {},
    "version": 1
  },
  "userdoc": {
    "kind": "user",
    "methods": {},
    "version": 1
  }
}