{
  "contractName": "VentaContract",
  "abi": [
    {
      "anonymous": false,
      "inputs": [
        {
          "indexed": false,
          "internalType": "uint256",
          "name": "id",
          "type": "uint256"
        },
        {
          "indexed": false,
          "internalType": "string",
          "name": "comprador",
          "type": "string"
        },
        {
          "indexed": false,
          "internalType": "uint256",
          "name": "cantidad",
          "type": "uint256"
        },
        {
          "indexed": false,
          "internalType": "uint256",
          "name": "fecha_venta",
          "type": "uint256"
        }
      ],
      "name": "VentaRegistrada",
      "type": "event"
    },
    {
      "inputs": [],
      "name": "siguienteVentaId",
      "outputs": [
        {
          "internalType": "uint256",
          "name": "",
          "type": "uint256"
        }
      ],
      "stateMutability": "view",
      "type": "function",
      "constant": true
    },
    {
      "inputs": [
        {
          "internalType": "uint256",
          "name": "",
          "type": "uint256"
        }
      ],
      "name": "ventas",
      "outputs": [
        {
          "internalType": "uint256",
          "name": "id",
          "type": "uint256"
        },
        {
          "internalType": "string",
          "name": "comprador",
          "type": "string"
        },
        {
          "internalType": "string",
          "name": "propiedad",
          "type": "string"
        },
        {
          "internalType": "uint256",
          "name": "cantidad",
          "type": "uint256"
        },
        {
          "internalType": "string",
          "name": "gma",
          "type": "string"
        },
        {
          "internalType": "string",
          "name": "clase",
          "type": "string"
        },
        {
          "internalType": "uint256",
          "name": "precio_unitario",
          "type": "uint256"
        },
        {
          "internalType": "uint256",
          "name": "total_venta_bs",
          "type": "uint256"
        },
        {
          "internalType": "uint256",
          "name": "total_venta_usd",
          "type": "uint256"
        },
        {
          "internalType": "string",
          "name": "observacion",
          "type": "string"
        },
        {
          "internalType": "uint256",
          "name": "cantidad_dia",
          "type": "uint256"
        },
        {
          "internalType": "uint256",
          "name": "id_animal",
          "type": "uint256"
        },
        {
          "internalType": "uint256",
          "name": "fecha_venta",
          "type": "uint256"
        }
      ],
      "stateMutability": "view",
      "type": "function",
      "constant": true
    },
    {
      "inputs": [
        {
          "internalType": "string",
          "name": "_comprador",
          "type": "string"
        },
        {
          "internalType": "string",
          "name": "_propiedad",
          "type": "string"
        },
        {
          "internalType": "uint256",
          "name": "_cantidad",
          "type": "uint256"
        },
        {
          "internalType": "string",
          "name": "_gma",
          "type": "string"
        },
        {
          "internalType": "string",
          "name": "_clase",
          "type": "string"
        },
        {
          "internalType": "uint256",
          "name": "_precio_unitario",
          "type": "uint256"
        },
        {
          "internalType": "uint256",
          "name": "_total_venta_bs",
          "type": "uint256"
        },
        {
          "internalType": "uint256",
          "name": "_total_venta_usd",
          "type": "uint256"
        },
        {
          "internalType": "string",
          "name": "_observacion",
          "type": "string"
        },
        {
          "internalType": "uint256",
          "name": "_cantidad_dia",
          "type": "uint256"
        },
        {
          "internalType": "uint256",
          "name": "_id_animal",
          "type": "uint256"
        }
      ],
      "name": "registrarVenta",
      "outputs": [],
      "stateMutability": "nonpayable",
      "type": "function"
    }
  ],
  "bytecode": "0x6080806040523461001a5760018055610b5890816100208239f35b600080fdfe6080604052600436101561001257600080fd5b60003560e01c806311b006741461087157806377653a5b146100605763ee4ee1dc1461003d57600080fd5b3461005b57600036600319011261005b576020600154604051908152f35b600080fd5b3461005b5761016036600319011261005b576004356001600160401b03811161005b57610091903690600401610acc565b6024356001600160401b03811161005b576100b0903690600401610acc565b906064356001600160401b03811161005b576100d0903690600401610acc565b6084356001600160401b03811161005b576100ef903690600401610acc565b610104356001600160401b03811161005b5761010f903690600401610acc565b9060015492600019841461085b5760018401600155604051956101a087018781106001600160401b038211176105055760405284875285602088015260408701526044356060870152608086015260a085015260a43560c085015260c43560e085015260e43561010085015261012084015261012435610140840152610144356101608401524261018084015280600052600060205260406000208351815560208401518051906001600160401b0382116105055781906101d3600185015461098b565b601f8111610808575b50602090601f83116001146107965760009261078b575b50508160011b916000199060031b1c19161760018201555b60408401518051906001600160401b038211610505578190610230600285015461098b565b601f8111610738575b50602090601f83116001146106c6576000926106bb575b50508160011b916000199060031b1c19161760028201555b6060840151600382015560808401518051906001600160401b038211610505578190610297600485015461098b565b601f8111610668575b50602090601f83116001146105f6576000926105eb575b50508160011b916000199060031b1c19161760048201555b60a08401518051906001600160401b0382116105055781906102f4600585015461098b565b601f8111610598575b50602090601f83116001146105265760009261051b575b50508160011b916000199060031b1c19161760058201555b60c0840151600682015560e0840151600782015561010084015160088201556101208401518051906001600160401b0382116105055761036f600984015461098b565b601f81116104be575b50602090601f8311600114610427579582600c93610180937f1bf61f92640ea5cc6fd9069b031fa50a422a8d497c043cbfccdcfaba4db6c4d59960009261041c575b50508160011b916000199060031b1c19161760098501555b610140810151600a850155610160810151600b85015501519101556104096040519283928352608060208401526080830190610a8c565b60443560408301524260608301520390a1005b0151905089806103ba565b906009840160005260206000209160005b601f19851681106104a6575083610180937f1bf61f92640ea5cc6fd9069b031fa50a422a8d497c043cbfccdcfaba4db6c4d59993600193600c97601f1981161061048d575b505050811b0160098501556103d2565b015160001960f88460031b161c1916905589808061047d565b91926020600181928685015181550194019201610438565b600984016000526020600020601f840160051c8101602085106104fe575b601f830160051c820181106104f2575050610378565b600081556001016104dc565b50806104dc565b634e487b7160e01b600052604160045260246000fd5b015190508680610314565b9250600584016000526020600020906000935b601f198416851061057d576001945083601f19811610610564575b505050811b01600582015561032c565b015160001960f88460031b161c19169055868080610554565b81810151835560209485019460019093019290910190610539565b909150600584016000526020600020601f840160051c8101602085106105e4575b90849392915b601f830160051c820181106105d55750506102fd565b600081558594506001016105bf565b50806105b9565b0151905086806102b7565b9250600484016000526020600020906000935b601f198416851061064d576001945083601f19811610610634575b505050811b0160048201556102cf565b015160001960f88460031b161c19169055868080610624565b81810151835560209485019460019093019290910190610609565b909150600484016000526020600020601f840160051c8101602085106106b4575b90849392915b601f830160051c820181106106a55750506102a0565b6000815585945060010161068f565b5080610689565b015190508680610250565b9250600284016000526020600020906000935b601f198416851061071d576001945083601f19811610610704575b505050811b016002820155610268565b015160001960f88460031b161c191690558680806106f4565b818101518355602094850194600190930192909101906106d9565b909150600284016000526020600020601f840160051c810160208510610784575b90849392915b601f830160051c82018110610775575050610239565b6000815585945060010161075f565b5080610759565b0151905086806101f3565b9250600184016000526020600020906000935b601f19841685106107ed576001945083601f198116106107d4575b505050811b01600182015561020b565b015160001960f88460031b161c191690558680806107c4565b818101518355602094850194600190930192909101906107a9565b909150600184016000526020600020601f840160051c810160208510610854575b90849392915b601f830160051c820181106108455750506101dc565b6000815585945060010161082f565b5080610829565b634e487b7160e01b600052601160045260246000fd5b3461005b57602036600319011261005b57600435600052600060205260406000208054600182016108a1906109e6565b916108ae600282016109e6565b6003820154916108c0600482016109e6565b6108cc600583016109e6565b60068301546007840154600885015491926108e9600987016109e6565b94600a87015498600b88015497600c0154986040519c8d9c8d528c6101a06020819201528d0161091891610a8c565b8c810360408e015261092991610a8c565b9060608c01528a810360808c015261094091610a8c565b89810360a08b015261095191610a8c565b9260c089015260e088015261010087015285810361012087015261097491610a8c565b926101408501526101608401526101808301520390f35b90600182811c921680156109bb575b60208310146109a557565b634e487b7160e01b600052602260045260246000fd5b91607f169161099a565b90601f801991011681019081106001600160401b0382111761050557604052565b90604051918260008254926109fa8461098b565b908184526001948581169081600014610a695750600114610a26575b5050610a24925003836109c5565b565b9093915060005260209081600020936000915b818310610a51575050610a2493508201013880610a16565b85548884018501529485019487945091830191610a39565b915050610a2494506020925060ff191682840152151560051b8201013880610a16565b919082519283825260005b848110610ab8575050826000602080949584010152601f8019910116010190565b602081830181015184830182015201610a97565b81601f8201121561005b578035906001600160401b0382116105055760405192610b00601f8401601f1916602001856109c5565b8284526020838301011161005b5781600092602080930183860137830101529056fea26469706673582212201089ec88dcd99045bf72b73130fd37de0f102524d1297e92cc1601a3ce27e12d64736f6c63430008120033",
  "immutableReferences": {},
  "source": "// SPDX-License-Identifier: MIT\r\npragma solidity ^0.8.0;\r\n\r\ncontract VentaContract {\r\n    struct Venta {\r\n        uint id;\r\n        string comprador;\r\n        string propiedad;\r\n        uint cantidad;\r\n        string gma;\r\n        string clase;\r\n        uint precio_unitario;\r\n        uint total_venta_bs;\r\n        uint total_venta_usd;\r\n        string observacion;\r\n        uint cantidad_dia;\r\n        uint id_animal;\r\n        uint fecha_venta;\r\n    }\r\n\r\n    mapping(uint => Venta) public ventas;\r\n    uint public siguienteVentaId = 1;\r\n\r\n    event VentaRegistrada(uint id, string comprador, uint cantidad, uint fecha_venta);\r\n\r\n    function registrarVenta(\r\n        string memory _comprador,\r\n        string memory _propiedad,\r\n        uint _cantidad,\r\n        string memory _gma,\r\n        string memory _clase,\r\n        uint _precio_unitario,\r\n        uint _total_venta_bs,\r\n        uint _total_venta_usd,\r\n        string memory _observacion,\r\n        uint _cantidad_dia,\r\n        uint _id_animal\r\n    ) public {\r\n        uint id = siguienteVentaId++;\r\n        ventas[id] = Venta(\r\n            id, _comprador, _propiedad, _cantidad, _gma, _clase, _precio_unitario, \r\n            _total_venta_bs, _total_venta_usd, _observacion, _cantidad_dia, \r\n            _id_animal, block.timestamp\r\n        );\r\n\r\n        emit VentaRegistrada(id, _comprador, _cantidad, block.timestamp);\r\n    }\r\n}\r\n",
  "sourcePath": "C:\\Users\\Raul\\Documents\\GitHub\\Chainventory\\Chainventory\\truffle\\contracts\\VentaContract.sol",
  "compiler": {
    "name": "solc",
    "version": "0.8.18+commit.87f61d96.Emscripten.clang"
  },
  "schemaVersion": "3.4.16",
  "updatedAt": "2025-02-24T19:27:29.063Z",
  "networkType": "ethereum",
  "devdoc": {
    "kind": "dev",
    "methods": {},
    "version": 1
  },
  "userdoc": {
    "kind": "user",
    "methods": {},
    "version": 1
  }
}